{
  "_format": "hh-sol-artifact-1",
  "contractName": "PizzaPartyCore",
  "sourceName": "contracts/PizzaPartyCore.sol",
  "abi": [
    {
      "inputs": [
        {
          "internalType": "address",
          "name": "_vmfToken",
          "type": "address"
        }
      ],
      "stateMutability": "nonpayable",
      "type": "constructor"
    },
    {
      "inputs": [],
      "name": "EnforcedPause",
      "type": "error"
    },
    {
      "inputs": [],
      "name": "ExpectedPause",
      "type": "error"
    },
    {
      "inputs": [
        {
          "internalType": "address",
          "name": "owner",
          "type": "address"
        }
      ],
      "name": "OwnableInvalidOwner",
      "type": "error"
    },
    {
      "inputs": [
        {
          "internalType": "address",
          "name": "account",
          "type": "address"
        }
      ],
      "name": "OwnableUnauthorizedAccount",
      "type": "error"
    },
    {
      "inputs": [],
      "name": "ReentrancyGuardReentrantCall",
      "type": "error"
    },
    {
      "anonymous": false,
      "inputs": [
        {
          "indexed": false,
          "internalType": "uint256",
          "name": "gameId",
          "type": "uint256"
        },
        {
          "indexed": false,
          "internalType": "address[]",
          "name": "winners",
          "type": "address[]"
        },
        {
          "indexed": false,
          "internalType": "uint256",
          "name": "jackpot",
          "type": "uint256"
        }
      ],
      "name": "DailyWinnersSelected",
      "type": "event"
    },
    {
      "anonymous": false,
      "inputs": [
        {
          "indexed": false,
          "internalType": "uint256",
          "name": "dailyJackpot",
          "type": "uint256"
        },
        {
          "indexed": false,
          "internalType": "uint256",
          "name": "weeklyJackpot",
          "type": "uint256"
        }
      ],
      "name": "JackpotUpdated",
      "type": "event"
    },
    {
      "anonymous": false,
      "inputs": [
        {
          "indexed": true,
          "internalType": "address",
          "name": "previousOwner",
          "type": "address"
        },
        {
          "indexed": true,
          "internalType": "address",
          "name": "newOwner",
          "type": "address"
        }
      ],
      "name": "OwnershipTransferred",
      "type": "event"
    },
    {
      "anonymous": false,
      "inputs": [
        {
          "indexed": false,
          "internalType": "address",
          "name": "account",
          "type": "address"
        }
      ],
      "name": "Paused",
      "type": "event"
    },
    {
      "anonymous": false,
      "inputs": [
        {
          "indexed": true,
          "internalType": "address",
          "name": "player",
          "type": "address"
        },
        {
          "indexed": false,
          "internalType": "bool",
          "name": "blacklisted",
          "type": "bool"
        }
      ],
      "name": "PlayerBlacklisted",
      "type": "event"
    },
    {
      "anonymous": false,
      "inputs": [
        {
          "indexed": true,
          "internalType": "address",
          "name": "player",
          "type": "address"
        },
        {
          "indexed": true,
          "internalType": "uint256",
          "name": "gameId",
          "type": "uint256"
        },
        {
          "indexed": false,
          "internalType": "uint256",
          "name": "amount",
          "type": "uint256"
        }
      ],
      "name": "PlayerEntered",
      "type": "event"
    },
    {
      "anonymous": false,
      "inputs": [
        {
          "indexed": true,
          "internalType": "address",
          "name": "referrer",
          "type": "address"
        },
        {
          "indexed": true,
          "internalType": "address",
          "name": "referred",
          "type": "address"
        }
      ],
      "name": "ReferralRegistered",
      "type": "event"
    },
    {
      "anonymous": false,
      "inputs": [
        {
          "indexed": true,
          "internalType": "address",
          "name": "player",
          "type": "address"
        },
        {
          "indexed": false,
          "internalType": "uint256",
          "name": "amount",
          "type": "uint256"
        },
        {
          "indexed": false,
          "internalType": "string",
          "name": "reason",
          "type": "string"
        }
      ],
      "name": "ToppingsAwarded",
      "type": "event"
    },
    {
      "anonymous": false,
      "inputs": [
        {
          "indexed": false,
          "internalType": "address",
          "name": "account",
          "type": "address"
        }
      ],
      "name": "Unpaused",
      "type": "event"
    },
    {
      "anonymous": false,
      "inputs": [
        {
          "indexed": false,
          "internalType": "uint256",
          "name": "gameId",
          "type": "uint256"
        },
        {
          "indexed": false,
          "internalType": "address[]",
          "name": "winners",
          "type": "address[]"
        },
        {
          "indexed": false,
          "internalType": "uint256",
          "name": "jackpot",
          "type": "uint256"
        }
      ],
      "name": "WeeklyWinnersSelected",
      "type": "event"
    },
    {
      "inputs": [],
      "name": "DAILY_PLAY_REWARD",
      "outputs": [
        {
          "internalType": "uint256",
          "name": "",
          "type": "uint256"
        }
      ],
      "stateMutability": "view",
      "type": "function"
    },
    {
      "inputs": [],
      "name": "DAILY_WINNERS_COUNT",
      "outputs": [
        {
          "internalType": "uint256",
          "name": "",
          "type": "uint256"
        }
      ],
      "stateMutability": "view",
      "type": "function"
    },
    {
      "inputs": [],
      "name": "ENTRY_COOLDOWN",
      "outputs": [
        {
          "internalType": "uint256",
          "name": "",
          "type": "uint256"
        }
      ],
      "stateMutability": "view",
      "type": "function"
    },
    {
      "inputs": [],
      "name": "MAX_DAILY_ENTRIES",
      "outputs": [
        {
          "internalType": "uint256",
          "name": "",
          "type": "uint256"
        }
      ],
      "stateMutability": "view",
      "type": "function"
    },
    {
      "inputs": [],
      "name": "MIN_VMF_REQUIRED",
      "outputs": [
        {
          "internalType": "uint256",
          "name": "",
          "type": "uint256"
        }
      ],
      "stateMutability": "view",
      "type": "function"
    },
    {
      "inputs": [],
      "name": "REFERRAL_REWARD",
      "outputs": [
        {
          "internalType": "uint256",
          "name": "",
          "type": "uint256"
        }
      ],
      "stateMutability": "view",
      "type": "function"
    },
    {
      "inputs": [],
      "name": "VMF_HOLDING_REWARD",
      "outputs": [
        {
          "internalType": "uint256",
          "name": "",
          "type": "uint256"
        }
      ],
      "stateMutability": "view",
      "type": "function"
    },
    {
      "inputs": [],
      "name": "VMF_HOLDING_THRESHOLD",
      "outputs": [
        {
          "internalType": "uint256",
          "name": "",
          "type": "uint256"
        }
      ],
      "stateMutability": "view",
      "type": "function"
    },
    {
      "inputs": [],
      "name": "VMF_PER_TOPPING",
      "outputs": [
        {
          "internalType": "uint256",
          "name": "",
          "type": "uint256"
        }
      ],
      "stateMutability": "view",
      "type": "function"
    },
    {
      "inputs": [],
      "name": "WEEKLY_WINNERS_COUNT",
      "outputs": [
        {
          "internalType": "uint256",
          "name": "",
          "type": "uint256"
        }
      ],
      "stateMutability": "view",
      "type": "function"
    },
    {
      "inputs": [
        {
          "internalType": "uint256",
          "name": "amount",
          "type": "uint256"
        }
      ],
      "name": "addToDailyJackpot",
      "outputs": [],
      "stateMutability": "nonpayable",
      "type": "function"
    },
    {
      "inputs": [
        {
          "internalType": "address",
          "name": "",
          "type": "address"
        }
      ],
      "name": "blacklistedAddresses",
      "outputs": [
        {
          "internalType": "bool",
          "name": "",
          "type": "bool"
        }
      ],
      "stateMutability": "view",
      "type": "function"
    },
    {
      "inputs": [],
      "name": "currentDailyJackpot",
      "outputs": [
        {
          "internalType": "uint256",
          "name": "",
          "type": "uint256"
        }
      ],
      "stateMutability": "view",
      "type": "function"
    },
    {
      "inputs": [
        {
          "internalType": "uint256",
          "name": "",
          "type": "uint256"
        }
      ],
      "name": "dailyPlayerCount",
      "outputs": [
        {
          "internalType": "uint256",
          "name": "",
          "type": "uint256"
        }
      ],
      "stateMutability": "view",
      "type": "function"
    },
    {
      "inputs": [
        {
          "internalType": "uint256",
          "name": "",
          "type": "uint256"
        },
        {
          "internalType": "uint256",
          "name": "",
          "type": "uint256"
        }
      ],
      "name": "dailyPlayers",
      "outputs": [
        {
          "internalType": "address",
          "name": "",
          "type": "address"
        }
      ],
      "stateMutability": "view",
      "type": "function"
    },
    {
      "inputs": [
        {
          "internalType": "bool",
          "name": "pause",
          "type": "bool"
        }
      ],
      "name": "emergencyPause",
      "outputs": [],
      "stateMutability": "nonpayable",
      "type": "function"
    },
    {
      "inputs": [],
      "name": "emergencyWithdraw",
      "outputs": [],
      "stateMutability": "nonpayable",
      "type": "function"
    },
    {
      "inputs": [
        {
          "internalType": "address",
          "name": "referrer",
          "type": "address"
        }
      ],
      "name": "enterDailyGame",
      "outputs": [],
      "stateMutability": "nonpayable",
      "type": "function"
    },
    {
      "inputs": [],
      "name": "getCurrentGameId",
      "outputs": [
        {
          "internalType": "uint256",
          "name": "gameId",
          "type": "uint256"
        }
      ],
      "stateMutability": "view",
      "type": "function"
    },
    {
      "inputs": [],
      "name": "getDailyJackpot",
      "outputs": [
        {
          "internalType": "uint256",
          "name": "",
          "type": "uint256"
        }
      ],
      "stateMutability": "view",
      "type": "function"
    },
    {
      "inputs": [
        {
          "internalType": "uint256",
          "name": "gameId",
          "type": "uint256"
        }
      ],
      "name": "getEligibleDailyPlayers",
      "outputs": [
        {
          "internalType": "address[]",
          "name": "eligiblePlayers",
          "type": "address[]"
        }
      ],
      "stateMutability": "view",
      "type": "function"
    },
    {
      "inputs": [
        {
          "internalType": "uint256",
          "name": "gameId",
          "type": "uint256"
        }
      ],
      "name": "getEligibleWeeklyPlayers",
      "outputs": [
        {
          "internalType": "address[]",
          "name": "eligiblePlayers",
          "type": "address[]"
        }
      ],
      "stateMutability": "view",
      "type": "function"
    },
    {
      "inputs": [],
      "name": "getMinimumVMFRequired",
      "outputs": [
        {
          "internalType": "uint256",
          "name": "",
          "type": "uint256"
        }
      ],
      "stateMutability": "view",
      "type": "function"
    },
    {
      "inputs": [
        {
          "internalType": "address",
          "name": "player",
          "type": "address"
        }
      ],
      "name": "getPlayerInfo",
      "outputs": [
        {
          "components": [
            {
              "internalType": "uint256",
              "name": "totalToppings",
              "type": "uint256"
            },
            {
              "internalType": "uint256",
              "name": "dailyEntries",
              "type": "uint256"
            },
            {
              "internalType": "uint256",
              "name": "weeklyEntries",
              "type": "uint256"
            },
            {
              "internalType": "uint256",
              "name": "lastEntryTime",
              "type": "uint256"
            },
            {
              "internalType": "uint256",
              "name": "vmfBalance",
              "type": "uint256"
            },
            {
              "internalType": "uint256",
              "name": "lastVmfBalanceCheck",
              "type": "uint256"
            },
            {
              "internalType": "uint256",
              "name": "referrals",
              "type": "uint256"
            },
            {
              "internalType": "bool",
              "name": "isBlacklisted",
              "type": "bool"
            }
          ],
          "internalType": "struct PizzaPartyCore.Player",
          "name": "",
          "type": "tuple"
        }
      ],
      "stateMutability": "view",
      "type": "function"
    },
    {
      "inputs": [
        {
          "internalType": "address",
          "name": "player",
          "type": "address"
        }
      ],
      "name": "getPlayerReferralInfo",
      "outputs": [
        {
          "internalType": "uint256",
          "name": "referrals",
          "type": "uint256"
        },
        {
          "internalType": "address",
          "name": "referrer",
          "type": "address"
        }
      ],
      "stateMutability": "view",
      "type": "function"
    },
    {
      "inputs": [
        {
          "internalType": "address",
          "name": "player",
          "type": "address"
        }
      ],
      "name": "getPlayerToppings",
      "outputs": [
        {
          "internalType": "uint256",
          "name": "",
          "type": "uint256"
        }
      ],
      "stateMutability": "view",
      "type": "function"
    },
    {
      "inputs": [
        {
          "internalType": "address",
          "name": "player",
          "type": "address"
        }
      ],
      "name": "getPlayerVMFBalance",
      "outputs": [
        {
          "internalType": "uint256",
          "name": "",
          "type": "uint256"
        }
      ],
      "stateMutability": "view",
      "type": "function"
    },
    {
      "inputs": [],
      "name": "getTotalToppingsClaimed",
      "outputs": [
        {
          "internalType": "uint256",
          "name": "",
          "type": "uint256"
        }
      ],
      "stateMutability": "view",
      "type": "function"
    },
    {
      "inputs": [],
      "name": "getWeeklyJackpot",
      "outputs": [
        {
          "internalType": "uint256",
          "name": "",
          "type": "uint256"
        }
      ],
      "stateMutability": "view",
      "type": "function"
    },
    {
      "inputs": [],
      "name": "getWeeklyToppingsPool",
      "outputs": [
        {
          "internalType": "uint256",
          "name": "",
          "type": "uint256"
        }
      ],
      "stateMutability": "view",
      "type": "function"
    },
    {
      "inputs": [],
      "name": "isDailyDrawReady",
      "outputs": [
        {
          "internalType": "bool",
          "name": "ready",
          "type": "bool"
        }
      ],
      "stateMutability": "view",
      "type": "function"
    },
    {
      "inputs": [],
      "name": "isWeeklyDrawReady",
      "outputs": [
        {
          "internalType": "bool",
          "name": "ready",
          "type": "bool"
        }
      ],
      "stateMutability": "view",
      "type": "function"
    },
    {
      "inputs": [],
      "name": "lastDailyDraw",
      "outputs": [
        {
          "internalType": "uint256",
          "name": "",
          "type": "uint256"
        }
      ],
      "stateMutability": "view",
      "type": "function"
    },
    {
      "inputs": [],
      "name": "lastWeeklyDraw",
      "outputs": [
        {
          "internalType": "uint256",
          "name": "",
          "type": "uint256"
        }
      ],
      "stateMutability": "view",
      "type": "function"
    },
    {
      "inputs": [],
      "name": "owner",
      "outputs": [
        {
          "internalType": "address",
          "name": "",
          "type": "address"
        }
      ],
      "stateMutability": "view",
      "type": "function"
    },
    {
      "inputs": [],
      "name": "paused",
      "outputs": [
        {
          "internalType": "bool",
          "name": "",
          "type": "bool"
        }
      ],
      "stateMutability": "view",
      "type": "function"
    },
    {
      "inputs": [
        {
          "internalType": "address",
          "name": "",
          "type": "address"
        }
      ],
      "name": "players",
      "outputs": [
        {
          "internalType": "uint256",
          "name": "totalToppings",
          "type": "uint256"
        },
        {
          "internalType": "uint256",
          "name": "dailyEntries",
          "type": "uint256"
        },
        {
          "internalType": "uint256",
          "name": "weeklyEntries",
          "type": "uint256"
        },
        {
          "internalType": "uint256",
          "name": "lastEntryTime",
          "type": "uint256"
        },
        {
          "internalType": "uint256",
          "name": "vmfBalance",
          "type": "uint256"
        },
        {
          "internalType": "uint256",
          "name": "lastVmfBalanceCheck",
          "type": "uint256"
        },
        {
          "internalType": "uint256",
          "name": "referrals",
          "type": "uint256"
        },
        {
          "internalType": "bool",
          "name": "isBlacklisted",
          "type": "bool"
        }
      ],
      "stateMutability": "view",
      "type": "function"
    },
    {
      "inputs": [
        {
          "internalType": "uint256",
          "name": "gameId",
          "type": "uint256"
        },
        {
          "internalType": "address[]",
          "name": "winners",
          "type": "address[]"
        }
      ],
      "name": "processDailyWinners",
      "outputs": [],
      "stateMutability": "nonpayable",
      "type": "function"
    },
    {
      "inputs": [
        {
          "internalType": "uint256",
          "name": "gameId",
          "type": "uint256"
        },
        {
          "internalType": "address[]",
          "name": "winners",
          "type": "address[]"
        }
      ],
      "name": "processWeeklyWinners",
      "outputs": [],
      "stateMutability": "nonpayable",
      "type": "function"
    },
    {
      "inputs": [
        {
          "internalType": "address",
          "name": "",
          "type": "address"
        }
      ],
      "name": "referralCount",
      "outputs": [
        {
          "internalType": "uint256",
          "name": "",
          "type": "uint256"
        }
      ],
      "stateMutability": "view",
      "type": "function"
    },
    {
      "inputs": [
        {
          "internalType": "address",
          "name": "",
          "type": "address"
        }
      ],
      "name": "referrers",
      "outputs": [
        {
          "internalType": "address",
          "name": "",
          "type": "address"
        }
      ],
      "stateMutability": "view",
      "type": "function"
    },
    {
      "inputs": [],
      "name": "renounceOwnership",
      "outputs": [],
      "stateMutability": "nonpayable",
      "type": "function"
    },
    {
      "inputs": [
        {
          "internalType": "address",
          "name": "player",
          "type": "address"
        },
        {
          "internalType": "bool",
          "name": "blacklisted",
          "type": "bool"
        }
      ],
      "name": "setPlayerBlacklist",
      "outputs": [],
      "stateMutability": "nonpayable",
      "type": "function"
    },
    {
      "inputs": [],
      "name": "totalToppingsClaimed",
      "outputs": [
        {
          "internalType": "uint256",
          "name": "",
          "type": "uint256"
        }
      ],
      "stateMutability": "view",
      "type": "function"
    },
    {
      "inputs": [
        {
          "internalType": "address",
          "name": "newOwner",
          "type": "address"
        }
      ],
      "name": "transferOwnership",
      "outputs": [],
      "stateMutability": "nonpayable",
      "type": "function"
    },
    {
      "inputs": [],
      "name": "vmfToken",
      "outputs": [
        {
          "internalType": "contract IERC20",
          "name": "",
          "type": "address"
        }
      ],
      "stateMutability": "view",
      "type": "function"
    },
    {
      "inputs": [
        {
          "internalType": "uint256",
          "name": "",
          "type": "uint256"
        }
      ],
      "name": "weeklyPlayerCount",
      "outputs": [
        {
          "internalType": "uint256",
          "name": "",
          "type": "uint256"
        }
      ],
      "stateMutability": "view",
      "type": "function"
    },
    {
      "inputs": [
        {
          "internalType": "uint256",
          "name": "",
          "type": "uint256"
        },
        {
          "internalType": "uint256",
          "name": "",
          "type": "uint256"
        }
      ],
      "name": "weeklyPlayers",
      "outputs": [
        {
          "internalType": "address",
          "name": "",
          "type": "address"
        }
      ],
      "stateMutability": "view",
      "type": "function"
    },
    {
      "inputs": [],
      "name": "weeklyToppingsPool",
      "outputs": [
        {
          "internalType": "uint256",
          "name": "",
          "type": "uint256"
        }
      ],
      "stateMutability": "view",
      "type": "function"
    }
  ],
  "bytecode": "0x60a03461013d57601f611fd638819003918201601f19168301916001600160401b038311848410176101425780849260209460405283398101031261013d57516001600160a01b038082169182900361013d57600160005533156101245760018054336001600160a01b03198216811790925560405192167f8be0079c531659141344cd1fd0a4f28419497f9722a3daafe3b4186f6b6457e0600080a381156100e257506080526002805542600455604051611e7d9081610159823960805181818161055c015281816109d401528181610f94015281816111f801526112d50152f35b62461bcd60e51b815260206004820152601960248201527f496e76616c696420564d4620746f6b656e2061646472657373000000000000006044820152606490fd5b604051631e4fbdf760e01b815260006004820152602490fd5b600080fd5b634e487b7160e01b600052604160045260246000fdfe6040608081526004908136101561001557600080fd5b600091823560e01c80630d9f92ca146119d85780631303b3c814610d59578063137c221a1461031957806316fa1086146119bc5780631a266a72146112275780632086eefa146111e35780632dc1001f1461119a5780632efb53da1461116a57806343f2a080146110ca5780634a3b68cc1461108f5780634e3c97381461106c5780634eb692a51461103957806356768b5e14610ea35780635932840114610d9f5780635c975abb14610d785780636460332814610d59578063715018a614610d0e5780637550b84f14610cf15780637568e82614610cd557806379f329d914610cb1578063821c27ad14610c7957806384a3a0f314610c5d5780638a37da1f14610c3a5780638b0a234c146103385780638c5747af14610be95780638da5cb5b14610bc0578063920736e514610b745780639e9e4056146108c5578063a2635401146108a6578063a9b8b45114610889578063aab40f3114610428578063bacf46f31461080e578063bbc3ced714610809578063c14e1e05146107ea578063c65a8568146107a6578063ccb60e0114610727578063d5749d42146106e9578063d61b86bb146106c2578063db2e21bc14610523578063db74559b146104eb578063dd23b9cb146104cf578063e2eb41ff14610447578063e3d440a714610428578063e8f6940e1461035c578063eac9f12414610338578063f09a0ac414610319578063f2fde38b146102a2578063fc564514146102665763ffc395041461023c57600080fd5b346102625760203660031901126102625760209282913581526009845220549051908152f35b8280fd5b50503461029e57602036600319011261029e5760209181906001600160a01b0361028e6119f9565b168152600c845220549051908152f35b5080fd5b5034610262576020366003190112610262576102bc6119f9565b906102c5611dbb565b6001600160a01b03918216928315610303575050600180546001600160a01b03198116841790915516600080516020611e088339815191528380a380f35b51631e4fbdf760e01b8152908101849052602490fd5b50503461029e578160031936011261029e576020906007549051908152f35b50503461029e578160031936011261029e576020905168056bc75e2d631000008152f35b5034610262576020366003190112610262578035801515810361042457610381611dbb565b156103ce575060207f62e78cea01bee320cd4e420270b5ea74000d11b0c9f74754ebdbfc544b05a258916103b3611d9a565b6001805460ff60a01b1916600160a01b17905551338152a180f35b6001549060ff8260a01c1615610416575060ff60a01b1916600155513381527f5db9ee0a495bf2e6ff9c91a7834c1ba4fdd244a5e8aa4e537bd38aeae4b073aa90602090a180f35b8251638dfc202b60e01b8152fd5b8380fd5b50503461029e578160031936011261029e576020906003549051908152f35b5034610262576020366003190112610262576101009282906001600160a01b0361046f6119f9565b168152600c602052208054926001820154926002830154906003840154908401549160058501549360ff600760068801549701541696815198895260208901528701526060860152608085015260a084015260c0830152151560e0820152f35b50503461029e578160031936011261029e576020905160018152f35b50503461029e57602036600319011261029e5760209181906001600160a01b036105136119f9565b168152600f845220549051908152f35b50903461026257826003193601126102625761053d611dbb565b80516370a0823160e01b81523083820152602091906001600160a01b037f00000000000000000000000000000000000000000000000000000000000000008116908483602481855afa9283156106b8578793610685575b508215610649579184916105c1936001541688865180968195829463a9059cbb60e01b84528c8401611ca4565b03925af190811561063f578591610612575b50156105dd578380f35b5162461bcd60e51b815291820152601160248201527015da5d1a191c985dd85b0819985a5b1959607a1b604482015260649150fd5b6106329150833d8511610638575b61062a8183611b9c565b810190611c8c565b386105d3565b503d610620565b82513d87823e3d90fd5b835162461bcd60e51b815280870186905260166024820152754e6f2062616c616e636520746f20776974686472617760501b6044820152606490fd5b9092508481813d83116106b1575b61069d8183611b9c565b810103126106ad57519138610594565b8680fd5b503d610693565b84513d89823e3d90fd5b5034610262576020366003190112610262576020928291358152600b845220549051908152f35b50503461029e57602036600319011261029e5760209160ff9082906001600160a01b036107146119f9565b168152600d855220541690519015158152f35b5082903461029e576020906020600319360112610262573591828152600b602052838120549161075683611d54565b93825b8481106107715786518061076d8882611aa3565b0390f35b600190828552600a845261078781898720611a25565b838060a01b0391549060031b1c1661079f8289611d86565b5201610759565b5091903461029e578160031936011261029e576005549162093a8083018093116107d7576020838351904210158152f35b634e487b7160e01b815260118452602490fd5b50503461029e578160031936011261029e576020906005549051908152f35b6119d8565b5082903461029e5760209060206003193601126102625735918281526009602052838120549161083d83611d54565b93825b8481106108545786518061076d8882611aa3565b6001908285526008845261086a81898720611a25565b838060a01b0391549060031b1c166108828289611d86565b5201610840565b50503461029e578160031936011261029e5760209051610e108152f35b50503461029e578160031936011261029e576020906002549051908152f35b5082903461029e576108d636611a53565b9460018060a09493941b036001906108f381600154163314611bbf565b6108fe881515611c06565b61090a88600354611c48565b90875b89811061097c575050505061094e907fdd1c72fcda97fcfc2fe124c4aa194986caca752d3769c00a6495659509d7b19b949596600354915194859485611cbf565b0390a160025460001981146109695760010160025542905580f35b634e487b7160e01b835260118252602483fd5b808261099261098d87948e8c611c68565b611c78565b1661099e575b0161090d565b90506109ae61098d828c8a611c68565b855163a9059cbb60e01b815289818c81806109cf8a60209889978401611ca4565b0391887f0000000000000000000000000000000000000000000000000000000000000000165af1908115610b6a578b91610b4d575b5015610b1957610a1861098d838d8b611c68565b9083875192610a2684611b81565b60128452714461696c792077696e6e657220626f6e757360701b838501521691828c52600c91828152888d2054600a93848201809211610b05578e8b91878252845220556006805490848201809211610b0557556007805490848201809211610b0557918996959493918f93558a519384528a81850152815191828c860152835b838110610adf575050509082600080516020611e288339815191529392606092838284010152601f80199101168101030190a2610998565b909294959697508180945081840101516060828801015201918996959493918f93610aa7565b50634e487b7160e01b8e5260118d5260248efd5b8860649187519162461bcd60e51b8352820152600f60248201526e151c985b9cd9995c8819985a5b1959608a1b6044820152fd5b610b649150823d84116106385761062a8183611b9c565b8c610a04565b87513d8d823e3d90fd5b50503461029e57610b8436611a0f565b92908152600a602052818120908154841015610bbd5750602092610ba791611a25565b905491519160018060a01b039160031b1c168152f35b80fd5b50503461029e578160031936011261029e5760015490516001600160a01b039091168152602090f35b50903461026257602036600319011261026257610c20600080516020611de883398151915292610c17611dbb565b35600354611b2c565b80600355610c2c611d1d565b82519182526020820152a180f35b50503461029e578160031936011261029e5760209051670de0b6b3a76400008152f35b50503461029e578160031936011261029e576020905160028152f35b50346102625760203660031901126102625760209282906001600160a01b03610ca06119f9565b168152600c85522001549051908152f35b50503461029e578160031936011261029e57602090610cce611d1d565b9051908152f35b50503461029e578160031936011261029e576020905160038152f35b503461026257826003193601126102625760209250549051908152f35b8334610bbd5780600319360112610bbd57610d27611dbb565b600180546001600160a01b0319811690915581906001600160a01b0316600080516020611e088339815191528280a380f35b50503461029e578160031936011261029e576020906006549051908152f35b50503461029e578160031936011261029e5760209060ff60015460a01c1690519015158152f35b5034610262576020366003190112610262578161010093610dbe6119f9565b8160e08451610dcc81611b4f565b82815282602082015282868201528260608201528260808201528260a08201528260c0820152015260018060a01b03168152600c60205220825191610e1083611b4f565b8154938484526001830154916020850192835260028401549180860192835260038501549160608701928352850154926080870193845260058601549460a0880195865260e060ff600760068a01549960c08c019a8b5201541698019715158852825198895251602089015251908701525160608601525160808501525160a08401525160c083015251151560e0820152f35b5091903461029e57610eb436611a53565b94909260018060a01b03600190610ed081600154163314611bbf565b610edb881515611c06565b610ee3611d1d565b93610eee8986611c48565b885b8a8110610f3a5750887f266eab4e9078d52ec3f1266d5b3619a11040584ef2997fdea8afa3c03fa559778989610f2c8a8f8b5194859485611cbf565b0390a1806007554260055580f35b80828c86610f4e61098d8a968f8590611c68565b16610f5c575b505001610ef0565b82610f6e9293945061098d918d611c68565b87519063a9059cbb60e01b8252818d8180610f8f60209788968c8401611ca4565b03918a7f0000000000000000000000000000000000000000000000000000000000000000165af190811561102f578c91611012575b5015610fd457508490828c610f54565b8360649188519162461bcd60e51b83528201526019602482015278159351881c1c9a5e99481d1c985b9cd9995c8819985a5b1959603a1b6044820152fd5b6110299150823d84116106385761062a8183611b9c565b38610fc4565b88513d8e823e3d90fd5b50503461029e5761104936611a0f565b929081526008602052818120908154841015610bbd5750602092610ba791611a25565b50503461029e578160031936011261029e5760209051678ac7230489e800008152f35b50503461029e57602036600319011261029e576020916001600160a01b03908290826110b96119f9565b168152600e85522054169051908152f35b50503461029e578060031936011261029e576110e46119f9565b9060243591821515808403611166577f7c6a5677e7a854a53d06c412e00ebe65535f5343566ca7939ac7c7f6b0b00c169261115e602093611123611dbb565b6001600160a01b0316808852600d8552828820805497151560ff1660ff199889168117909155600c8652838920600701805490981617909655565b51908152a280f35b8480fd5b5091903461029e578160031936011261029e578254916201518083018093116107d7576020838351904210158152f35b828434610bbd576020366003190112610bbd576001600160a01b03806111be6119f9565b168252600c602052826006818420015492600e60205220541682519182526020820152f35b50503461029e578160031936011261029e57517f00000000000000000000000000000000000000000000000000000000000000006001600160a01b03168152602090f35b508234610bbd576020928360031936011261029e576112446119f9565b936002808454146119ac5780845561125a611d9a565b338452600d825261127160ff848620541615611ae8565b338452600c9081835260079561128f60ff8887892001541615611ae8565b338652828452600392838688200154610e1081018091116119995742106119605785516370a0823160e01b8152338382015260249890916001600160a01b039187848c817f000000000000000000000000000000000000000000000000000000000000000087165afa938415611956578a94611923575b5068056bc75e2d6310000084106118e65788999a9b338c52828952600a8c60019c8d9120015410156118a85783168015158061189e575b8061188a575b6116b5575b50338b5281885289898c2001548b8b82018092116116a35785918b8892338152868d5220908d820155428a820155015588519361138485611b81565b6011948581527011185a5b1e481c1b185e481c995dd85c99607a1b8a820152338d52838a528a8d20548d8d8201809211611692578c90338152868d5220556006548c8101809111611681576006558c83548d810180911161164057928d9285948e96558551938452858d850152805180968501528c835b878110611663575050508160608685010152600080516020611e288339815191529485601f199460608187601f339601168101030190a2338252858c5260058d8320015462015180810180911161165157421015611532575b505087548d525050600888525050868920805490600160401b8210156115205790611483918a82018155611a25565b8192915490871b9133831b921b191617905582549081895260098652868920549288840180941161151157505087600080516020611de8833981519152979899505260098452848820555483518781527f480a6daea81f2af589e1959da1f1719512392ec551e8966266ee820f1c1f72ea843392a35490611502611d1d565b908351928352820152a1815580f35b634e487b7160e01b8a52528888fd5b634e487b7160e01b8b52604185528b8bfd5b678ac7230489e800009004928a8402938085048c1490151715611640578392918c918e969561157b575b50505050505050338a528652426005888b2001558a8080808c81611454565b86949294519061158a82611b81565b6012825271159351881a1bdb191a5b99c81c995dd85c9960721b868301523383528886526115bb8489852054611b2c565b338452898752888420556115d184600654611b2c565b6006556115df848254611b2c565b90558680519586948552840152805180978401528d825b8881106116225750505091606092838784010152601f339601168101030190a2878c80808a8e8261155c565b828193955082945001015160608287010152018f90918d85936115f6565b634e487b7160e01b82528789528f82fd5b50634e487b7160e01b82528789528f82fd5b90829394508181930101516060828701015201908f92918d906113fb565b634e487b7160e01b8e528688528e8efd5b634e487b7160e01b81528789528f90fd5b634e487b7160e01b8152601187528d90fd5b808c528289528a8a8d2001541561185557338c52600e8952898c2080546001600160a01b03191682179055808c52600f8952898c20548b810190811061184357818d52600f8a528a8d205582895260068a8d2001548c8c8201809211611831578b818460069352868d522001558b8a5161172e81611b81565b600f81526e149959995c9c985b081c995dd85c99608a1b8b820152828252848b528b82205489810180911161181f57838352858c528c83205560065489810180911161181f57600655835489810180911161181f5783928c928e928755828051948d8652850152805180938501528d825b8481106117fd575050508282606092838395600080516020611e2883398151915297010152601f80199101168101030190a233907f5f1ca2fcc108b751843a763e60d2201f593516109d7dbb1b700468f2d4190bb78d80a38c611348565b8281939596975082945001015160608287010152018f90918d8695949361179f565b634e487b7160e01b8352601189528f83fd5b634e487b7160e01b8152601188528e90fd5b634e487b7160e01b8d52601187528d8dfd5b895162461bcd60e51b81528087018a90526010818f01526f24b73b30b634b2103932b332b93932b960811b6044820152606490fd5b50338c52600e8952838a8d20541615611343565b503381141561133d565b895162461bcd60e51b81528087018a90526019818f01527813585e0819185a5b1e48195b9d1c9a595cc81c995858da1959603a1b6044820152606490fd5b885162461bcd60e51b81528086018990526018818d015277496e73756666696369656e7420564d462062616c616e636560401b6044820152606490fd5b9093508781813d831161194f575b61193b8183611b9c565b8101031261194b5751928c611306565b8980fd5b503d611931565b89513d8c823e3d90fd5b855162461bcd60e51b8152808301869052601360248201527214985d19481b1a5b5a5d08195e18d959591959606a1b6044820152606490fd5b634e487b7160e01b885260118352602488fd5b8251633ee5aeb560e01b81528590fd5b50503461029e578160031936011261029e576020905160088152f35b346119f45760003660031901126119f4576020604051600a8152f35b600080fd5b600435906001600160a01b03821682036119f457565b60409060031901126119f4576004359060243590565b8054821015611a3d5760005260206000200190600090565b634e487b7160e01b600052603260045260246000fd5b60406003198201126119f457600435916001600160401b0391602435908382116119f457806023830112156119f45781600401359384116119f45760248460051b830101116119f4576024019190565b602090602060408183019282815285518094520193019160005b828110611acb575050505090565b83516001600160a01b031685529381019392810192600101611abd565b15611aef57565b60405162461bcd60e51b8152602060048201526015602482015274141b185e595c881a5cc8189b1858dadb1a5cdd1959605a1b6044820152606490fd5b91908201809211611b3957565b634e487b7160e01b600052601160045260246000fd5b61010081019081106001600160401b03821117611b6b57604052565b634e487b7160e01b600052604160045260246000fd5b604081019081106001600160401b03821117611b6b57604052565b601f909101601f19168101906001600160401b03821190821017611b6b57604052565b15611bc657565b60405162461bcd60e51b81526020600482015260186024820152774f6e6c79206f776e65722063616e2063616c6c207468697360401b6044820152606490fd5b15611c0d57565b60405162461bcd60e51b8152602060048201526013602482015272139bc81dda5b9b995c9cc81c1c9bdd9a591959606a1b6044820152606490fd5b8115611c52570490565b634e487b7160e01b600052601260045260246000fd5b9190811015611a3d5760051b0190565b356001600160a01b03811681036119f45790565b908160209103126119f4575180151581036119f45790565b6001600160a01b039091168152602081019190915260400190565b908152606060208083018290529082018490529094939260808601916000805b838210611cf3575050505060409150930152565b90919293853560018060a01b03811680910361026257815294830194830193929160010190611cdf565b600754670de0b6b3a764000090818102918183041490151715611b395790565b6001600160401b038111611b6b5760051b60200190565b90611d5e82611d3d565b611d6b6040519182611b9c565b8281528092611d7c601f1991611d3d565b0190602036910137565b8051821015611a3d5760209160051b010190565b60ff60015460a01c16611da957565b60405163d93c066560e01b8152600490fd5b6001546001600160a01b03163303611dcf57565b60405163118cdaa760e01b8152336004820152602490fdfe404449b42e86f8716dd5ac141731fb164fe1f76d7e4039fdd16c7b3b48f96a4e8be0079c531659141344cd1fd0a4f28419497f9722a3daafe3b4186f6b6457e0195188e7e2a9c946c91317946030490c3ba48a5b7f867101928826fa4cc609c5a2646970667358221220443ae3fdf2f9a461625bad0bdf80726292a395d8362c16f28142b25e5483afbf64736f6c63430008180033",
  "linkReferences": {},
  "deployedLinkReferences": {}
}