{"contracts/PizzaPartyFeeAbstraction.sol":{"PizzaPartyFeeAbstraction":{"abi":[{"inputs":[{"internalType":"address","name":"_paymaster","type":"address"},{"internalType":"uint256","name":"_dailyGasLimit","type":"uint256"}],"stateMutability":"nonpayable","type":"constructor"},{"inputs":[{"internalType":"address","name":"owner","type":"address"}],"name":"OwnableInvalidOwner","type":"error"},{"inputs":[{"internalType":"address","name":"account","type":"address"}],"name":"OwnableUnauthorizedAccount","type":"error"},{"inputs":[],"name":"ReentrancyGuardReentrantCall","type":"error"},{"anonymous":false,"inputs":[{"indexed":false,"internalType":"uint256","name":"oldLimit","type":"uint256"},{"indexed":false,"internalType":"uint256","name":"newLimit","type":"uint256"}],"name":"DailyGasLimitUpdated","type":"event"},{"anonymous":false,"inputs":[{"indexed":true,"internalType":"address","name":"user","type":"address"},{"indexed":false,"internalType":"uint256","name":"gasCost","type":"uint256"},{"indexed":true,"internalType":"bytes32","name":"txHash","type":"bytes32"}],"name":"GasSponsored","type":"event"},{"anonymous":false,"inputs":[{"indexed":true,"internalType":"address","name":"previousOwner","type":"address"},{"indexed":true,"internalType":"address","name":"newOwner","type":"address"}],"name":"OwnershipTransferred","type":"event"},{"anonymous":false,"inputs":[{"indexed":true,"internalType":"address","name":"oldPaymaster","type":"address"},{"indexed":true,"internalType":"address","name":"newPaymaster","type":"address"}],"name":"PaymasterUpdated","type":"event"},{"anonymous":false,"inputs":[{"indexed":true,"internalType":"address","name":"user","type":"address"},{"indexed":false,"internalType":"uint256","name":"oldLimit","type":"uint256"},{"indexed":false,"internalType":"uint256","name":"newLimit","type":"uint256"}],"name":"UserGasLimitUpdated","type":"event"},{"inputs":[],"name":"GAS_LIMIT_PER_ENTRY","outputs":[{"internalType":"uint256","name":"","type":"uint256"}],"stateMutability":"view","type":"function"},{"inputs":[],"name":"MAX_DAILY_ENTRIES","outputs":[{"internalType":"uint256","name":"","type":"uint256"}],"stateMutability":"view","type":"function"},{"inputs":[],"name":"dailyGasLimit","outputs":[{"internalType":"uint256","name":"","type":"uint256"}],"stateMutability":"view","type":"function"},{"inputs":[{"internalType":"uint256","name":"","type":"uint256"}],"name":"dailyGasUsed","outputs":[{"internalType":"uint256","name":"","type":"uint256"}],"stateMutability":"view","type":"function"},{"inputs":[],"name":"emergencyPause","outputs":[],"stateMutability":"nonpayable","type":"function"},{"inputs":[],"name":"emergencyUnpause","outputs":[],"stateMutability":"nonpayable","type":"function"},{"inputs":[{"internalType":"uint256","name":"date","type":"uint256"}],"name":"getDailyGasUsage","outputs":[{"internalType":"uint256","name":"","type":"uint256"}],"stateMutability":"view","type":"function"},{"inputs":[{"internalType":"address","name":"user","type":"address"}],"name":"getUserRemainingGasAllowance","outputs":[{"internalType":"uint256","name":"","type":"uint256"}],"stateMutability":"view","type":"function"},{"inputs":[],"name":"owner","outputs":[{"internalType":"address","name":"","type":"address"}],"stateMutability":"view","type":"function"},{"inputs":[],"name":"paymaster","outputs":[{"internalType":"address","name":"","type":"address"}],"stateMutability":"view","type":"function"},{"inputs":[],"name":"renounceOwnership","outputs":[],"stateMutability":"nonpayable","type":"function"},{"inputs":[{"internalType":"address","name":"user","type":"address"}],"name":"resetUserDailyGasUsage","outputs":[],"stateMutability":"nonpayable","type":"function"},{"inputs":[{"internalType":"address","name":"user","type":"address"},{"internalType":"address","name":"gameContract","type":"address"},{"internalType":"address","name":"referrer","type":"address"}],"name":"sponsorGameEntry","outputs":[],"stateMutability":"nonpayable","type":"function"},{"inputs":[{"internalType":"address","name":"newOwner","type":"address"}],"name":"transferOwnership","outputs":[],"stateMutability":"nonpayable","type":"function"},{"inputs":[{"internalType":"uint256","name":"newLimit","type":"uint256"}],"name":"updateDailyGasLimit","outputs":[],"stateMutability":"nonpayable","type":"function"},{"inputs":[{"internalType":"address","name":"newPaymaster","type":"address"}],"name":"updatePaymaster","outputs":[],"stateMutability":"nonpayable","type":"function"},{"inputs":[{"internalType":"uint256","name":"newLimit","type":"uint256"}],"name":"updateUserDailyGasLimit","outputs":[],"stateMutability":"nonpayable","type":"function"},{"inputs":[],"name":"userDailyGasLimit","outputs":[{"internalType":"uint256","name":"","type":"uint256"}],"stateMutability":"view","type":"function"},{"inputs":[{"internalType":"address","name":"","type":"address"}],"name":"userDailyGasUsed","outputs":[{"internalType":"uint256","name":"","type":"uint256"}],"stateMutability":"view","type":"function"},{"inputs":[],"name":"withdrawETH","outputs":[],"stateMutability":"nonpayable","type":"function"}],"evm":{"bytecode":{"linkReferences":{},"object":"6080346100d957601f610b0638819003918201601f19168301916001600160401b038311848410176100de5780849260409485528339810103126100d95780516001600160a01b0391828216918290036100d957602001519033156100c05760005460018060a01b0319903382821617600055604051943391167f8be0079c531659141344cd1fd0a4f28419497f9722a3daafe3b4186f6b6457e0600080a36001805560025416176002556003556206ddd0600455610a1190816100f58239f35b604051631e4fbdf760e01b815260006004820152602490fd5b600080fd5b634e487b7160e01b600052604160045260246000fdfe6080604081815260048036101561001557600080fd5b600092833560e01c90816316e4cbf9146108de575080631c378f9d146106455780632e8f5138146105d6578063322c8dd5146105b8578063425b8d7c1461059b57838163430f403d14610539575080634a4e3bd5146104fe5780634f698e121461051a57806351858e27146104fe5780636660e73c1461049f578063715018a6146104545780637b3cebec1461042d5780638da5cb5b14610405578063bbc3ced7146103e8578063daf6a3f614610336578063e086e5ec14610219578063f2fde38b146101a557838163f88c4f451461016957508063fa1730f01461012d5763fc3944001461010357600080fd5b346101295760203660031901126101295760209282913581526006845220549051908152f35b8280fd5b5050346101655760203660031901126101655760209181906001600160a01b03610155610903565b1681526005845220549051908152f35b5080fd5b8084346101a25760203660031901126101a257610184610903565b61018c61098f565b6001600160a01b03168252600560205281205580f35b50fd5b5034610129576020366003190112610129576101bf610903565b906101c861098f565b6001600160a01b0391821692831561020357505082546001600160a01b0319811683178455166000805160206109bc8339815191528380a380f35b51631e4fbdf760e01b8152908101849052602490fd5b50903461012957826003193601126101295761023361098f565b4780156102fe57835484918291829182916001600160a01b03165af13d156102f9576001600160401b033d8181116102e657835191601f8201601f19908116603f01168301908111838210176102d357845281528460203d92013e5b15610298578280f35b906020606492519162461bcd60e51b83528201526015602482015274115512081dda5d1a191c985dd85b0819985a5b1959605a1b6044820152fd5b634e487b7160e01b875260418652602487fd5b634e487b7160e01b865260418552602486fd5b61028f565b815162461bcd60e51b815260208185015260126024820152714e6f2045544820746f20776974686472617760701b6044820152606490fd5b503461012957602036600319011261012957610350610903565b9061035961098f565b6001600160a01b039182169283156103a9575050600280546001600160a01b031981168417909155167fef8b2748f41e05500550a7e08fe781629c344ef779e7c0bf1eaa80fd2b8738c98380a380f35b906020606492519162461bcd60e51b83528201526019602482015278496e76616c6964207061796d6173746572206164647265737360381b6044820152fd5b505034610165578160031936011261016557602090516103e88152f35b505034610165578160031936011261016557905490516001600160a01b039091168152602090f35b50346101295760203660031901126101295760209282913581526006845220549051908152f35b833461049c578060031936011261049c5761046d61098f565b80546001600160a01b03198116825581906001600160a01b03166000805160206109bc8339815191528280a380f35b80fd5b509034610129576020366003190112610129577f718e1debbe390c12c79cd2be0ff2c4db6d4abb369948de8cb3624cb7e24f9b1a91356104dd61098f565b6104e881151561094f565b600354908060035582519182526020820152a180f35b833461049c578060031936011261049c5761051761098f565b80f35b5050346101655781600319360112610165576020906003549051908152f35b9290503461059757602036600319011261059757817ff1bb8966338560af7568a428b6ce0480b952368df4f065b9e3fab7eea182b8ad923561057961098f565b61058481151561094f565b808254925582519182526020820152a280f35b5050fd5b503461012957826003193601126101295760209250549051908152f35b50503461016557816003193601126101655760209051620249f08152f35b50913461049c57602036600319011261049c576001600160a01b036105f9610903565b16815260056020528181205483549081811061061d57505060209250905b51908152f35b81039190821161063257506020925090610617565b634e487b7160e01b815260118452602490fd5b5091903461016557606036600319011261016557610661610903565b6024936001600160a01b03853581811693908481036108da5760443590838216938483036108d65761069161098f565b6002600154146108c6576002600155831695861561088d5715610853576201518042049384895260209560068752888a205495620249f0968781018091116107c6576003541061081657888b5260058852898b20548781018091116107c6578254106107d8578a5260068752888a208054908782018092116107c65755878a5260058752888a208054918783018093116107b457509a61076c92917f2fb7953a2761d462ccf3d6f485cebb8750f76f52c32092568d44d7bd531461d2999a9b9c558a5191630d13353960e11b8984015281830152815261091e565b8751918583019360018060601b03199283809260601b16865260601b16603484015260601b166048820152603c81526107a48161091e565b5190209451908152a36001805580f35b634e487b7160e01b8c52601190528b8bfd5b634e487b7160e01b8c52601183528c8cfd5b895162461bcd60e51b81528083018990526019818e015278155cd95c8819185a5b1e481b1a5b5a5d08195e18d959591959603a1b6044820152606490fd5b895162461bcd60e51b81528083018990526018818e01527711185a5b1e4819d85cc81b1a5b5a5d08195e18d95959195960421b6044820152606490fd5b865162461bcd60e51b81526020818701526015818b015274125b9d985b1a590819d85b594818dbdb9d1c9858dd605a1b6044820152606490fd5b875162461bcd60e51b81526020818801526014818c015273496e76616c69642075736572206164647265737360601b6044820152606490fd5b8751633ee5aeb560e01b81528690fd5b8880fd5b8680fd5b8490346101655781600319360112610165576002546001600160a01b03168152602090f35b600435906001600160a01b038216820361091957565b600080fd5b606081019081106001600160401b0382111761093957604052565b634e487b7160e01b600052604160045260246000fd5b1561095657565b60405162461bcd60e51b8152602060048201526011602482015270125b9d985b1a590819d85cc81b1a5b5a5d607a1b6044820152606490fd5b6000546001600160a01b031633036109a357565b60405163118cdaa760e01b8152336004820152602490fdfe8be0079c531659141344cd1fd0a4f28419497f9722a3daafe3b4186f6b6457e0a2646970667358221220575c641c9ddfa74cd3ef87eea493913466ed217c0bc06d85f20e0631d450ba3764736f6c63430008180033","opcodes":"PUSH1 0x80 CALLVALUE PUSH2 0xD9 JUMPI PUSH1 0x1F PUSH2 0xB06 CODESIZE DUP2 SWAP1 SUB SWAP2 DUP3 ADD PUSH1 0x1F NOT AND DUP4 ADD SWAP2 PUSH1 0x1 PUSH1 0x1 PUSH1 0x40 SHL SUB DUP4 GT DUP5 DUP5 LT OR PUSH2 0xDE JUMPI DUP1 DUP5 SWAP3 PUSH1 0x40 SWAP5 DUP6 MSTORE DUP4 CODECOPY DUP2 ADD SUB SLT PUSH2 0xD9 JUMPI DUP1 MLOAD PUSH1 0x1 PUSH1 0x1 PUSH1 0xA0 SHL SUB SWAP2 DUP3 DUP3 AND SWAP2 DUP3 SWAP1 SUB PUSH2 0xD9 JUMPI PUSH1 0x20 ADD MLOAD SWAP1 CALLER ISZERO PUSH2 0xC0 JUMPI PUSH1 0x0 SLOAD PUSH1 0x1 DUP1 PUSH1 0xA0 SHL SUB NOT SWAP1 CALLER DUP3 DUP3 AND OR PUSH1 0x0 SSTORE PUSH1 0x40 MLOAD SWAP5 CALLER SWAP2 AND PUSH32 0x8BE0079C531659141344CD1FD0A4F28419497F9722A3DAAFE3B4186F6B6457E0 PUSH1 0x0 DUP1 LOG3 PUSH1 0x1 DUP1 SSTORE PUSH1 0x2 SLOAD AND OR PUSH1 0x2 SSTORE PUSH1 0x3 SSTORE PUSH3 0x6DDD0 PUSH1 0x4 SSTORE PUSH2 0xA11 SWAP1 DUP2 PUSH2 0xF5 DUP3 CODECOPY RETURN JUMPDEST PUSH1 0x40 MLOAD PUSH4 0x1E4FBDF7 PUSH1 0xE0 SHL DUP2 MSTORE PUSH1 0x0 PUSH1 0x4 DUP3 ADD MSTORE PUSH1 0x24 SWAP1 REVERT JUMPDEST PUSH1 0x0 DUP1 REVERT JUMPDEST PUSH4 0x4E487B71 PUSH1 0xE0 SHL PUSH1 0x0 MSTORE PUSH1 0x41 PUSH1 0x4 MSTORE PUSH1 0x24 PUSH1 0x0 REVERT INVALID PUSH1 0x80 PUSH1 0x40 DUP2 DUP2 MSTORE PUSH1 0x4 DUP1 CALLDATASIZE LT ISZERO PUSH2 0x15 JUMPI PUSH1 0x0 DUP1 REVERT JUMPDEST PUSH1 0x0 SWAP3 DUP4 CALLDATALOAD PUSH1 0xE0 SHR SWAP1 DUP2 PUSH4 0x16E4CBF9 EQ PUSH2 0x8DE JUMPI POP DUP1 PUSH4 0x1C378F9D EQ PUSH2 0x645 JUMPI DUP1 PUSH4 0x2E8F5138 EQ PUSH2 0x5D6 JUMPI DUP1 PUSH4 0x322C8DD5 EQ PUSH2 0x5B8 JUMPI DUP1 PUSH4 0x425B8D7C EQ PUSH2 0x59B JUMPI DUP4 DUP2 PUSH4 0x430F403D EQ PUSH2 0x539 JUMPI POP DUP1 PUSH4 0x4A4E3BD5 EQ PUSH2 0x4FE JUMPI DUP1 PUSH4 0x4F698E12 EQ PUSH2 0x51A JUMPI DUP1 PUSH4 0x51858E27 EQ PUSH2 0x4FE JUMPI DUP1 PUSH4 0x6660E73C EQ PUSH2 0x49F JUMPI DUP1 PUSH4 0x715018A6 EQ PUSH2 0x454 JUMPI DUP1 PUSH4 0x7B3CEBEC EQ PUSH2 0x42D JUMPI DUP1 PUSH4 0x8DA5CB5B EQ PUSH2 0x405 JUMPI DUP1 PUSH4 0xBBC3CED7 EQ PUSH2 0x3E8 JUMPI DUP1 PUSH4 0xDAF6A3F6 EQ PUSH2 0x336 JUMPI DUP1 PUSH4 0xE086E5EC EQ PUSH2 0x219 JUMPI DUP1 PUSH4 0xF2FDE38B EQ PUSH2 0x1A5 JUMPI DUP4 DUP2 PUSH4 0xF88C4F45 EQ PUSH2 0x169 JUMPI POP DUP1 PUSH4 0xFA1730F0 EQ PUSH2 0x12D JUMPI PUSH4 0xFC394400 EQ PUSH2 0x103 JUMPI PUSH1 0x0 DUP1 REVERT JUMPDEST CALLVALUE PUSH2 0x129 JUMPI PUSH1 0x20 CALLDATASIZE PUSH1 0x3 NOT ADD SLT PUSH2 0x129 JUMPI PUSH1 0x20 SWAP3 DUP3 SWAP2 CALLDATALOAD DUP2 MSTORE PUSH1 0x6 DUP5 MSTORE KECCAK256 SLOAD SWAP1 MLOAD SWAP1 DUP2 MSTORE RETURN JUMPDEST DUP3 DUP1 REVERT JUMPDEST POP POP CALLVALUE PUSH2 0x165 JUMPI PUSH1 0x20 CALLDATASIZE PUSH1 0x3 NOT ADD SLT PUSH2 0x165 JUMPI PUSH1 0x20 SWAP2 DUP2 SWAP1 PUSH1 0x1 PUSH1 0x1 PUSH1 0xA0 SHL SUB PUSH2 0x155 PUSH2 0x903 JUMP JUMPDEST AND DUP2 MSTORE PUSH1 0x5 DUP5 MSTORE KECCAK256 SLOAD SWAP1 MLOAD SWAP1 DUP2 MSTORE RETURN JUMPDEST POP DUP1 REVERT JUMPDEST DUP1 DUP5 CALLVALUE PUSH2 0x1A2 JUMPI PUSH1 0x20 CALLDATASIZE PUSH1 0x3 NOT ADD SLT PUSH2 0x1A2 JUMPI PUSH2 0x184 PUSH2 0x903 JUMP JUMPDEST PUSH2 0x18C PUSH2 0x98F JUMP JUMPDEST PUSH1 0x1 PUSH1 0x1 PUSH1 0xA0 SHL SUB AND DUP3 MSTORE PUSH1 0x5 PUSH1 0x20 MSTORE DUP2 KECCAK256 SSTORE DUP1 RETURN JUMPDEST POP REVERT JUMPDEST POP CALLVALUE PUSH2 0x129 JUMPI PUSH1 0x20 CALLDATASIZE PUSH1 0x3 NOT ADD SLT PUSH2 0x129 JUMPI PUSH2 0x1BF PUSH2 0x903 JUMP JUMPDEST SWAP1 PUSH2 0x1C8 PUSH2 0x98F JUMP JUMPDEST PUSH1 0x1 PUSH1 0x1 PUSH1 0xA0 SHL SUB SWAP2 DUP3 AND SWAP3 DUP4 ISZERO PUSH2 0x203 JUMPI POP POP DUP3 SLOAD PUSH1 0x1 PUSH1 0x1 PUSH1 0xA0 SHL SUB NOT DUP2 AND DUP4 OR DUP5 SSTORE AND PUSH1 0x0 DUP1 MLOAD PUSH1 0x20 PUSH2 0x9BC DUP4 CODECOPY DUP2 MLOAD SWAP2 MSTORE DUP4 DUP1 LOG3 DUP1 RETURN JUMPDEST MLOAD PUSH4 0x1E4FBDF7 PUSH1 0xE0 SHL DUP2 MSTORE SWAP1 DUP2 ADD DUP5 SWAP1 MSTORE PUSH1 0x24 SWAP1 REVERT JUMPDEST POP SWAP1 CALLVALUE PUSH2 0x129 JUMPI DUP3 PUSH1 0x3 NOT CALLDATASIZE ADD SLT PUSH2 0x129 JUMPI PUSH2 0x233 PUSH2 0x98F JUMP JUMPDEST SELFBALANCE DUP1 ISZERO PUSH2 0x2FE JUMPI DUP4 SLOAD DUP5 SWAP2 DUP3 SWAP2 DUP3 SWAP2 DUP3 SWAP2 PUSH1 0x1 PUSH1 0x1 PUSH1 0xA0 SHL SUB AND GAS CALL RETURNDATASIZE ISZERO PUSH2 0x2F9 JUMPI PUSH1 0x1 PUSH1 0x1 PUSH1 0x40 SHL SUB RETURNDATASIZE DUP2 DUP2 GT PUSH2 0x2E6 JUMPI DUP4 MLOAD SWAP2 PUSH1 0x1F DUP3 ADD PUSH1 0x1F NOT SWAP1 DUP2 AND PUSH1 0x3F ADD AND DUP4 ADD SWAP1 DUP2 GT DUP4 DUP3 LT OR PUSH2 0x2D3 JUMPI DUP5 MSTORE DUP2 MSTORE DUP5 PUSH1 0x20 RETURNDATASIZE SWAP3 ADD RETURNDATACOPY JUMPDEST ISZERO PUSH2 0x298 JUMPI DUP3 DUP1 RETURN JUMPDEST SWAP1 PUSH1 0x20 PUSH1 0x64 SWAP3 MLOAD SWAP2 PUSH3 0x461BCD PUSH1 0xE5 SHL DUP4 MSTORE DUP3 ADD MSTORE PUSH1 0x15 PUSH1 0x24 DUP3 ADD MSTORE PUSH21 0x115512081DDA5D1A191C985DD85B0819985A5B1959 PUSH1 0x5A SHL PUSH1 0x44 DUP3 ADD MSTORE REVERT JUMPDEST PUSH4 0x4E487B71 PUSH1 0xE0 SHL DUP8 MSTORE PUSH1 0x41 DUP7 MSTORE PUSH1 0x24 DUP8 REVERT JUMPDEST PUSH4 0x4E487B71 PUSH1 0xE0 SHL DUP7 MSTORE PUSH1 0x41 DUP6 MSTORE PUSH1 0x24 DUP7 REVERT JUMPDEST PUSH2 0x28F JUMP JUMPDEST DUP2 MLOAD PUSH3 0x461BCD PUSH1 0xE5 SHL DUP2 MSTORE PUSH1 0x20 DUP2 DUP6 ADD MSTORE PUSH1 0x12 PUSH1 0x24 DUP3 ADD MSTORE PUSH18 0x4E6F2045544820746F207769746864726177 PUSH1 0x70 SHL PUSH1 0x44 DUP3 ADD MSTORE PUSH1 0x64 SWAP1 REVERT JUMPDEST POP CALLVALUE PUSH2 0x129 JUMPI PUSH1 0x20 CALLDATASIZE PUSH1 0x3 NOT ADD SLT PUSH2 0x129 JUMPI PUSH2 0x350 PUSH2 0x903 JUMP JUMPDEST SWAP1 PUSH2 0x359 PUSH2 0x98F JUMP JUMPDEST PUSH1 0x1 PUSH1 0x1 PUSH1 0xA0 SHL SUB SWAP2 DUP3 AND SWAP3 DUP4 ISZERO PUSH2 0x3A9 JUMPI POP POP PUSH1 0x2 DUP1 SLOAD PUSH1 0x1 PUSH1 0x1 PUSH1 0xA0 SHL SUB NOT DUP2 AND DUP5 OR SWAP1 SWAP2 SSTORE AND PUSH32 0xEF8B2748F41E05500550A7E08FE781629C344EF779E7C0BF1EAA80FD2B8738C9 DUP4 DUP1 LOG3 DUP1 RETURN JUMPDEST SWAP1 PUSH1 0x20 PUSH1 0x64 SWAP3 MLOAD SWAP2 PUSH3 0x461BCD PUSH1 0xE5 SHL DUP4 MSTORE DUP3 ADD MSTORE PUSH1 0x19 PUSH1 0x24 DUP3 ADD MSTORE PUSH25 0x496E76616C6964207061796D61737465722061646472657373 PUSH1 0x38 SHL PUSH1 0x44 DUP3 ADD MSTORE REVERT JUMPDEST POP POP CALLVALUE PUSH2 0x165 JUMPI DUP2 PUSH1 0x3 NOT CALLDATASIZE ADD SLT PUSH2 0x165 JUMPI PUSH1 0x20 SWAP1 MLOAD PUSH2 0x3E8 DUP2 MSTORE RETURN JUMPDEST POP POP CALLVALUE PUSH2 0x165 JUMPI DUP2 PUSH1 0x3 NOT CALLDATASIZE ADD SLT PUSH2 0x165 JUMPI SWAP1 SLOAD SWAP1 MLOAD PUSH1 0x1 PUSH1 0x1 PUSH1 0xA0 SHL SUB SWAP1 SWAP2 AND DUP2 MSTORE PUSH1 0x20 SWAP1 RETURN JUMPDEST POP CALLVALUE PUSH2 0x129 JUMPI PUSH1 0x20 CALLDATASIZE PUSH1 0x3 NOT ADD SLT PUSH2 0x129 JUMPI PUSH1 0x20 SWAP3 DUP3 SWAP2 CALLDATALOAD DUP2 MSTORE PUSH1 0x6 DUP5 MSTORE KECCAK256 SLOAD SWAP1 MLOAD SWAP1 DUP2 MSTORE RETURN JUMPDEST DUP4 CALLVALUE PUSH2 0x49C JUMPI DUP1 PUSH1 0x3 NOT CALLDATASIZE ADD SLT PUSH2 0x49C JUMPI PUSH2 0x46D PUSH2 0x98F JUMP JUMPDEST DUP1 SLOAD PUSH1 0x1 PUSH1 0x1 PUSH1 0xA0 SHL SUB NOT DUP2 AND DUP3 SSTORE DUP2 SWAP1 PUSH1 0x1 PUSH1 0x1 PUSH1 0xA0 SHL SUB AND PUSH1 0x0 DUP1 MLOAD PUSH1 0x20 PUSH2 0x9BC DUP4 CODECOPY DUP2 MLOAD SWAP2 MSTORE DUP3 DUP1 LOG3 DUP1 RETURN JUMPDEST DUP1 REVERT JUMPDEST POP SWAP1 CALLVALUE PUSH2 0x129 JUMPI PUSH1 0x20 CALLDATASIZE PUSH1 0x3 NOT ADD SLT PUSH2 0x129 JUMPI PUSH32 0x718E1DEBBE390C12C79CD2BE0FF2C4DB6D4ABB369948DE8CB3624CB7E24F9B1A SWAP2 CALLDATALOAD PUSH2 0x4DD PUSH2 0x98F JUMP JUMPDEST PUSH2 0x4E8 DUP2 ISZERO ISZERO PUSH2 0x94F JUMP JUMPDEST PUSH1 0x3 SLOAD SWAP1 DUP1 PUSH1 0x3 SSTORE DUP3 MLOAD SWAP2 DUP3 MSTORE PUSH1 0x20 DUP3 ADD MSTORE LOG1 DUP1 RETURN JUMPDEST DUP4 CALLVALUE PUSH2 0x49C JUMPI DUP1 PUSH1 0x3 NOT CALLDATASIZE ADD SLT PUSH2 0x49C JUMPI PUSH2 0x517 PUSH2 0x98F JUMP JUMPDEST DUP1 RETURN JUMPDEST POP POP CALLVALUE PUSH2 0x165 JUMPI DUP2 PUSH1 0x3 NOT CALLDATASIZE ADD SLT PUSH2 0x165 JUMPI PUSH1 0x20 SWAP1 PUSH1 0x3 SLOAD SWAP1 MLOAD SWAP1 DUP2 MSTORE RETURN JUMPDEST SWAP3 SWAP1 POP CALLVALUE PUSH2 0x597 JUMPI PUSH1 0x20 CALLDATASIZE PUSH1 0x3 NOT ADD SLT PUSH2 0x597 JUMPI DUP2 PUSH32 0xF1BB8966338560AF7568A428B6CE0480B952368DF4F065B9E3FAB7EEA182B8AD SWAP3 CALLDATALOAD PUSH2 0x579 PUSH2 0x98F JUMP JUMPDEST PUSH2 0x584 DUP2 ISZERO ISZERO PUSH2 0x94F JUMP JUMPDEST DUP1 DUP3 SLOAD SWAP3 SSTORE DUP3 MLOAD SWAP2 DUP3 MSTORE PUSH1 0x20 DUP3 ADD MSTORE LOG2 DUP1 RETURN JUMPDEST POP POP REVERT JUMPDEST POP CALLVALUE PUSH2 0x129 JUMPI DUP3 PUSH1 0x3 NOT CALLDATASIZE ADD SLT PUSH2 0x129 JUMPI PUSH1 0x20 SWAP3 POP SLOAD SWAP1 MLOAD SWAP1 DUP2 MSTORE RETURN JUMPDEST POP POP CALLVALUE PUSH2 0x165 JUMPI DUP2 PUSH1 0x3 NOT CALLDATASIZE ADD SLT PUSH2 0x165 JUMPI PUSH1 0x20 SWAP1 MLOAD PUSH3 0x249F0 DUP2 MSTORE RETURN JUMPDEST POP SWAP2 CALLVALUE PUSH2 0x49C JUMPI PUSH1 0x20 CALLDATASIZE PUSH1 0x3 NOT ADD SLT PUSH2 0x49C JUMPI PUSH1 0x1 PUSH1 0x1 PUSH1 0xA0 SHL SUB PUSH2 0x5F9 PUSH2 0x903 JUMP JUMPDEST AND DUP2 MSTORE PUSH1 0x5 PUSH1 0x20 MSTORE DUP2 DUP2 KECCAK256 SLOAD DUP4 SLOAD SWAP1 DUP2 DUP2 LT PUSH2 0x61D JUMPI POP POP PUSH1 0x20 SWAP3 POP SWAP1 JUMPDEST MLOAD SWAP1 DUP2 MSTORE RETURN JUMPDEST DUP2 SUB SWAP2 SWAP1 DUP3 GT PUSH2 0x632 JUMPI POP PUSH1 0x20 SWAP3 POP SWAP1 PUSH2 0x617 JUMP JUMPDEST PUSH4 0x4E487B71 PUSH1 0xE0 SHL DUP2 MSTORE PUSH1 0x11 DUP5 MSTORE PUSH1 0x24 SWAP1 REVERT JUMPDEST POP SWAP2 SWAP1 CALLVALUE PUSH2 0x165 JUMPI PUSH1 0x60 CALLDATASIZE PUSH1 0x3 NOT ADD SLT PUSH2 0x165 JUMPI PUSH2 0x661 PUSH2 0x903 JUMP JUMPDEST PUSH1 0x24 SWAP4 PUSH1 0x1 PUSH1 0x1 PUSH1 0xA0 SHL SUB DUP6 CALLDATALOAD DUP2 DUP2 AND SWAP4 SWAP1 DUP5 DUP2 SUB PUSH2 0x8DA JUMPI PUSH1 0x44 CALLDATALOAD SWAP1 DUP4 DUP3 AND SWAP4 DUP5 DUP4 SUB PUSH2 0x8D6 JUMPI PUSH2 0x691 PUSH2 0x98F JUMP JUMPDEST PUSH1 0x2 PUSH1 0x1 SLOAD EQ PUSH2 0x8C6 JUMPI PUSH1 0x2 PUSH1 0x1 SSTORE DUP4 AND SWAP6 DUP7 ISZERO PUSH2 0x88D JUMPI ISZERO PUSH2 0x853 JUMPI PUSH3 0x15180 TIMESTAMP DIV SWAP4 DUP5 DUP10 MSTORE PUSH1 0x20 SWAP6 PUSH1 0x6 DUP8 MSTORE DUP9 DUP11 KECCAK256 SLOAD SWAP6 PUSH3 0x249F0 SWAP7 DUP8 DUP2 ADD DUP1 SWAP2 GT PUSH2 0x7C6 JUMPI PUSH1 0x3 SLOAD LT PUSH2 0x816 JUMPI DUP9 DUP12 MSTORE PUSH1 0x5 DUP9 MSTORE DUP10 DUP12 KECCAK256 SLOAD DUP8 DUP2 ADD DUP1 SWAP2 GT PUSH2 0x7C6 JUMPI DUP3 SLOAD LT PUSH2 0x7D8 JUMPI DUP11 MSTORE PUSH1 0x6 DUP8 MSTORE DUP9 DUP11 KECCAK256 DUP1 SLOAD SWAP1 DUP8 DUP3 ADD DUP1 SWAP3 GT PUSH2 0x7C6 JUMPI SSTORE DUP8 DUP11 MSTORE PUSH1 0x5 DUP8 MSTORE DUP9 DUP11 KECCAK256 DUP1 SLOAD SWAP2 DUP8 DUP4 ADD DUP1 SWAP4 GT PUSH2 0x7B4 JUMPI POP SWAP11 PUSH2 0x76C SWAP3 SWAP2 PUSH32 0x2FB7953A2761D462CCF3D6F485CEBB8750F76F52C32092568D44D7BD531461D2 SWAP10 SWAP11 SWAP12 SWAP13 SSTORE DUP11 MLOAD SWAP2 PUSH4 0xD133539 PUSH1 0xE1 SHL DUP10 DUP5 ADD MSTORE DUP2 DUP4 ADD MSTORE DUP2 MSTORE PUSH2 0x91E JUMP JUMPDEST DUP8 MLOAD SWAP2 DUP6 DUP4 ADD SWAP4 PUSH1 0x1 DUP1 PUSH1 0x60 SHL SUB NOT SWAP3 DUP4 DUP1 SWAP3 PUSH1 0x60 SHL AND DUP7 MSTORE PUSH1 0x60 SHL AND PUSH1 0x34 DUP5 ADD MSTORE PUSH1 0x60 SHL AND PUSH1 0x48 DUP3 ADD MSTORE PUSH1 0x3C DUP2 MSTORE PUSH2 0x7A4 DUP2 PUSH2 0x91E JUMP JUMPDEST MLOAD SWAP1 KECCAK256 SWAP5 MLOAD SWAP1 DUP2 MSTORE LOG3 PUSH1 0x1 DUP1 SSTORE DUP1 RETURN JUMPDEST PUSH4 0x4E487B71 PUSH1 0xE0 SHL DUP13 MSTORE PUSH1 0x11 SWAP1 MSTORE DUP12 DUP12 REVERT JUMPDEST PUSH4 0x4E487B71 PUSH1 0xE0 SHL DUP13 MSTORE PUSH1 0x11 DUP4 MSTORE DUP13 DUP13 REVERT JUMPDEST DUP10 MLOAD PUSH3 0x461BCD PUSH1 0xE5 SHL DUP2 MSTORE DUP1 DUP4 ADD DUP10 SWAP1 MSTORE PUSH1 0x19 DUP2 DUP15 ADD MSTORE PUSH25 0x155CD95C8819185A5B1E481B1A5B5A5D08195E18D959591959 PUSH1 0x3A SHL PUSH1 0x44 DUP3 ADD MSTORE PUSH1 0x64 SWAP1 REVERT JUMPDEST DUP10 MLOAD PUSH3 0x461BCD PUSH1 0xE5 SHL DUP2 MSTORE DUP1 DUP4 ADD DUP10 SWAP1 MSTORE PUSH1 0x18 DUP2 DUP15 ADD MSTORE PUSH24 0x11185A5B1E4819D85CC81B1A5B5A5D08195E18D959591959 PUSH1 0x42 SHL PUSH1 0x44 DUP3 ADD MSTORE PUSH1 0x64 SWAP1 REVERT JUMPDEST DUP7 MLOAD PUSH3 0x461BCD PUSH1 0xE5 SHL DUP2 MSTORE PUSH1 0x20 DUP2 DUP8 ADD MSTORE PUSH1 0x15 DUP2 DUP12 ADD MSTORE PUSH21 0x125B9D985B1A590819D85B594818DBDB9D1C9858DD PUSH1 0x5A SHL PUSH1 0x44 DUP3 ADD MSTORE PUSH1 0x64 SWAP1 REVERT JUMPDEST DUP8 MLOAD PUSH3 0x461BCD PUSH1 0xE5 SHL DUP2 MSTORE PUSH1 0x20 DUP2 DUP9 ADD MSTORE PUSH1 0x14 DUP2 DUP13 ADD MSTORE PUSH20 0x496E76616C696420757365722061646472657373 PUSH1 0x60 SHL PUSH1 0x44 DUP3 ADD MSTORE PUSH1 0x64 SWAP1 REVERT JUMPDEST DUP8 MLOAD PUSH4 0x3EE5AEB5 PUSH1 0xE0 SHL DUP2 MSTORE DUP7 SWAP1 REVERT JUMPDEST DUP9 DUP1 REVERT JUMPDEST DUP7 DUP1 REVERT JUMPDEST DUP5 SWAP1 CALLVALUE PUSH2 0x165 JUMPI DUP2 PUSH1 0x3 NOT CALLDATASIZE ADD SLT PUSH2 0x165 JUMPI PUSH1 0x2 SLOAD PUSH1 0x1 PUSH1 0x1 PUSH1 0xA0 SHL SUB AND DUP2 MSTORE PUSH1 0x20 SWAP1 RETURN JUMPDEST PUSH1 0x4 CALLDATALOAD SWAP1 PUSH1 0x1 PUSH1 0x1 PUSH1 0xA0 SHL SUB DUP3 AND DUP3 SUB PUSH2 0x919 JUMPI JUMP JUMPDEST PUSH1 0x0 DUP1 REVERT JUMPDEST PUSH1 0x60 DUP2 ADD SWAP1 DUP2 LT PUSH1 0x1 PUSH1 0x1 PUSH1 0x40 SHL SUB DUP3 GT OR PUSH2 0x939 JUMPI PUSH1 0x40 MSTORE JUMP JUMPDEST PUSH4 0x4E487B71 PUSH1 0xE0 SHL PUSH1 0x0 MSTORE PUSH1 0x41 PUSH1 0x4 MSTORE PUSH1 0x24 PUSH1 0x0 REVERT JUMPDEST ISZERO PUSH2 0x956 JUMPI JUMP JUMPDEST PUSH1 0x40 MLOAD PUSH3 0x461BCD PUSH1 0xE5 SHL DUP2 MSTORE PUSH1 0x20 PUSH1 0x4 DUP3 ADD MSTORE PUSH1 0x11 PUSH1 0x24 DUP3 ADD MSTORE PUSH17 0x125B9D985B1A590819D85CC81B1A5B5A5D PUSH1 0x7A SHL PUSH1 0x44 DUP3 ADD MSTORE PUSH1 0x64 SWAP1 REVERT JUMPDEST PUSH1 0x0 SLOAD PUSH1 0x1 PUSH1 0x1 PUSH1 0xA0 SHL SUB AND CALLER SUB PUSH2 0x9A3 JUMPI JUMP JUMPDEST PUSH1 0x40 MLOAD PUSH4 0x118CDAA7 PUSH1 0xE0 SHL DUP2 MSTORE CALLER PUSH1 0x4 DUP3 ADD MSTORE PUSH1 0x24 SWAP1 REVERT INVALID DUP12 0xE0 SMOD SWAP13 MSTORE8 AND MSIZE EQ SGT PREVRANDAO 0xCD 0x1F 0xD0 LOG4 CALLCODE DUP5 NOT BLOBHASH PUSH32 0x9722A3DAAFE3B4186F6B6457E0A2646970667358221220575C641C9DDFA74CD3 0xEF DUP8 0xEE LOG4 SWAP4 SWAP2 CALLVALUE PUSH7 0xED217C0BC06D85 CALLCODE 0xE MOD BALANCE 0xD4 POP 0xBA CALLDATACOPY PUSH5 0x736F6C6343 STOP ADDMOD XOR STOP CALLER "},"methodIdentifiers":{"GAS_LIMIT_PER_ENTRY()":"322c8dd5","MAX_DAILY_ENTRIES()":"bbc3ced7","dailyGasLimit()":"4f698e12","dailyGasUsed(uint256)":"fc394400","emergencyPause()":"51858e27","emergencyUnpause()":"4a4e3bd5","getDailyGasUsage(uint256)":"7b3cebec","getUserRemainingGasAllowance(address)":"2e8f5138","owner()":"8da5cb5b","paymaster()":"16e4cbf9","renounceOwnership()":"715018a6","resetUserDailyGasUsage(address)":"f88c4f45","sponsorGameEntry(address,address,address)":"1c378f9d","transferOwnership(address)":"f2fde38b","updateDailyGasLimit(uint256)":"6660e73c","updatePaymaster(address)":"daf6a3f6","updateUserDailyGasLimit(uint256)":"430f403d","userDailyGasLimit()":"425b8d7c","userDailyGasUsed(address)":"fa1730f0","withdrawETH()":"e086e5ec"}}}}}