{
  "_format": "hh-sol-artifact-1",
  "contractName": "PizzaPartyLoyalty",
  "sourceName": "contracts/PizzaPartyLoyalty.sol",
  "abi": [
    {
      "inputs": [
        {
          "internalType": "address",
          "name": "_vmfToken",
          "type": "address"
        }
      ],
      "stateMutability": "nonpayable",
      "type": "constructor"
    },
    {
      "inputs": [],
      "name": "EnforcedPause",
      "type": "error"
    },
    {
      "inputs": [],
      "name": "ExpectedPause",
      "type": "error"
    },
    {
      "inputs": [
        {
          "internalType": "address",
          "name": "owner",
          "type": "address"
        }
      ],
      "name": "OwnableInvalidOwner",
      "type": "error"
    },
    {
      "inputs": [
        {
          "internalType": "address",
          "name": "account",
          "type": "address"
        }
      ],
      "name": "OwnableUnauthorizedAccount",
      "type": "error"
    },
    {
      "inputs": [],
      "name": "ReentrancyGuardReentrantCall",
      "type": "error"
    },
    {
      "anonymous": false,
      "inputs": [
        {
          "indexed": true,
          "internalType": "address",
          "name": "user",
          "type": "address"
        },
        {
          "indexed": false,
          "internalType": "uint256",
          "name": "oldTier",
          "type": "uint256"
        },
        {
          "indexed": false,
          "internalType": "uint256",
          "name": "newTier",
          "type": "uint256"
        },
        {
          "indexed": false,
          "internalType": "string",
          "name": "tierName",
          "type": "string"
        }
      ],
      "name": "LoyaltyTierUpdated",
      "type": "event"
    },
    {
      "anonymous": false,
      "inputs": [
        {
          "indexed": true,
          "internalType": "address",
          "name": "previousOwner",
          "type": "address"
        },
        {
          "indexed": true,
          "internalType": "address",
          "name": "newOwner",
          "type": "address"
        }
      ],
      "name": "OwnershipTransferred",
      "type": "event"
    },
    {
      "anonymous": false,
      "inputs": [
        {
          "indexed": false,
          "internalType": "address",
          "name": "account",
          "type": "address"
        }
      ],
      "name": "Paused",
      "type": "event"
    },
    {
      "anonymous": false,
      "inputs": [
        {
          "indexed": true,
          "internalType": "address",
          "name": "user",
          "type": "address"
        },
        {
          "indexed": false,
          "internalType": "uint256",
          "name": "points",
          "type": "uint256"
        },
        {
          "indexed": false,
          "internalType": "string",
          "name": "reason",
          "type": "string"
        },
        {
          "indexed": false,
          "internalType": "uint256",
          "name": "newTotal",
          "type": "uint256"
        },
        {
          "indexed": false,
          "internalType": "uint256",
          "name": "tier",
          "type": "uint256"
        }
      ],
      "name": "PointsEarned",
      "type": "event"
    },
    {
      "anonymous": false,
      "inputs": [
        {
          "indexed": true,
          "internalType": "address",
          "name": "user",
          "type": "address"
        },
        {
          "indexed": false,
          "internalType": "uint256",
          "name": "points",
          "type": "uint256"
        },
        {
          "indexed": false,
          "internalType": "uint256",
          "name": "rewardAmount",
          "type": "uint256"
        },
        {
          "indexed": false,
          "internalType": "uint256",
          "name": "newTotal",
          "type": "uint256"
        }
      ],
      "name": "PointsRedeemed",
      "type": "event"
    },
    {
      "anonymous": false,
      "inputs": [
        {
          "indexed": true,
          "internalType": "address",
          "name": "user",
          "type": "address"
        },
        {
          "indexed": false,
          "internalType": "uint256",
          "name": "oldStreak",
          "type": "uint256"
        },
        {
          "indexed": false,
          "internalType": "uint256",
          "name": "newStreak",
          "type": "uint256"
        },
        {
          "indexed": false,
          "internalType": "uint256",
          "name": "bonusPoints",
          "type": "uint256"
        }
      ],
      "name": "StreakUpdated",
      "type": "event"
    },
    {
      "anonymous": false,
      "inputs": [
        {
          "indexed": false,
          "internalType": "uint256",
          "name": "tierId",
          "type": "uint256"
        },
        {
          "indexed": false,
          "internalType": "string",
          "name": "name",
          "type": "string"
        },
        {
          "indexed": false,
          "internalType": "uint256",
          "name": "minPoints",
          "type": "uint256"
        },
        {
          "indexed": false,
          "internalType": "uint256",
          "name": "maxPoints",
          "type": "uint256"
        },
        {
          "indexed": false,
          "internalType": "uint256",
          "name": "rewardMultiplier",
          "type": "uint256"
        }
      ],
      "name": "TierCreated",
      "type": "event"
    },
    {
      "anonymous": false,
      "inputs": [
        {
          "indexed": false,
          "internalType": "address",
          "name": "account",
          "type": "address"
        }
      ],
      "name": "Unpaused",
      "type": "event"
    },
    {
      "anonymous": false,
      "inputs": [
        {
          "indexed": true,
          "internalType": "address",
          "name": "user",
          "type": "address"
        },
        {
          "indexed": false,
          "internalType": "bool",
          "name": "blacklisted",
          "type": "bool"
        }
      ],
      "name": "UserBlacklisted",
      "type": "event"
    },
    {
      "inputs": [],
      "name": "MAX_STREAK_DAYS",
      "outputs": [
        {
          "internalType": "uint256",
          "name": "",
          "type": "uint256"
        }
      ],
      "stateMutability": "view",
      "type": "function"
    },
    {
      "inputs": [],
      "name": "POINTS_PER_DOLLAR",
      "outputs": [
        {
          "internalType": "uint256",
          "name": "",
          "type": "uint256"
        }
      ],
      "stateMutability": "view",
      "type": "function"
    },
    {
      "inputs": [],
      "name": "POINTS_PER_ENTRY",
      "outputs": [
        {
          "internalType": "uint256",
          "name": "",
          "type": "uint256"
        }
      ],
      "stateMutability": "view",
      "type": "function"
    },
    {
      "inputs": [],
      "name": "POINT_EXPIRY_DAYS",
      "outputs": [
        {
          "internalType": "uint256",
          "name": "",
          "type": "uint256"
        }
      ],
      "stateMutability": "view",
      "type": "function"
    },
    {
      "inputs": [],
      "name": "STREAK_BONUS",
      "outputs": [
        {
          "internalType": "uint256",
          "name": "",
          "type": "uint256"
        }
      ],
      "stateMutability": "view",
      "type": "function"
    },
    {
      "inputs": [],
      "name": "activeUsers",
      "outputs": [
        {
          "internalType": "uint256",
          "name": "",
          "type": "uint256"
        }
      ],
      "stateMutability": "view",
      "type": "function"
    },
    {
      "inputs": [
        {
          "internalType": "address",
          "name": "user",
          "type": "address"
        }
      ],
      "name": "awardEntryPoints",
      "outputs": [],
      "stateMutability": "nonpayable",
      "type": "function"
    },
    {
      "inputs": [
        {
          "internalType": "address",
          "name": "user",
          "type": "address"
        },
        {
          "internalType": "uint256",
          "name": "points",
          "type": "uint256"
        },
        {
          "internalType": "string",
          "name": "reason",
          "type": "string"
        }
      ],
      "name": "awardLoyaltyPoints",
      "outputs": [],
      "stateMutability": "nonpayable",
      "type": "function"
    },
    {
      "inputs": [
        {
          "internalType": "address",
          "name": "user",
          "type": "address"
        },
        {
          "internalType": "uint256",
          "name": "vmfAmount",
          "type": "uint256"
        },
        {
          "internalType": "uint256",
          "name": "vmfPrice",
          "type": "uint256"
        }
      ],
      "name": "awardSpendingPoints",
      "outputs": [],
      "stateMutability": "nonpayable",
      "type": "function"
    },
    {
      "inputs": [
        {
          "internalType": "address",
          "name": "",
          "type": "address"
        }
      ],
      "name": "blacklistedUsers",
      "outputs": [
        {
          "internalType": "bool",
          "name": "",
          "type": "bool"
        }
      ],
      "stateMutability": "view",
      "type": "function"
    },
    {
      "inputs": [
        {
          "internalType": "address",
          "name": "user",
          "type": "address"
        },
        {
          "internalType": "uint256",
          "name": "points",
          "type": "uint256"
        }
      ],
      "name": "calculateRewardAmount",
      "outputs": [
        {
          "internalType": "uint256",
          "name": "",
          "type": "uint256"
        }
      ],
      "stateMutability": "view",
      "type": "function"
    },
    {
      "inputs": [
        {
          "internalType": "string",
          "name": "name",
          "type": "string"
        },
        {
          "internalType": "uint256",
          "name": "minPoints",
          "type": "uint256"
        },
        {
          "internalType": "uint256",
          "name": "maxPoints",
          "type": "uint256"
        },
        {
          "internalType": "uint256",
          "name": "rewardMultiplier",
          "type": "uint256"
        },
        {
          "internalType": "uint256",
          "name": "bonusRewards",
          "type": "uint256"
        }
      ],
      "name": "createLoyaltyTier",
      "outputs": [],
      "stateMutability": "nonpayable",
      "type": "function"
    },
    {
      "inputs": [
        {
          "internalType": "bool",
          "name": "pause",
          "type": "bool"
        }
      ],
      "name": "emergencyPause",
      "outputs": [],
      "stateMutability": "nonpayable",
      "type": "function"
    },
    {
      "inputs": [],
      "name": "emergencyWithdraw",
      "outputs": [],
      "stateMutability": "nonpayable",
      "type": "function"
    },
    {
      "inputs": [
        {
          "internalType": "uint256",
          "name": "tierId",
          "type": "uint256"
        }
      ],
      "name": "getLoyaltyTier",
      "outputs": [
        {
          "components": [
            {
              "internalType": "string",
              "name": "name",
              "type": "string"
            },
            {
              "internalType": "uint256",
              "name": "minPoints",
              "type": "uint256"
            },
            {
              "internalType": "uint256",
              "name": "maxPoints",
              "type": "uint256"
            },
            {
              "internalType": "uint256",
              "name": "rewardMultiplier",
              "type": "uint256"
            },
            {
              "internalType": "uint256",
              "name": "bonusRewards",
              "type": "uint256"
            },
            {
              "internalType": "bool",
              "name": "isActive",
              "type": "bool"
            }
          ],
          "internalType": "struct PizzaPartyLoyalty.LoyaltyTier",
          "name": "",
          "type": "tuple"
        }
      ],
      "stateMutability": "view",
      "type": "function"
    },
    {
      "inputs": [
        {
          "internalType": "address",
          "name": "user",
          "type": "address"
        }
      ],
      "name": "getUserLoyaltyData",
      "outputs": [
        {
          "components": [
            {
              "internalType": "uint256",
              "name": "totalPoints",
              "type": "uint256"
            },
            {
              "internalType": "uint256",
              "name": "currentTier",
              "type": "uint256"
            },
            {
              "internalType": "uint256",
              "name": "pointsEarned",
              "type": "uint256"
            },
            {
              "internalType": "uint256",
              "name": "pointsRedeemed",
              "type": "uint256"
            },
            {
              "internalType": "uint256",
              "name": "lastActivity",
              "type": "uint256"
            },
            {
              "internalType": "uint256",
              "name": "streakDays",
              "type": "uint256"
            },
            {
              "internalType": "uint256",
              "name": "totalRewards",
              "type": "uint256"
            },
            {
              "internalType": "bool",
              "name": "isActive",
              "type": "bool"
            }
          ],
          "internalType": "struct PizzaPartyLoyalty.UserLoyaltyData",
          "name": "",
          "type": "tuple"
        }
      ],
      "stateMutability": "view",
      "type": "function"
    },
    {
      "inputs": [
        {
          "internalType": "address",
          "name": "user",
          "type": "address"
        },
        {
          "internalType": "uint256",
          "name": "startIndex",
          "type": "uint256"
        },
        {
          "internalType": "uint256",
          "name": "count",
          "type": "uint256"
        }
      ],
      "name": "getUserTransactions",
      "outputs": [
        {
          "components": [
            {
              "internalType": "uint256",
              "name": "timestamp",
              "type": "uint256"
            },
            {
              "internalType": "uint256",
              "name": "points",
              "type": "uint256"
            },
            {
              "internalType": "string",
              "name": "reason",
              "type": "string"
            },
            {
              "internalType": "bool",
              "name": "isEarned",
              "type": "bool"
            },
            {
              "internalType": "uint256",
              "name": "tierAtTime",
              "type": "uint256"
            }
          ],
          "internalType": "struct PizzaPartyLoyalty.PointTransaction[]",
          "name": "",
          "type": "tuple[]"
        }
      ],
      "stateMutability": "view",
      "type": "function"
    },
    {
      "inputs": [
        {
          "internalType": "uint256",
          "name": "",
          "type": "uint256"
        }
      ],
      "name": "loyaltyTiers",
      "outputs": [
        {
          "internalType": "string",
          "name": "name",
          "type": "string"
        },
        {
          "internalType": "uint256",
          "name": "minPoints",
          "type": "uint256"
        },
        {
          "internalType": "uint256",
          "name": "maxPoints",
          "type": "uint256"
        },
        {
          "internalType": "uint256",
          "name": "rewardMultiplier",
          "type": "uint256"
        },
        {
          "internalType": "uint256",
          "name": "bonusRewards",
          "type": "uint256"
        },
        {
          "internalType": "bool",
          "name": "isActive",
          "type": "bool"
        }
      ],
      "stateMutability": "view",
      "type": "function"
    },
    {
      "inputs": [],
      "name": "owner",
      "outputs": [
        {
          "internalType": "address",
          "name": "",
          "type": "address"
        }
      ],
      "stateMutability": "view",
      "type": "function"
    },
    {
      "inputs": [],
      "name": "paused",
      "outputs": [
        {
          "internalType": "bool",
          "name": "",
          "type": "bool"
        }
      ],
      "stateMutability": "view",
      "type": "function"
    },
    {
      "inputs": [
        {
          "internalType": "uint256",
          "name": "points",
          "type": "uint256"
        }
      ],
      "name": "redeemPoints",
      "outputs": [],
      "stateMutability": "nonpayable",
      "type": "function"
    },
    {
      "inputs": [],
      "name": "renounceOwnership",
      "outputs": [],
      "stateMutability": "nonpayable",
      "type": "function"
    },
    {
      "inputs": [
        {
          "internalType": "address",
          "name": "user",
          "type": "address"
        },
        {
          "internalType": "bool",
          "name": "blacklisted",
          "type": "bool"
        }
      ],
      "name": "setUserBlacklist",
      "outputs": [],
      "stateMutability": "nonpayable",
      "type": "function"
    },
    {
      "inputs": [],
      "name": "tierCount",
      "outputs": [
        {
          "internalType": "uint256",
          "name": "",
          "type": "uint256"
        }
      ],
      "stateMutability": "view",
      "type": "function"
    },
    {
      "inputs": [],
      "name": "totalPointsIssued",
      "outputs": [
        {
          "internalType": "uint256",
          "name": "",
          "type": "uint256"
        }
      ],
      "stateMutability": "view",
      "type": "function"
    },
    {
      "inputs": [],
      "name": "totalPointsRedeemed",
      "outputs": [
        {
          "internalType": "uint256",
          "name": "",
          "type": "uint256"
        }
      ],
      "stateMutability": "view",
      "type": "function"
    },
    {
      "inputs": [],
      "name": "totalUsers",
      "outputs": [
        {
          "internalType": "uint256",
          "name": "",
          "type": "uint256"
        }
      ],
      "stateMutability": "view",
      "type": "function"
    },
    {
      "inputs": [
        {
          "internalType": "address",
          "name": "newOwner",
          "type": "address"
        }
      ],
      "name": "transferOwnership",
      "outputs": [],
      "stateMutability": "nonpayable",
      "type": "function"
    },
    {
      "inputs": [
        {
          "internalType": "uint256",
          "name": "tierId",
          "type": "uint256"
        },
        {
          "internalType": "string",
          "name": "name",
          "type": "string"
        },
        {
          "internalType": "uint256",
          "name": "minPoints",
          "type": "uint256"
        },
        {
          "internalType": "uint256",
          "name": "maxPoints",
          "type": "uint256"
        },
        {
          "internalType": "uint256",
          "name": "rewardMultiplier",
          "type": "uint256"
        },
        {
          "internalType": "uint256",
          "name": "bonusRewards",
          "type": "uint256"
        },
        {
          "internalType": "bool",
          "name": "isActive",
          "type": "bool"
        }
      ],
      "name": "updateLoyaltyTier",
      "outputs": [],
      "stateMutability": "nonpayable",
      "type": "function"
    },
    {
      "inputs": [
        {
          "internalType": "address",
          "name": "",
          "type": "address"
        }
      ],
      "name": "userLoyaltyData",
      "outputs": [
        {
          "internalType": "uint256",
          "name": "totalPoints",
          "type": "uint256"
        },
        {
          "internalType": "uint256",
          "name": "currentTier",
          "type": "uint256"
        },
        {
          "internalType": "uint256",
          "name": "pointsEarned",
          "type": "uint256"
        },
        {
          "internalType": "uint256",
          "name": "pointsRedeemed",
          "type": "uint256"
        },
        {
          "internalType": "uint256",
          "name": "lastActivity",
          "type": "uint256"
        },
        {
          "internalType": "uint256",
          "name": "streakDays",
          "type": "uint256"
        },
        {
          "internalType": "uint256",
          "name": "totalRewards",
          "type": "uint256"
        },
        {
          "internalType": "bool",
          "name": "isActive",
          "type": "bool"
        }
      ],
      "stateMutability": "view",
      "type": "function"
    },
    {
      "inputs": [
        {
          "internalType": "address",
          "name": "",
          "type": "address"
        },
        {
          "internalType": "uint256",
          "name": "",
          "type": "uint256"
        }
      ],
      "name": "userTransactions",
      "outputs": [
        {
          "internalType": "uint256",
          "name": "timestamp",
          "type": "uint256"
        },
        {
          "internalType": "uint256",
          "name": "points",
          "type": "uint256"
        },
        {
          "internalType": "string",
          "name": "reason",
          "type": "string"
        },
        {
          "internalType": "bool",
          "name": "isEarned",
          "type": "bool"
        },
        {
          "internalType": "uint256",
          "name": "tierAtTime",
          "type": "uint256"
        }
      ],
      "stateMutability": "view",
      "type": "function"
    },
    {
      "inputs": [],
      "name": "vmfToken",
      "outputs": [
        {
          "internalType": "contract IERC20",
          "name": "",
          "type": "address"
        }
      ],
      "stateMutability": "view",
      "type": "function"
    }
  ],
  "bytecode": "0x60a034620008e657601f62002d6938819003918201601f19168301916001600160401b03831184841017620005f957808492602094604052833981010312620008e657516001600160a01b0380821691829003620008e65760016000553315620008cd5760018054336001600160a01b03198216811790925560405192167f8be0079c531659141344cd1fd0a4f28419497f9722a3daafe3b4186f6b6457e0600080a381156200088b5750608052620000b7620008eb565b620000c16200090b565b600681526542726f6e7a6560d01b60208201528152600060208201526103e760408201526064606082015260006080820152600160a08201526000805260026020526040600020815180519060018060401b038211620005f9578254600181811c9116801562000880575b6020821014620005d857601f811162000837575b50602090601f8311600114620007c357918060a09492600594600092620007b7575b50508160011b916000199060031b1c19161781555b6020840151600182015560408401516002820155606084015160038201556080840151600482015501910151151560ff80198354169116179055620001bb620008eb565b620001c56200090b565b600681526529b4b63b32b960d11b602082015281526103e86020820152611387604082015260786060820152600a6080820152600160a0820152600160005260026020526040600020815180519060018060401b038211620005f9578254600181811c91168015620007ac575b6020821014620005d857601f811162000763575b50602090601f8311600114620006ef57918060a09492600594600092620006e3575b50508160011b916000199060031b1c19161781555b6020840151600182015560408401516002820155606084015160038201556080840151600482015501910151151560ff80198354169116179055620002c1620008eb565b620002cb6200090b565b600481526311dbdb1960e21b602082015281526113886020820152614e1f60408201526096606082015260196080820152600160a0820152600260005260026020526040600020815180519060018060401b038211620005f9578254600181811c91168015620006d8575b6020821014620005d857601f81116200068f575b50602090601f83116001146200061b57918060a094926005946000926200060f575b50508160011b916000199060031b1c19161781555b6020840151600182015560408401516002820155606084015160038201556080840151600482015501910151151560ff80198354169116179055620003c5620008eb565b620003cf6200090b565b6008815267506c6174696e756d60c01b602080830191909152908252614e2082820152600019604083015260c8606083015260326080830152600160a0830152600360005260029052805180517f88601476d11616a71c5be67555bd1dff4b1cbf21533d2669b768b61518cfe1c3916001600160401b038211620005f9578254600181811c91168015620005ee575b6020821014620005d857601f81116200058f575b50602090601f83116001146200051b57918060a094926005946000926200050f575b50508160011b916000199060031b1c19161781555b6020840151600182015560408401516002820155606084015160038201556080840151600482015501910151151560ff80198354169116179055600460035560405161243d90816200092c823960805181818161080901528181610cfd0152611c1d0152f35b01519050388062000494565b908360005260206000209160005b601f19851681106200057657509260a0949260019260059583601f198116106200055c575b505050811b018155620004a9565b015160001960f88460031b161c191690553880806200054e565b9192602060018192868501518155019401920162000529565b836000526020600020601f840160051c810160208510620005d0575b601f830160051c82018110620005c357505062000472565b60008155600101620005ab565b5080620005ab565b634e487b7160e01b600052602260045260246000fd5b90607f16906200045e565b634e487b7160e01b600052604160045260246000fd5b0151905038806200036c565b908360005260206000209160005b601f19851681106200067657509260a0949260019260059583601f198116106200065c575b505050811b01815562000381565b015160001960f88460031b161c191690553880806200064e565b9192602060018192868501518155019401920162000629565b836000526020600020601f840160051c810160208510620006d0575b601f830160051c82018110620006c35750506200034a565b60008155600101620006ab565b5080620006ab565b90607f169062000336565b01519050388062000268565b908360005260206000209160005b601f19851681106200074a57509260a0949260019260059583601f1981161062000730575b505050811b0181556200027d565b015160001960f88460031b161c1916905538808062000722565b91926020600181928685015181550194019201620006fd565b836000526020600020601f840160051c810160208510620007a4575b601f830160051c820181106200079757505062000246565b600081556001016200077f565b50806200077f565b90607f169062000232565b01519050388062000162565b908360005260206000209160005b601f19851681106200081e57509260a0949260019260059583601f1981161062000804575b505050811b01815562000177565b015160001960f88460031b161c19169055388080620007f6565b91926020600181928685015181550194019201620007d1565b836000526020600020601f840160051c81016020851062000878575b601f830160051c820181106200086b57505062000140565b6000815560010162000853565b508062000853565b90607f16906200012c565b62461bcd60e51b815260206004820152601960248201527f496e76616c696420564d4620746f6b656e2061646472657373000000000000006044820152606490fd5b604051631e4fbdf760e01b815260006004820152602490fd5b600080fd5b6040519060c082016001600160401b03811183821017620005f957604052565b60408051919082016001600160401b03811183821017620005f95760405256fe608080604052600436101561001357600080fd5b60009060e08235811c9182630ddd02a114611d525750816319a39d3a14611c4c5781632086eefa14611c0757816322c0aec714611bc857816327de4ba814611bac57816337526fca1461198b5781634a59b40d1461177d578163541ff9f7146116335781635c975abb1461160d5781635f996501146115f0578163715018a6146115a457816374aa34de146115865781637677477a1461140f5781638da5cb5b146113e657816396b55f7d146113c85781639a0921f714611093578163b698e17d14611004578163b842ec4414610f61578163bcf6447514610f45578163bf92ee8814610f15578163bff1f9e114610ef7578163ccddf0b014610e78578163d968f51b14610e5c578163db2e21bc14610cc4578163e06ef5f414610c37578163e8f6940e14610b63578163e92e92e714610720578163f2fde38b146106a8578163f9a6dcfa1461058857508063fa5bd4d2146101c1578063fa690beb146101a35763fd1c88111461018357600080fd5b346101a057806003193601126101a0576020600754604051908152f35b80fd5b50346101a057806003193601126101a0576020600854604051908152f35b50346101a05760603660031901126101a0576101db611d6d565b6044356001600160401b038111610584576101fa903690600401611e75565b906102036121f7565b61020b6122f7565b61021361231a565b6001600160a01b0381168352600660205260408320546102369060ff1615612150565b6102436024351515612192565b6102576001600160a01b03821615156120b8565b60018060a01b0381168352600460205260408320916102796024358454611fcd565b83556002830161028c6024358254611fcd565b905542600484015560078301805460ff811615610557575b505060018301908154936102b8815461233b565b8093556102c9602435600754611fcd565b6007556040516102d881611e09565b42815260243560208201528260408201526001606082015283608082015260018060a01b038516600052600560205260406000208054600160401b81101561052b5761032991600182018155611f9b565b91909161054157805182556020810151600183015560408101518051906001600160401b03821161052b576103616002850154611ecb565b601f81116104e4575b50602090601f831160011461045e5792826004936080936000805160206123c8833981519152989796600092610453575b50508160011b916000199060031b1c19161760028501555b6103c660608201511515600386016120a7565b015191015554916103ea604051916024358352608060208401526080830190611dad565b9260408201528360608201528060018060a01b038616930390a2808303610414575b836001815580f35b6000805160206123a88339815191529181855260026020526104486040862060405193849360018060a01b031696846121d8565b0390a238808061040c565b01519050388061039b565b906002850160005260206000209160005b601f19851681106104cc5750836080936000805160206123c883398151915298979693600193600497601f198116106104b3575b505050811b0160028501556103b3565b015160001960f88460031b161c191690553880806104a3565b9192602060018192868501518155019401920161046f565b600285016000526020600020601f840160051c810160208510610524575b601f830160051c8201811061051857505061036a565b60008155600101610502565b5080610502565b634e487b7160e01b600052604160045260246000fd5b634e487b7160e01b600052600060045260246000fd5b60ff1916600117905560095461056c9061210e565b60095561057a600a5461210e565b600a5538806102a4565b8280fd5b9050346106a45760208060031936011261058457604060c0936004358160a084516105b281611e24565b606081528287820152828682015282606082015282608082015201526105db6003548210612028565b808252600284526105f460ff6005858520015416612066565b81526002835220916040519261060984611e24565b6040516106218161061a8185611f05565b0382611e52565b845260018101549280850193845260028201546040860190815261067f6003840154926060880193845260ff600560048701549660808b019788520154169560a089019615158752604051998a99838b5251928a0152880190611dad565b945160408701525160608601525160808501525160a084015251151560c08301520390f35b5080fd5b82346101a05760203660031901126101a0576106c2611d6d565b6106ca6121f7565b6001600160a01b0390811690811561070757600180546001600160a01b031981168417909155166000805160206123e8833981519152600080a380f35b604051631e4fbdf760e01b815260048101849052602490fd5b82346101a05760203660031901126101a05761073a6122f7565b61074261231a565b338152600660205261075b60ff60408320541615612150565b6107686004351515612192565b3381526004602052604081208054906004358210610b285761079961078f60043533612223565b9260043590611ff0565b91828255600382016107ae6004358254611fcd565b9055600682016107bf828254611fcd565b905560018201916107d183549461233b565b8093556107e2600435600854611fcd565b60085560405163a9059cbb60e01b815260208180610804863360048401612135565b0381897f00000000000000000000000000000000000000000000000000000000000000006001600160a01b03165af1908115610b1d578691610aee575b5015610ab057604080519081016001600160401b0381118282101761052b5760405260118152702837b4b73a39902932b232b6b83a34b7b760791b60208201526040519061088e82611e09565b428252600435602083015260408201526000606082015283608082015233600052600560205260406000208054600160401b81101561052b576108d691600182018155611f9b565b91909161054157805182556020810151600183015560408101518051906001600160401b03821161052b5761090e6002850154611ecb565b601f8111610a69575b50602090601f83116001146109f4579180600494926080946000926109e9575b50508160011b916000199060031b1c19161760028501555b61096260608201511515600386016120a7565b015191015554604051916004358352602083015260408201527f90138e15f43ce1520bd445151b279c8047b276f6dc4d41f9fae44cd7ecfe4e7e60603392a28082036109b1575b826001815580f35b806000805160206123a8833981519152918452600260205260408420906109df6040519283923396846121d8565b0390a281806109a9565b015190508b80610937565b906002850160005260206000209160005b601f1985168110610a515750926004949260019260809583601f19811610610a38575b505050811b01600285015561094f565b015160001960f88460031b161c191690558b8080610a28565b91926020600181928685015181550194019201610a05565b600285016000526020600020601f840160051c810160208510610aa9575b601f830160051c82018110610a9d575050610917565b60008155600101610a87565b5080610a87565b60405162461bcd60e51b815260206004820152601660248201527514995dd85c99081d1c985b9cd9995c8819985a5b195960521b6044820152606490fd5b610b10915060203d602011610b16575b610b088183611e52565b81019061211d565b86610841565b503d610afe565b6040513d88823e3d90fd5b60405162461bcd60e51b8152602060048201526013602482015272496e73756666696369656e7420706f696e747360681b6044820152606490fd5b82346101a05760203660031901126101a0576004358015158103610c3257610b896121f7565b15610bd857610b9661231a565b6001805460ff60a01b1916600160a01b1790556040513381527f62e78cea01bee320cd4e420270b5ea74000d11b0c9f74754ebdbfc544b05a25890602090a180f35b60015460ff8160a01c1615610c205760ff60a01b19166001556040513381527f5db9ee0a495bf2e6ff9c91a7834c1ba4fdd244a5e8aa4e537bd38aeae4b073aa90602090a180f35b604051638dfc202b60e01b8152600490fd5b600080fd5b9050346106a45760203660031901126106a457610100916040906001600160a01b03610c61611d6d565b168152600460205220908154916001810154906002810154600382015460048301549060058401549260ff600760068701549601541695604051988952602089015260408801526060870152608086015260a085015260c0840152151590820152f35b82346101a057806003193601126101a057610cdd6121f7565b6040516370a0823160e01b81523060048201526020906001600160a01b037f00000000000000000000000000000000000000000000000000000000000000008116908383602481855afa928315610e51578593610e1e575b508215610de057918391610d6493600154168660405180968195829463a9059cbb60e01b845260048401612135565b03925af1908115610dd5578391610db8575b5015610d80575080f35b6064906040519062461bcd60e51b82526004820152601160248201527015da5d1a191c985dd85b0819985a5b1959607a1b6044820152fd5b610dcf9150823d8411610b1657610b088183611e52565b83610d76565b6040513d85823e3d90fd5b60405162461bcd60e51b81526004810185905260166024820152754e6f2062616c616e636520746f20776974686472617760501b6044820152606490fd5b9092508381813d8311610e4a575b610e368183611e52565b81010312610e4657519185610d35565b8480fd5b503d610e2c565b6040513d87823e3d90fd5b82346101a057806003193601126101a057602060405160058152f35b82346101a05760403660031901126101a057610e92611d6d565b6024359081151590818303610c32577f5b7ef9d8e7fd7ff1dae13005391bc3aa7cc048c7ba41af348e5da4dcbe7323e091610eed602092610ed16121f7565b6001600160a01b031680875260068452604087209095906120a7565b604051908152a280f35b82346101a057806003193601126101a0576020600954604051908152f35b82346101a05760403660031901126101a0576020610f3d610f34611d6d565b60243590612223565b604051908152f35b82346101a057806003193601126101a057602060405160028152f35b82346101a05760403660031901126101a057610f7b611d6d565b6001600160a01b031681526005602052604081208054602435919082101561058457610fa79250611f9b565b508054600182015491604051610fc48161061a8160028601611f05565b610ff3600460ff600385015416930154916040519586958652602086015260a0604086015260a0850190611dad565b911515606084015260808301520390f35b82346101a05760203660031901126101a057604061107391600435815260026020522060405190611040826110398184611f05565b0383611e52565b600181015490600281015490600381015460ff60056004840154930154169260405196879660c0885260c0880190611dad565b946020870152604086015260608501526080840152151560a08301520390f35b82346101a05760a03660031901126101a0576004356001600160401b0381116106a4576110c4903690600401611e75565b6110cc6121f7565b80511561138757604435602435101561134c57606435156112fc576040516110f381611e24565b8181526024356020820152604435604082015260643560608201526084356080820152600160a0820152600354835260026020526040832090805180519060018060401b0382116112e8576111488454611ecb565b601f81116112a7575b50602090601f8311600114611233576111c0938361122297969460059460a0948b92611228575b50508160011b916000199060031b1c19161784555b602081015160018501556040810151600285015560608101516003850155608081015160048501550151151591016120a7565b7f6a11b609fa46ee9a457a505fdbab82d52b066e85506e8bcfb821f88df01e30a86112026003549260405191829185835260a0602084015260a0830190611dad565b6024356040830152604435606083015260643560808301520390a161210e565b60035580f35b015190508a80611178565b908487526020872091875b601f198516811061128f57509360018460059460a0946111c0986112229b9a98601f19811610611276575b505050811b01845561118d565b015160001960f88460031b161c191690558a8080611269565b9192602060018192868501518155019401920161123e565b84875260208720601f840160051c8101602085106112e1575b601f830160051c820181106112d6575050611151565b8881556001016112c0565b50806112c0565b634e487b7160e01b86526041600452602486fd5b60405162461bcd60e51b815260206004820152602260248201527f526577617264206d756c7469706c696572206d75737420626520706f73697469604482015261766560f01b6064820152608490fd5b60405162461bcd60e51b8152602060048201526013602482015272496e76616c696420706f696e742072616e676560681b6044820152606490fd5b60405162461bcd60e51b815260206004820152601960248201527854696572206e616d652063616e6e6f7420626520656d70747960381b6044820152606490fd5b82346101a057806003193601126101a0576020600354604051908152f35b82346101a057806003193601126101a0576001546040516001600160a01b039091168152602090f35b82346101a05761141e36611d83565b92916114286121f7565b6001600160a01b03169061143d8215156120b8565b80156115475783156115095761145d670de0b6b3a76400009485926120fb565b0492600a840293808504600a14901517156114f5578293048061147e575050f35b303b156114f15760405191637d2dea6960e11b83526004830152602482015260606044820152600c60648201526b564d46205370656e64696e6760a01b6084820152818160a48183305af180156114e6576114d65750f35b6114df90611e3f565b6101a05780f35b6040513d84823e3d90fd5b5050fd5b634e487b7160e01b83526011600452602483fd5b60405162461bcd60e51b81526020600482015260166024820152755072696365206d75737420626520706f73697469766560501b6044820152606490fd5b60405162461bcd60e51b8152602060048201526017602482015276416d6f756e74206d75737420626520706f73697469766560481b6044820152606490fd5b82346101a057806003193601126101a0576020600a54604051908152f35b82346101a057806003193601126101a0576115bd6121f7565b600180546001600160a01b031981169091556000906001600160a01b03166000805160206123e88339815191528280a380f35b82346101a057806003193601126101a057602060405161016d8152f35b82346101a057806003193601126101a057602060ff60015460a01c166040519015158152f35b82346101a05760203660031901126101a05761164d611d6d565b6116556121f7565b6001600160a01b03169061166a8215156120b8565b81815260046020526005604082200154601e8111611775575b8060011b9080820460021490151715611761576005018060051161176157303b156106a45760405190637d2dea6960e11b8252836004830152602482015260606044820152600a60648201526947616d6520456e74727960b01b6084820152818160a48183305af180156114e657611752575b50908152600460205260408120600481019062015180611717835442611ff0565b1161174657600501601e61172b825461210e565b8083551161173c575b505b42905580f35b601e905582611734565b60056001910155611736565b61175b90611e3f565b826116f6565b634e487b7160e01b82526011600452602482fd5b50601e611683565b9050346106a4573660031901126101a0576004356001600160401b03602435818111611987576117b1903690600401611e75565b9160c43591821515809303610e46576117c86121f7565b6117d56003548310612028565b818552602090600282526117f260ff600560408920015416612066565b604051946117ff86611e24565b855281850160443581526040860191606435835260608701936084358552608088019560a435875260a0890197885289526002815260408920975180519283116119735761184d8954611ecb565b601f8111611930575b5081601f84116001146118bf575091806118b1999896949260059896948c926118b4575b50508160011b916000199060031b1c19161787555b51600187015551600286015551600385015551600484015551151591016120a7565b80f35b01519050388061187a565b9190601f1984168a8c52838c20938c905b82821061191857505092600192859260059a98966118b19d9c9a9896106118ff575b505050811b01875561188f565b015160001960f88460031b161c191690553880806118f2565b806001869782949787015181550196019401906118d0565b898b52828b20601f850160051c810191848610611969575b601f0160051c01905b81811061195e5750611856565b8b8155600101611951565b9091508190611948565b634e487b7160e01b8a52604160045260248afd5b8380fd5b82346101a05761199a36611d83565b9160018060a01b0316835260209160058352604084209182549182821015611b71576119c69082611fcd565b91808311611b69575b506119dd8183969596611ff0565b92611a006119ea85611ffd565b946119f86040519687611e52565b808652611ffd565b601f1901855b818110611b30575050815b838110611aac575050505060405191838301848452825180915260408401948060408360051b870101940192955b828710611a4c5785850386f35b909192938280600192603f19898203018552875190611a8660a0835183528484015185840152604084015190806040850152830190611dad565b916060808201511515908301526080809101519101529601920196019592919092611a3f565b80611b26611abf600193859a999a611f9b565b50611aca8684611ff0565b90600460405191611ada83611e09565b80548352868101548c840152604051611afa8161061a8160028601611f05565b604084015260ff6003820154161515606084015201546080820152611b1f828a612014565b5287612014565b5001959495611a11565b96809697604051611b4081611e09565b898152898382015289606080604084015282015289608082015282828901015201969596611a06565b9150856119cf565b60405162461bcd60e51b8152600481018690526013602482015272092dcecc2d8d2c840e6e8c2e4e840d2dcc8caf606b1b6044820152606490fd5b82346101a057806003193601126101a0576020604051601e8152f35b82346101a05760203660031901126101a05760209060ff906040906001600160a01b03611bf3611d6d565b168152600684522054166040519015158152f35b82346101a057806003193601126101a0576040517f00000000000000000000000000000000000000000000000000000000000000006001600160a01b03168152602090f35b9050346106a45760203660031901126106a457604061010092611c6d611d6d565b81848451611c7a81611ded565b82815282602082015282868201528260608201528260808201528260a08201528260c0820152015260018060a01b0316815260046020522090604051611cbf81611ded565b8254928382526001810154602083019081526002820154604084019081526003830154606085019081526004840154916080860192835260058501549360a087019485528760ff600760068901549860c08b01998a52015416970196151587526040519889525160208901525160408801525160608701525160808601525160a08501525160c084015251151590820152f35b8390346106a457816003193601126106a45780600a60209252f35b600435906001600160a01b0382168203610c3257565b6060906003190112610c32576004356001600160a01b0381168103610c3257906024359060443590565b919082519283825260005b848110611dd9575050826000602080949584010152601f8019910116010190565b602081830181015184830182015201611db8565b61010081019081106001600160401b0382111761052b57604052565b60a081019081106001600160401b0382111761052b57604052565b60c081019081106001600160401b0382111761052b57604052565b6001600160401b03811161052b57604052565b601f909101601f19168101906001600160401b0382119082101761052b57604052565b81601f82011215610c32578035906001600160401b03821161052b5760405192611ea9601f8401601f191660200185611e52565b82845260208383010111610c3257816000926020809301838601378301015290565b90600182811c92168015611efb575b6020831014611ee557565b634e487b7160e01b600052602260045260246000fd5b91607f1691611eda565b805460009392611f1482611ecb565b91828252602093600191600181169081600014611f7c5750600114611f3b575b5050505050565b90939495506000929192528360002092846000945b838610611f6857505050500101903880808080611f34565b805485870183015294019385908201611f50565b60ff19168685015250505090151560051b010191503880808080611f34565b8054821015611fb7576000526005602060002091020190600090565b634e487b7160e01b600052603260045260246000fd5b91908201809211611fda57565b634e487b7160e01b600052601160045260246000fd5b91908203918211611fda57565b6001600160401b03811161052b5760051b60200190565b8051821015611fb75760209160051b010190565b1561202f57565b60405162461bcd60e51b815260206004820152600f60248201526e125b9d985b1a59081d1a595c881251608a1b6044820152606490fd5b1561206d57565b60405162461bcd60e51b815260206004820152601260248201527154696572206973206e6f742061637469766560701b6044820152606490fd5b9060ff801983541691151516179055565b156120bf57565b60405162461bcd60e51b8152602060048201526014602482015273496e76616c69642075736572206164647265737360601b6044820152606490fd5b81810292918115918404141715611fda57565b6000198114611fda5760010190565b90816020910312610c3257518015158103610c325790565b6001600160a01b039091168152602081019190915260400190565b1561215757565b60405162461bcd60e51b8152602060048201526013602482015272155cd95c881a5cc8189b1858dadb1a5cdd1959606a1b6044820152606490fd5b1561219957565b60405162461bcd60e51b8152602060048201526017602482015276506f696e7473206d75737420626520706f73697469766560481b6044820152606490fd5b6121f49392606092825260208201528160408201520190611f05565b90565b6001546001600160a01b0316330361220b57565b60405163118cdaa760e01b8152336004820152602490fd5b6001600160a01b03166000908152600460205260408120600101546003549193929181108015906122dd575b6122d6575b8352600260205260408320670de0b6b3a764000091828102908082048414901517156122c257606461228f60049282600386015491046120fb565b049101548281029281840414901517156122ae576121f4929350611fcd565b634e487b7160e01b84526011600452602484fd5b634e487b7160e01b85526011600452602485fd5b5082612254565b50808452600260205260ff6005604086200154161561224f565b600260005414612308576002600055565b604051633ee5aeb560e01b8152600490fd5b60ff60015460a01c1661232957565b60405163d93c066560e01b8152600490fd5b6003549060005b82811061235157505050600090565b8060005260028060205260406000209060ff6005830154169182612398575b8261238a575b505061238457600101612342565b91505090565b015483111590503880612376565b6001810154851015925061237056fe5f2aaefdbf8c253e7a8a9f91ed407fe3afc0c188192d314fc5791519222526a9d2079cbd2ae204cb11e67beabb9f61b660239894de98ac292f27bfc385a81f208be0079c531659141344cd1fd0a4f28419497f9722a3daafe3b4186f6b6457e0a26469706673582212209910240130b9d7911c0c040f8b15c3b58def04beeaf7b95ae40039d35e676e2364736f6c63430008180033",
  "linkReferences": {},
  "deployedLinkReferences": {}
}