{
  "_format": "hh-sol-artifact-1",
  "contractName": "PizzaPartyAdvancedRandomness",
  "sourceName": "contracts/PizzaPartyAdvancedRandomness.sol",
  "abi": [
    {
      "inputs": [],
      "stateMutability": "nonpayable",
      "type": "constructor"
    },
    {
      "inputs": [],
      "name": "EnforcedPause",
      "type": "error"
    },
    {
      "inputs": [],
      "name": "ExpectedPause",
      "type": "error"
    },
    {
      "inputs": [
        {
          "internalType": "address",
          "name": "owner",
          "type": "address"
        }
      ],
      "name": "OwnableInvalidOwner",
      "type": "error"
    },
    {
      "inputs": [
        {
          "internalType": "address",
          "name": "account",
          "type": "address"
        }
      ],
      "name": "OwnableUnauthorizedAccount",
      "type": "error"
    },
    {
      "inputs": [],
      "name": "ReentrancyGuardReentrantCall",
      "type": "error"
    },
    {
      "anonymous": false,
      "inputs": [
        {
          "indexed": true,
          "internalType": "address",
          "name": "contributor",
          "type": "address"
        },
        {
          "indexed": false,
          "internalType": "bool",
          "name": "blacklisted",
          "type": "bool"
        }
      ],
      "name": "ContributorBlacklisted",
      "type": "event"
    },
    {
      "anonymous": false,
      "inputs": [
        {
          "indexed": true,
          "internalType": "uint256",
          "name": "roundId",
          "type": "uint256"
        },
        {
          "indexed": true,
          "internalType": "address",
          "name": "contributor",
          "type": "address"
        },
        {
          "indexed": false,
          "internalType": "bytes32",
          "name": "commitment",
          "type": "bytes32"
        },
        {
          "indexed": false,
          "internalType": "uint256",
          "name": "timestamp",
          "type": "uint256"
        }
      ],
      "name": "EntropyCommitted",
      "type": "event"
    },
    {
      "anonymous": false,
      "inputs": [
        {
          "indexed": true,
          "internalType": "uint256",
          "name": "roundId",
          "type": "uint256"
        },
        {
          "indexed": true,
          "internalType": "address",
          "name": "contributor",
          "type": "address"
        },
        {
          "indexed": false,
          "internalType": "bytes32",
          "name": "entropy",
          "type": "bytes32"
        },
        {
          "indexed": false,
          "internalType": "uint256",
          "name": "timestamp",
          "type": "uint256"
        }
      ],
      "name": "EntropyRevealed",
      "type": "event"
    },
    {
      "anonymous": false,
      "inputs": [
        {
          "indexed": true,
          "internalType": "address",
          "name": "previousOwner",
          "type": "address"
        },
        {
          "indexed": true,
          "internalType": "address",
          "name": "newOwner",
          "type": "address"
        }
      ],
      "name": "OwnershipTransferred",
      "type": "event"
    },
    {
      "anonymous": false,
      "inputs": [
        {
          "indexed": false,
          "internalType": "address",
          "name": "account",
          "type": "address"
        }
      ],
      "name": "Paused",
      "type": "event"
    },
    {
      "anonymous": false,
      "inputs": [
        {
          "indexed": true,
          "internalType": "address",
          "name": "contributor",
          "type": "address"
        },
        {
          "indexed": false,
          "internalType": "uint256",
          "name": "oldReputation",
          "type": "uint256"
        },
        {
          "indexed": false,
          "internalType": "uint256",
          "name": "newReputation",
          "type": "uint256"
        }
      ],
      "name": "ReputationUpdated",
      "type": "event"
    },
    {
      "anonymous": false,
      "inputs": [
        {
          "indexed": true,
          "internalType": "uint256",
          "name": "roundId",
          "type": "uint256"
        },
        {
          "indexed": false,
          "internalType": "bytes32",
          "name": "finalSeed",
          "type": "bytes32"
        },
        {
          "indexed": false,
          "internalType": "uint256",
          "name": "totalContributors",
          "type": "uint256"
        },
        {
          "indexed": false,
          "internalType": "uint256",
          "name": "totalEntropy",
          "type": "uint256"
        },
        {
          "indexed": false,
          "internalType": "uint256",
          "name": "timestamp",
          "type": "uint256"
        }
      ],
      "name": "RoundCompleted",
      "type": "event"
    },
    {
      "anonymous": false,
      "inputs": [
        {
          "indexed": true,
          "internalType": "uint256",
          "name": "roundId",
          "type": "uint256"
        },
        {
          "indexed": false,
          "internalType": "uint256",
          "name": "startTime",
          "type": "uint256"
        },
        {
          "indexed": false,
          "internalType": "uint256",
          "name": "commitPhaseEnd",
          "type": "uint256"
        },
        {
          "indexed": false,
          "internalType": "uint256",
          "name": "revealPhaseEnd",
          "type": "uint256"
        }
      ],
      "name": "RoundStarted",
      "type": "event"
    },
    {
      "anonymous": false,
      "inputs": [
        {
          "indexed": false,
          "internalType": "address",
          "name": "account",
          "type": "address"
        }
      ],
      "name": "Unpaused",
      "type": "event"
    },
    {
      "inputs": [],
      "name": "COMMIT_PHASE_DURATION",
      "outputs": [
        {
          "internalType": "uint256",
          "name": "",
          "type": "uint256"
        }
      ],
      "stateMutability": "view",
      "type": "function"
    },
    {
      "inputs": [],
      "name": "MAX_CONTRIBUTORS",
      "outputs": [
        {
          "internalType": "uint256",
          "name": "",
          "type": "uint256"
        }
      ],
      "stateMutability": "view",
      "type": "function"
    },
    {
      "inputs": [],
      "name": "MIN_CONTRIBUTORS",
      "outputs": [
        {
          "internalType": "uint256",
          "name": "",
          "type": "uint256"
        }
      ],
      "stateMutability": "view",
      "type": "function"
    },
    {
      "inputs": [],
      "name": "MIN_ENTROPY_BITS",
      "outputs": [
        {
          "internalType": "uint256",
          "name": "",
          "type": "uint256"
        }
      ],
      "stateMutability": "view",
      "type": "function"
    },
    {
      "inputs": [],
      "name": "REPUTATION_THRESHOLD",
      "outputs": [
        {
          "internalType": "uint256",
          "name": "",
          "type": "uint256"
        }
      ],
      "stateMutability": "view",
      "type": "function"
    },
    {
      "inputs": [],
      "name": "REVEAL_PHASE_DURATION",
      "outputs": [
        {
          "internalType": "uint256",
          "name": "",
          "type": "uint256"
        }
      ],
      "stateMutability": "view",
      "type": "function"
    },
    {
      "inputs": [],
      "name": "activeContributors",
      "outputs": [
        {
          "internalType": "uint256",
          "name": "",
          "type": "uint256"
        }
      ],
      "stateMutability": "view",
      "type": "function"
    },
    {
      "inputs": [
        {
          "internalType": "address",
          "name": "",
          "type": "address"
        }
      ],
      "name": "blacklistedContributors",
      "outputs": [
        {
          "internalType": "bool",
          "name": "",
          "type": "bool"
        }
      ],
      "stateMutability": "view",
      "type": "function"
    },
    {
      "inputs": [
        {
          "internalType": "bytes32",
          "name": "commitment",
          "type": "bytes32"
        }
      ],
      "name": "commitEntropy",
      "outputs": [],
      "stateMutability": "nonpayable",
      "type": "function"
    },
    {
      "inputs": [
        {
          "internalType": "uint256",
          "name": "roundId",
          "type": "uint256"
        }
      ],
      "name": "completeRound",
      "outputs": [],
      "stateMutability": "nonpayable",
      "type": "function"
    },
    {
      "inputs": [
        {
          "internalType": "address",
          "name": "",
          "type": "address"
        }
      ],
      "name": "contributorData",
      "outputs": [
        {
          "internalType": "uint256",
          "name": "totalContributions",
          "type": "uint256"
        },
        {
          "internalType": "uint256",
          "name": "successfulReveals",
          "type": "uint256"
        },
        {
          "internalType": "uint256",
          "name": "failedReveals",
          "type": "uint256"
        },
        {
          "internalType": "uint256",
          "name": "lastContribution",
          "type": "uint256"
        },
        {
          "internalType": "bool",
          "name": "isBlacklisted",
          "type": "bool"
        },
        {
          "internalType": "uint256",
          "name": "reputation",
          "type": "uint256"
        }
      ],
      "stateMutability": "view",
      "type": "function"
    },
    {
      "inputs": [],
      "name": "currentRoundId",
      "outputs": [
        {
          "internalType": "uint256",
          "name": "",
          "type": "uint256"
        }
      ],
      "stateMutability": "view",
      "type": "function"
    },
    {
      "inputs": [
        {
          "internalType": "bool",
          "name": "pause",
          "type": "bool"
        }
      ],
      "name": "emergencyPause",
      "outputs": [],
      "stateMutability": "nonpayable",
      "type": "function"
    },
    {
      "inputs": [
        {
          "internalType": "bytes32",
          "name": "seed",
          "type": "bytes32"
        },
        {
          "internalType": "uint256",
          "name": "maxValue",
          "type": "uint256"
        }
      ],
      "name": "generateRandomNumber",
      "outputs": [
        {
          "internalType": "uint256",
          "name": "",
          "type": "uint256"
        }
      ],
      "stateMutability": "view",
      "type": "function"
    },
    {
      "inputs": [
        {
          "internalType": "address",
          "name": "contributor",
          "type": "address"
        }
      ],
      "name": "getContributorData",
      "outputs": [
        {
          "components": [
            {
              "internalType": "uint256",
              "name": "totalContributions",
              "type": "uint256"
            },
            {
              "internalType": "uint256",
              "name": "successfulReveals",
              "type": "uint256"
            },
            {
              "internalType": "uint256",
              "name": "failedReveals",
              "type": "uint256"
            },
            {
              "internalType": "uint256",
              "name": "lastContribution",
              "type": "uint256"
            },
            {
              "internalType": "bool",
              "name": "isBlacklisted",
              "type": "bool"
            },
            {
              "internalType": "uint256",
              "name": "reputation",
              "type": "uint256"
            }
          ],
          "internalType": "struct PizzaPartyAdvancedRandomness.ContributorData",
          "name": "",
          "type": "tuple"
        }
      ],
      "stateMutability": "view",
      "type": "function"
    },
    {
      "inputs": [],
      "name": "getCurrentRoundInfo",
      "outputs": [
        {
          "internalType": "uint256",
          "name": "roundId",
          "type": "uint256"
        },
        {
          "internalType": "uint256",
          "name": "startTime",
          "type": "uint256"
        },
        {
          "internalType": "uint256",
          "name": "commitPhaseEnd",
          "type": "uint256"
        },
        {
          "internalType": "uint256",
          "name": "revealPhaseEnd",
          "type": "uint256"
        },
        {
          "internalType": "bool",
          "name": "isCompleted",
          "type": "bool"
        },
        {
          "internalType": "uint256",
          "name": "_totalContributors",
          "type": "uint256"
        },
        {
          "internalType": "uint256",
          "name": "totalEntropy",
          "type": "uint256"
        }
      ],
      "stateMutability": "view",
      "type": "function"
    },
    {
      "inputs": [
        {
          "internalType": "uint256",
          "name": "roundId",
          "type": "uint256"
        }
      ],
      "name": "getFinalSeed",
      "outputs": [
        {
          "internalType": "bytes32",
          "name": "",
          "type": "bytes32"
        }
      ],
      "stateMutability": "view",
      "type": "function"
    },
    {
      "inputs": [
        {
          "internalType": "uint256",
          "name": "roundId",
          "type": "uint256"
        }
      ],
      "name": "getRoundContributors",
      "outputs": [
        {
          "internalType": "address[]",
          "name": "",
          "type": "address[]"
        }
      ],
      "stateMutability": "view",
      "type": "function"
    },
    {
      "inputs": [],
      "name": "owner",
      "outputs": [
        {
          "internalType": "address",
          "name": "",
          "type": "address"
        }
      ],
      "stateMutability": "view",
      "type": "function"
    },
    {
      "inputs": [],
      "name": "paused",
      "outputs": [
        {
          "internalType": "bool",
          "name": "",
          "type": "bool"
        }
      ],
      "stateMutability": "view",
      "type": "function"
    },
    {
      "inputs": [
        {
          "internalType": "uint256",
          "name": "",
          "type": "uint256"
        }
      ],
      "name": "randomnessRounds",
      "outputs": [
        {
          "internalType": "uint256",
          "name": "roundId",
          "type": "uint256"
        },
        {
          "internalType": "uint256",
          "name": "startTime",
          "type": "uint256"
        },
        {
          "internalType": "uint256",
          "name": "endTime",
          "type": "uint256"
        },
        {
          "internalType": "uint256",
          "name": "commitPhaseEnd",
          "type": "uint256"
        },
        {
          "internalType": "uint256",
          "name": "revealPhaseEnd",
          "type": "uint256"
        },
        {
          "internalType": "bytes32",
          "name": "finalSeed",
          "type": "bytes32"
        },
        {
          "internalType": "bool",
          "name": "isCompleted",
          "type": "bool"
        },
        {
          "internalType": "uint256",
          "name": "totalContributors",
          "type": "uint256"
        },
        {
          "internalType": "uint256",
          "name": "totalEntropy",
          "type": "uint256"
        }
      ],
      "stateMutability": "view",
      "type": "function"
    },
    {
      "inputs": [],
      "name": "renounceOwnership",
      "outputs": [],
      "stateMutability": "nonpayable",
      "type": "function"
    },
    {
      "inputs": [
        {
          "internalType": "bytes32",
          "name": "entropy",
          "type": "bytes32"
        },
        {
          "internalType": "bytes32",
          "name": "salt",
          "type": "bytes32"
        }
      ],
      "name": "revealEntropy",
      "outputs": [],
      "stateMutability": "nonpayable",
      "type": "function"
    },
    {
      "inputs": [
        {
          "internalType": "address",
          "name": "contributor",
          "type": "address"
        },
        {
          "internalType": "bool",
          "name": "blacklisted",
          "type": "bool"
        }
      ],
      "name": "setContributorBlacklist",
      "outputs": [],
      "stateMutability": "nonpayable",
      "type": "function"
    },
    {
      "inputs": [],
      "name": "startNewRound",
      "outputs": [],
      "stateMutability": "nonpayable",
      "type": "function"
    },
    {
      "inputs": [],
      "name": "totalContributors",
      "outputs": [
        {
          "internalType": "uint256",
          "name": "",
          "type": "uint256"
        }
      ],
      "stateMutability": "view",
      "type": "function"
    },
    {
      "inputs": [],
      "name": "totalEntropyGenerated",
      "outputs": [
        {
          "internalType": "uint256",
          "name": "",
          "type": "uint256"
        }
      ],
      "stateMutability": "view",
      "type": "function"
    },
    {
      "inputs": [],
      "name": "totalRounds",
      "outputs": [
        {
          "internalType": "uint256",
          "name": "",
          "type": "uint256"
        }
      ],
      "stateMutability": "view",
      "type": "function"
    },
    {
      "inputs": [
        {
          "internalType": "address",
          "name": "newOwner",
          "type": "address"
        }
      ],
      "name": "transferOwnership",
      "outputs": [],
      "stateMutability": "nonpayable",
      "type": "function"
    },
    {
      "inputs": [
        {
          "internalType": "address",
          "name": "contributor",
          "type": "address"
        },
        {
          "internalType": "uint256",
          "name": "newReputation",
          "type": "uint256"
        }
      ],
      "name": "updateReputation",
      "outputs": [],
      "stateMutability": "nonpayable",
      "type": "function"
    }
  ],
  "bytecode": "0x6080806040523461008957600160005533156100735760018054336001600160a01b03198216811790925560405191906001600160a01b03167f8be0079c531659141344cd1fd0a4f28419497f9722a3daafe3b4186f6b6457e0600080a3600160035560006004556114a0908161008f8239f35b631e4fbdf760e01b815260006004820152602490fd5b600080fdfe6040608081526004908136101561001557600080fd5b600091823560e01c9081630652cb6f14610ed6578163081d463914610e335781630d3c15cc14610e16578163128f173314610df757816314d510d314610d8457816321f932e914610d6857816335c8c2c014610d4c57816342296a1414610d30578163530d58c814610ca45781635c975abb14610c7d578163625b818614610bf2578163715018a614610ba4578163747dff4214610b37578163837b407914610a4d5781638a56829914610a2f5781638da5cb5b14610a065781639cbe5efd146109e75781639f4bca26146109cb578163a789e29c146108fa578163a80d49841461084f578163a978237714610598578163aceb5dc71461055a578163bd85948c1461040a578163c988fb26146103ed578163dd03c6f214610368578163e8f6940e1461029b578163f251fc8c1461027c578163f2fde38b1461020057508063f5c91a081461018e5763f985f3631461016d57600080fd5b3461018a578160031936011261018a576020906007549051908152f35b5080fd5b503461018a578060031936011261018a577f5b88a2e3fc1a53234357ab78c104df11c33ccfa79886793654565ad70b8afb6e6101c861118f565b91602435926101d561141e565b60018060a01b031692838552600560205260058286200190808254925582519182526020820152a280f35b9050346102785760203660031901126102785761021b61118f565b9061022461141e565b6001600160a01b03918216928315610262575050600180546001600160a01b0319811684179091551660008051602061144b8339815191528380a380f35b51631e4fbdf760e01b8152908101849052602490fd5b8280fd5b50503461018a578160031936011261018a576020906008549051908152f35b9050346102785760203660031901126102785780358015158103610364576102c161141e565b1561030e575060207f62e78cea01bee320cd4e420270b5ea74000d11b0c9f74754ebdbfc544b05a258916102f361130b565b6001805460ff60a01b1916600160a01b17905551338152a180f35b6001549060ff8260a01c1615610356575060ff60a01b1916600155513381527f5db9ee0a495bf2e6ff9c91a7834c1ba4fdd244a5e8aa4e537bd38aeae4b073aa90602090a180f35b8251638dfc202b60e01b8152fd5b8380fd5b905034610278576020366003190112610278578161012093823581526002602052208054926001820154926002830154906003840154908401549060058501549260ff6006870154169460086007880154970154978151998a5260208a01528801526060870152608086015260a0850152151560c084015260e0830152610100820152f35b50503461018a578160031936011261018a57602090516107088152f35b83833461018a578160031936011261018a5761042461141e565b61042c61130b565b8254158015610540575b156105005760035490610e104201908142116104ed576115184201908183116104da57916060917ffd9d17e5565deea3d25918d95fc398673b9445ef0a96d12eaf3ab2b198756c659387868852600260205287600883822089815542600182015585600282015586600382015585848201556006810160ff19815416905582600782015501556104c68154611237565b90558051924284526020840152820152a280f35b634e487b7160e01b855260118652602485fd5b634e487b7160e01b845260118552602484fd5b5162461bcd60e51b8152602081840152601b60248201527a10dd5c9c995b9d081c9bdd5b99081b9bdd0818dbdb5c1b195d1959602a1b6044820152606490fd5b506003548252600260205260ff6006828420015416610436565b50503461018a57602036600319011261018a5760209160ff9082906001600160a01b0361058561118f565b1681526006855220541690519015158152f35b83833461018a57602080600319360112610278578335916105b76112e8565b6105bf61130b565b600354808552600283526105dc60ff6006848820015416156111aa565b808552600283526003828620015442116108175780855260028352600b82862001338652835260ff82862054166107e0573385526006835261062460ff83872054161561129f565b3385526005835261063d60ff878488200154161561129f565b83156107a857845260028252808420600781019060328254101561076a57338652600981018452828620859055600b81018452828620805460ff19166001179055600c01805490600160401b82101561075757600182018082558210156107445786528386200180546001600160a01b0319163317905580547fe489bb09566f694041dc6d2fe02042b827d96af1aa4d6e6f51d3105c6da8ca779291906106e390611237565b90553385526005835260018186206106fb8154611237565b9081815560034291015514610723575b60035492815194855242908501523393a36001815580f35b61072e600854611237565b60085561073c600954611237565b60095561070b565b634e487b7160e01b875260328852602487fd5b634e487b7160e01b875260418852602487fd5b825162461bcd60e51b8152808801859052601860248201527713585e0818dbdb9d1c9a589d5d1bdc9cc81c995858da195960421b6044820152606490fd5b815162461bcd60e51b81528087018490526012602482015271125b9d985b1a590818dbdb5b5a5d1b595b9d60721b6044820152606490fd5b815162461bcd60e51b81528087018490526011602482015270105b1c9958591e4818dbdb5b5a5d1d1959607a1b6044820152606490fd5b815162461bcd60e51b8152808701849052601260248201527110dbdb5b5a5d081c1a185cd948195b99195960721b6044820152606490fd5b83833461018a578060031936011261018a576024359081156108bb578051843560208201908152428284015282825260608201949092906001600160401b038611838710176108a8575060209550849052519020068152f35b634e487b7160e01b815260418752602490fd5b5162461bcd60e51b8152602081850152601a6024820152794d61782076616c7565206d75737420626520706f73697469766560301b6044820152606490fd5b905034610278576020366003190112610278578160c09361091961118f565b8160a08451610927816111eb565b8281528260208201528286820152826060820152826080820152015260018060a01b0316815260056020522082519161095f836111eb565b81549384845260018301546020850190815260028401549082860191825260a0600560ff60038801549660608a019788528801541696608089019715158852015496019586528251968752516020870152519085015251606084015251151560808301525160a0820152f35b50503461018a578160031936011261018a576020905160328152f35b50503461018a578160031936011261018a576020906003549051908152f35b50503461018a578160031936011261018a5760015490516001600160a01b039091168152602090f35b90503461027857826003193601126102785760209250549051908152f35b83833461018a57602080600319360112610278578335610a70855482111561125c565b835260028152600c8284200192825192838386549182815201908196845284842090845b86828210610b1a5750505050849003601f01601f19168401956001600160401b03871185881017610b07575085815282865292518583018190528594938501939290915b828110610ae757505050500390f35b83516001600160a01b031685528695509381019392810192600101610ad8565b634e487b7160e01b835260419052602482fd5b83546001600160a01b031685529093019260019283019201610a94565b9050346102785782600319360112610278578160e09360035481526002602052208054926001820154926003830154908301549060ff6006850154169260086007860154950154958151978852602088015286015260608501521515608084015260a083015260c0820152f35b8334610bef5780600319360112610bef57610bbd61141e565b600180546001600160a01b0319811690915581906001600160a01b031660008051602061144b8339815191528280a380f35b80fd5b90503461027857602036600319011261027857803591610c1061141e565b610c1d825484111561125c565b828452600260205260ff6006828620015416610c405783610c3d8461132c565b80f35b906020606492519162461bcd60e51b83528201526017602482015276149bdd5b9908185b1c9958591e4818dbdb5c1b195d1959604a1b6044820152fd5b50503461018a578160031936011261018a5760209060ff60015460a01c1690519015158152f35b8391503461018a57602036600319011261018a57803590610cc8815483111561125c565b818352600260205260ff600685852001541615610cf75760208460058186868152600285522001549051908152f35b606490602085519162461bcd60e51b83528201526013602482015272149bdd5b99081b9bdd0818dbdb5c1b195d1959606a1b6044820152fd5b50503461018a578160031936011261018a5760209051600a8152f35b50503461018a578160031936011261018a576020905160808152f35b50503461018a578160031936011261018a576020905160038152f35b919050346102785760203660031901126102785760c09281906001600160a01b03610dad61118f565b168152600560205220805492600182015492600283015490600560ff60038601549486015416940154948151968752602087015285015260608401521515608083015260a0820152f35b50503461018a578160031936011261018a576020906009549051908152f35b50503461018a578160031936011261018a5760209051610e108152f35b91905034610278578060031936011261027857610e4e61118f565b906024359081151590818303610ed257610eca6020937f221f4ac876a79567d1bc0437c204759623decaff06f75e6db6b2abdc7e9f5e7095610e8e61141e565b6001600160a01b031680895260068652838920805460ff191660ff841515161790559660058652838920019060ff801983541691151516179055565b51908152a280f35b8580fd5b90503461027857816003193601126102785780356024610ef46112e8565b610efc61130b565b60035492838652600291602092808452610f1f60ff6006898b20015416156111aa565b85885280845286882083600382015442119182611181575b50501561114a57858852808452600a87892001338952845260ff878920541661111657858852808452600b87892001338952845260ff8789205416156110df578651958487018681528335898901523360601b9788606082015260548152610f9e8161121c565b519020818a528286526009898b2001338b528652888a2054036110a3578852835285872094338852600a86018452868820600160ff198254161790556008860190815490885190868201928352878a8301526060820152605481526110028161121c565b5190209055338752600583526005868820600181016110218154611237565b9055019081549260018401809411611092575050916007939160039593557f4d05967e1b3f93b340034dd64c424dcbf5cd3dd08e82e5902648cd6df87f7c218554968792815194855242908501523393a301541015611083575b506001815580f35b61108c9061132c565b3861107b565b634e487b7160e01b89526011905287fd5b875162461bcd60e51b815280850186905260178185015276125b9d985b1a5908195b9d1c9bdc1e481bdc881cd85b1d604a1b6044820152606490fd5b5060139060649387519362461bcd60e51b855284015282015272139bc818dbdb5b5a5d1b595b9d08199bdd5b99606a1b6044820152fd5b5060109060649387519362461bcd60e51b85528401528201526f105b1c9958591e481c995d99585b195960821b6044820152fd5b5060139060649387519362461bcd60e51b8552840152820152724e6f7420696e2072657665616c20706861736560681b6044820152fd5b015442111590508338610f37565b600435906001600160a01b03821682036111a557565b600080fd5b156111b157565b60405162461bcd60e51b8152602060048201526012602482015271149bdd5b99081a5cc818dbdb5c1b195d195960721b6044820152606490fd5b60c081019081106001600160401b0382111761120657604052565b634e487b7160e01b600052604160045260246000fd5b608081019081106001600160401b0382111761120657604052565b60001981146112465760010190565b634e487b7160e01b600052601160045260246000fd5b1561126357565b60405162461bcd60e51b8152602060048201526014602482015273149bdd5b9908191bd95cc81b9bdd08195e1a5cdd60621b6044820152606490fd5b156112a657565b60405162461bcd60e51b815260206004820152601a60248201527910dbdb9d1c9a589d5d1bdc881a5cc8189b1858dadb1a5cdd195960321b6044820152606490fd5b6002600054146112f9576002600055565b604051633ee5aeb560e01b8152600490fd5b60ff60015460a01c1661131a57565b60405163d93c066560e01b8152600490fd5b6000818152600260205260408082209060088201918254815483516020810191838352858201524260608201524460808201526080815260a0810181811060018060401b0382111761140a5785525190209485600584015560068301600160ff198254161790556007549182018092116113f65750916007608094927fe6a0abe27726603963c9e6523ef0c878b5fed15353882eee70bba62c6f069577969482556113d8600354611237565b600355015491549181519384526020840152820152426060820152a2565b634e487b7160e01b81526011600452602490fd5b634e487b7160e01b88526041600452602488fd5b6001546001600160a01b0316330361143257565b60405163118cdaa760e01b8152336004820152602490fdfe8be0079c531659141344cd1fd0a4f28419497f9722a3daafe3b4186f6b6457e0a2646970667358221220f8df381daf774808a174cfad129d12cc014d3d439411695c128d557855402dc664736f6c63430008180033",
  "linkReferences": {},
  "deployedLinkReferences": {}
}