{
  "_format": "hh-sol-artifact-1",
  "contractName": "PizzaPartyDynamicPricing",
  "sourceName": "contracts/PizzaPartyDynamicPricing.sol",
  "abi": [
    {
      "inputs": [
        {
          "internalType": "address",
          "name": "_vmfToken",
          "type": "address"
        },
        {
          "internalType": "address",
          "name": "_priceOracle",
          "type": "address"
        }
      ],
      "stateMutability": "nonpayable",
      "type": "constructor"
    },
    {
      "inputs": [],
      "name": "EnforcedPause",
      "type": "error"
    },
    {
      "inputs": [],
      "name": "ExpectedPause",
      "type": "error"
    },
    {
      "inputs": [
        {
          "internalType": "address",
          "name": "owner",
          "type": "address"
        }
      ],
      "name": "OwnableInvalidOwner",
      "type": "error"
    },
    {
      "inputs": [
        {
          "internalType": "address",
          "name": "account",
          "type": "address"
        }
      ],
      "name": "OwnableUnauthorizedAccount",
      "type": "error"
    },
    {
      "inputs": [],
      "name": "ReentrancyGuardReentrantCall",
      "type": "error"
    },
    {
      "anonymous": false,
      "inputs": [
        {
          "indexed": false,
          "internalType": "uint256",
          "name": "vmfPrice",
          "type": "uint256"
        },
        {
          "indexed": false,
          "internalType": "uint256",
          "name": "calculatedFee",
          "type": "uint256"
        },
        {
          "indexed": false,
          "internalType": "uint256",
          "name": "actualFee",
          "type": "uint256"
        },
        {
          "indexed": false,
          "internalType": "uint256",
          "name": "timestamp",
          "type": "uint256"
        }
      ],
      "name": "DynamicFeeCalculated",
      "type": "event"
    },
    {
      "anonymous": false,
      "inputs": [
        {
          "indexed": true,
          "internalType": "address",
          "name": "user",
          "type": "address"
        },
        {
          "indexed": false,
          "internalType": "uint256",
          "name": "feeAmount",
          "type": "uint256"
        },
        {
          "indexed": false,
          "internalType": "uint256",
          "name": "vmfPrice",
          "type": "uint256"
        },
        {
          "indexed": false,
          "internalType": "uint256",
          "name": "timestamp",
          "type": "uint256"
        }
      ],
      "name": "FeeCollected",
      "type": "event"
    },
    {
      "anonymous": false,
      "inputs": [
        {
          "indexed": true,
          "internalType": "address",
          "name": "previousOwner",
          "type": "address"
        },
        {
          "indexed": true,
          "internalType": "address",
          "name": "newOwner",
          "type": "address"
        }
      ],
      "name": "OwnershipTransferred",
      "type": "event"
    },
    {
      "anonymous": false,
      "inputs": [
        {
          "indexed": false,
          "internalType": "address",
          "name": "account",
          "type": "address"
        }
      ],
      "name": "Paused",
      "type": "event"
    },
    {
      "anonymous": false,
      "inputs": [
        {
          "indexed": true,
          "internalType": "address",
          "name": "oldOracle",
          "type": "address"
        },
        {
          "indexed": true,
          "internalType": "address",
          "name": "newOracle",
          "type": "address"
        }
      ],
      "name": "PriceOracleUpdated",
      "type": "event"
    },
    {
      "anonymous": false,
      "inputs": [
        {
          "indexed": false,
          "internalType": "uint256",
          "name": "baseEntryFee",
          "type": "uint256"
        },
        {
          "indexed": false,
          "internalType": "uint256",
          "name": "maxPriceDeviation",
          "type": "uint256"
        },
        {
          "indexed": false,
          "internalType": "uint256",
          "name": "priceUpdateThreshold",
          "type": "uint256"
        },
        {
          "indexed": false,
          "internalType": "uint256",
          "name": "minEntryFee",
          "type": "uint256"
        },
        {
          "indexed": false,
          "internalType": "uint256",
          "name": "maxEntryFee",
          "type": "uint256"
        },
        {
          "indexed": false,
          "internalType": "uint256",
          "name": "feeMultiplier",
          "type": "uint256"
        }
      ],
      "name": "PricingConfigUpdated",
      "type": "event"
    },
    {
      "anonymous": false,
      "inputs": [
        {
          "indexed": false,
          "internalType": "address",
          "name": "account",
          "type": "address"
        }
      ],
      "name": "Unpaused",
      "type": "event"
    },
    {
      "inputs": [],
      "name": "calculateDynamicEntryFee",
      "outputs": [
        {
          "internalType": "uint256",
          "name": "feeAmount",
          "type": "uint256"
        },
        {
          "internalType": "uint256",
          "name": "vmfPrice",
          "type": "uint256"
        }
      ],
      "stateMutability": "view",
      "type": "function"
    },
    {
      "inputs": [
        {
          "internalType": "address",
          "name": "user",
          "type": "address"
        }
      ],
      "name": "collectEntryFee",
      "outputs": [
        {
          "internalType": "uint256",
          "name": "feeAmount",
          "type": "uint256"
        }
      ],
      "stateMutability": "nonpayable",
      "type": "function"
    },
    {
      "inputs": [
        {
          "internalType": "bool",
          "name": "pause",
          "type": "bool"
        }
      ],
      "name": "emergencyPause",
      "outputs": [],
      "stateMutability": "nonpayable",
      "type": "function"
    },
    {
      "inputs": [
        {
          "internalType": "uint256",
          "name": "",
          "type": "uint256"
        }
      ],
      "name": "feeHistory",
      "outputs": [
        {
          "internalType": "uint256",
          "name": "timestamp",
          "type": "uint256"
        },
        {
          "internalType": "uint256",
          "name": "vmfPrice",
          "type": "uint256"
        },
        {
          "internalType": "uint256",
          "name": "calculatedFee",
          "type": "uint256"
        },
        {
          "internalType": "uint256",
          "name": "actualFee",
          "type": "uint256"
        },
        {
          "internalType": "uint256",
          "name": "blockNumber",
          "type": "uint256"
        }
      ],
      "stateMutability": "view",
      "type": "function"
    },
    {
      "inputs": [],
      "name": "feeHistoryCount",
      "outputs": [
        {
          "internalType": "uint256",
          "name": "",
          "type": "uint256"
        }
      ],
      "stateMutability": "view",
      "type": "function"
    },
    {
      "inputs": [],
      "name": "getCurrentEntryFee",
      "outputs": [
        {
          "internalType": "uint256",
          "name": "",
          "type": "uint256"
        }
      ],
      "stateMutability": "view",
      "type": "function"
    },
    {
      "inputs": [
        {
          "internalType": "uint256",
          "name": "startIndex",
          "type": "uint256"
        },
        {
          "internalType": "uint256",
          "name": "count",
          "type": "uint256"
        }
      ],
      "name": "getFeeHistory",
      "outputs": [
        {
          "components": [
            {
              "internalType": "uint256",
              "name": "timestamp",
              "type": "uint256"
            },
            {
              "internalType": "uint256",
              "name": "vmfPrice",
              "type": "uint256"
            },
            {
              "internalType": "uint256",
              "name": "calculatedFee",
              "type": "uint256"
            },
            {
              "internalType": "uint256",
              "name": "actualFee",
              "type": "uint256"
            },
            {
              "internalType": "uint256",
              "name": "blockNumber",
              "type": "uint256"
            }
          ],
          "internalType": "struct PizzaPartyDynamicPricing.FeeHistory[]",
          "name": "",
          "type": "tuple[]"
        }
      ],
      "stateMutability": "view",
      "type": "function"
    },
    {
      "inputs": [],
      "name": "getPricingStats",
      "outputs": [
        {
          "internalType": "uint256",
          "name": "_totalFeesCollected",
          "type": "uint256"
        },
        {
          "internalType": "uint256",
          "name": "_totalEntries",
          "type": "uint256"
        },
        {
          "internalType": "uint256",
          "name": "_averageFee",
          "type": "uint256"
        },
        {
          "internalType": "uint256",
          "name": "_lastVMFPrice",
          "type": "uint256"
        },
        {
          "internalType": "uint256",
          "name": "_lastPriceUpdate",
          "type": "uint256"
        }
      ],
      "stateMutability": "view",
      "type": "function"
    },
    {
      "inputs": [],
      "name": "getVMFPrice",
      "outputs": [
        {
          "internalType": "uint256",
          "name": "",
          "type": "uint256"
        }
      ],
      "stateMutability": "view",
      "type": "function"
    },
    {
      "inputs": [],
      "name": "lastPriceUpdate",
      "outputs": [
        {
          "internalType": "uint256",
          "name": "",
          "type": "uint256"
        }
      ],
      "stateMutability": "view",
      "type": "function"
    },
    {
      "inputs": [],
      "name": "lastVMFPrice",
      "outputs": [
        {
          "internalType": "uint256",
          "name": "",
          "type": "uint256"
        }
      ],
      "stateMutability": "view",
      "type": "function"
    },
    {
      "inputs": [],
      "name": "owner",
      "outputs": [
        {
          "internalType": "address",
          "name": "",
          "type": "address"
        }
      ],
      "stateMutability": "view",
      "type": "function"
    },
    {
      "inputs": [],
      "name": "paused",
      "outputs": [
        {
          "internalType": "bool",
          "name": "",
          "type": "bool"
        }
      ],
      "stateMutability": "view",
      "type": "function"
    },
    {
      "inputs": [],
      "name": "priceOracle",
      "outputs": [
        {
          "internalType": "contract IPriceOracle",
          "name": "",
          "type": "address"
        }
      ],
      "stateMutability": "view",
      "type": "function"
    },
    {
      "inputs": [],
      "name": "pricingConfig",
      "outputs": [
        {
          "internalType": "uint256",
          "name": "baseEntryFee",
          "type": "uint256"
        },
        {
          "internalType": "uint256",
          "name": "maxPriceDeviation",
          "type": "uint256"
        },
        {
          "internalType": "uint256",
          "name": "priceUpdateThreshold",
          "type": "uint256"
        },
        {
          "internalType": "uint256",
          "name": "minEntryFee",
          "type": "uint256"
        },
        {
          "internalType": "uint256",
          "name": "maxEntryFee",
          "type": "uint256"
        },
        {
          "internalType": "uint256",
          "name": "feeMultiplier",
          "type": "uint256"
        }
      ],
      "stateMutability": "view",
      "type": "function"
    },
    {
      "inputs": [],
      "name": "renounceOwnership",
      "outputs": [],
      "stateMutability": "nonpayable",
      "type": "function"
    },
    {
      "inputs": [],
      "name": "totalEntries",
      "outputs": [
        {
          "internalType": "uint256",
          "name": "",
          "type": "uint256"
        }
      ],
      "stateMutability": "view",
      "type": "function"
    },
    {
      "inputs": [],
      "name": "totalFeesCollected",
      "outputs": [
        {
          "internalType": "uint256",
          "name": "",
          "type": "uint256"
        }
      ],
      "stateMutability": "view",
      "type": "function"
    },
    {
      "inputs": [
        {
          "internalType": "address",
          "name": "newOwner",
          "type": "address"
        }
      ],
      "name": "transferOwnership",
      "outputs": [],
      "stateMutability": "nonpayable",
      "type": "function"
    },
    {
      "inputs": [
        {
          "internalType": "address",
          "name": "_newOracle",
          "type": "address"
        }
      ],
      "name": "updatePriceOracle",
      "outputs": [],
      "stateMutability": "nonpayable",
      "type": "function"
    },
    {
      "inputs": [
        {
          "internalType": "uint256",
          "name": "_baseEntryFee",
          "type": "uint256"
        },
        {
          "internalType": "uint256",
          "name": "_maxPriceDeviation",
          "type": "uint256"
        },
        {
          "internalType": "uint256",
          "name": "_priceUpdateThreshold",
          "type": "uint256"
        },
        {
          "internalType": "uint256",
          "name": "_minEntryFee",
          "type": "uint256"
        },
        {
          "internalType": "uint256",
          "name": "_maxEntryFee",
          "type": "uint256"
        },
        {
          "internalType": "uint256",
          "name": "_feeMultiplier",
          "type": "uint256"
        }
      ],
      "name": "updatePricingConfig",
      "outputs": [],
      "stateMutability": "nonpayable",
      "type": "function"
    },
    {
      "inputs": [],
      "name": "vmfToken",
      "outputs": [
        {
          "internalType": "contract IERC20",
          "name": "",
          "type": "address"
        }
      ],
      "stateMutability": "view",
      "type": "function"
    },
    {
      "inputs": [
        {
          "internalType": "address",
          "name": "recipient",
          "type": "address"
        }
      ],
      "name": "withdrawFees",
      "outputs": [],
      "stateMutability": "nonpayable",
      "type": "function"
    }
  ],
  "bytecode": "0x60a0604090808252346200027e57818162001626803803809162000024828562000283565b8339810103126200027e576200003a81620002bd565b620000496020809301620002bd565b600091600183553315620002665760018054336001600160a01b0319808316821790935587519492936001600160a01b03939284929083167f8be0079c531659141344cd1fd0a4f28419497f9722a3daafe3b4186f6b6457e08980a31693841562000224575016918215620001e0576080526002805490911682179055835160c081016001600160401b03811182821017620001cc57918491600494938752670de0b6b3a764000080825260328483015261012c8089840152816060840152606460a0683635c9adc5dea0000094856080820152015281600355603287556005556006556007556064600855855193848092638f09c85760e01b82525afa928315620001c057819362000186575b505050600b5542600c55516113539081620002d3823960805181818161037a01528181610ce50152610d4d0152f35b9091809350813d8311620001b8575b620001a1818362000283565b81010312620001b557505138808062000157565b80fd5b503d62000195565b508351903d90823e3d90fd5b634e487b7160e01b84526041600452602484fd5b855162461bcd60e51b815260048101869052601c60248201527f496e76616c6964207072696365206f7261636c652061646472657373000000006044820152606490fd5b62461bcd60e51b815260048101879052601960248201527f496e76616c696420564d4620746f6b656e2061646472657373000000000000006044820152606490fd5b8451631e4fbdf760e01b815260048101849052602490fd5b600080fd5b601f909101601f19168101906001600160401b03821190821017620002a757604052565b634e487b7160e01b600052604160045260246000fd5b51906001600160a01b03821682036200027e5756fe608060408181526004908136101561001657600080fd5b600092833560e01c9081630aa0169514610ff9575080630d35a16714610fb4578063102f733414610ee4578063164e68de14610d145780632086eefa14610cd05780632630c12f14610ca757806339d1fc8214610b8c57806359dcc36e14610b585780635c975abb14610b3157806360c6d8ae14610b125780636949faeb14610af35780636a6ad6e614610ad45780636b202121146108e6578063715018a61461089b5780637fef036e1461087c5780638da5cb5b146108535780638f09c857146107bb578063a1e2f06b1461079c578063bf1edb77146105de578063caa1ceef146102be578063d64dc32c1461026f578063e8f6940e146101a25763f2fde38b1461012157600080fd5b3461019e57602036600319011261019e576001600160a01b0382358181169391929084900361019a5761015261123c565b8315610184575050600180546001600160a01b031981168417909155166000805160206112fe8339815191528380a380f35b51631e4fbdf760e01b8152908101849052602490fd5b8480fd5b8280fd5b50903461019e57602036600319011261019e578035801515810361026b576101c861123c565b15610215575060207f62e78cea01bee320cd4e420270b5ea74000d11b0c9f74754ebdbfc544b05a258916101fa611268565b6001805460ff60a01b1916600160a01b17905551338152a180f35b6001549060ff8260a01c161561025d575060ff60a01b1916600155513381527f5db9ee0a495bf2e6ff9c91a7834c1ba4fdd244a5e8aa4e537bd38aeae4b073aa90602090a180f35b8251638dfc202b60e01b8152fd5b8380fd5b8382346102ba57816003193601126102ba57600d54600e549290916102b19184156102b5575061029f84846111eb565b600b5490600c54925195869586611055565b0390f35b61029f565b5080fd5b503461019e57602092836003193601126105db5782356001600160a01b038181169182900361019e5760028354146105cb57600283556102fc611268565b61030b81600254161515611110565b610317600c544261118e565b6005541061059757835163040bdccd60e21b81529484868281305afa91821561058d5784968593610558575b5061034d83611289565b1561051a5787859160648851809481936323b872dd60e01b835289888401523060248401528c60448401527f0000000000000000000000000000000000000000000000000000000000000000165af19081156105105785916104e3575b50156104aa57606060019493927f7e4199a81d431b89a16814e8730ae102c7b9b30c1a661bc67be86f4b185b1733926103e589600d5461116b565b600d556103f3600e546111dc565b600e5581600b5542600c5587519061040a826110a1565b4282528a8083018481528a84018c8152868501918d835260096080870194438652600a548d52528c8b2095518655518b86015551600285015551600384015551910155610458600a546111dc565b600a557fbb94e7daf29137b3ac850be0232d39c9fb595478d981aaf0dfe115ffdef5fc81608088518381528a8c8201528a8a8201524285820152a1865190888252898201524287820152a25551908152f35b845162461bcd60e51b81529081018790526013602482015272119959481d1c985b9cd9995c8819985a5b1959606a1b6044820152606490fd5b6105039150883d8a11610509575b6104fb81836110d2565b810190611153565b386103aa565b503d6104f1565b86513d87823e3d90fd5b855162461bcd60e51b815280830189905260186024820152770a0e4d2c6ca40c8caecd2c2e8d2dedc40e8dede40d0d2ced60431b6044820152606490fd5b90925061057c919650853d8711610586575b61057481836110d2565b8101906110f5565b9590959138610343565b503d61056a565b85513d86823e3d90fd5b835162461bcd60e51b8152808601879052600e60248201526d5072696365206973207374616c6560901b6044820152606490fd5b50505051633ee5aeb560e01b8152fd5b80fd5b509190346102ba57826003193601126102ba57803591600a54808410156107635761060b6024358561116b565b9080821161075b575b5061061f848261118e565b9261064161062c8561119b565b94610639885196876110d2565b80865261119b565b60209590601f190186855b82811061072957505050805b8381106106c35750505050835192808401908085528351809252808686019401925b8281106106875785850386f35b83518051865280830151868401528781015188870152606080820151908701526080908101519086015260a0909401939281019260010161067a565b806001918652600988526107228987206106dd858461118e565b90868c51916106eb836110a1565b80548352868101548d84015260028101548e840152600381015460608401520154608082015261071b828b6111b2565b52886111b2565b5001610658565b8951610734816110a1565b8781528783820152878b82015287606082015287608082015282828a01015201879061064c565b905038610614565b845162461bcd60e51b81526020818501526013602482015272092dcecc2d8d2c840e6e8c2e4e840d2dcc8caf606b1b6044820152606490fd5b8382346102ba57816003193601126102ba57602090600a549051908152f35b503461019e578260031936011261019e576002546020906001600160a01b03166107e6811515611110565b8251638f09c85760e01b815293849182905afa918215610849578392610811575b6020838351908152f35b9091506020813d602011610841575b8161082d602093836110d2565b8101031261019e5760209250519038610807565b3d9150610820565b81513d85823e3d90fd5b8382346102ba57816003193601126102ba5760015490516001600160a01b039091168152602090f35b8382346102ba57816003193601126102ba57602090600e549051908152f35b83346105db57806003193601126105db576108b461123c565b600180546001600160a01b0319811690915581906001600160a01b03166000805160206112fe8339815191528280a380f35b509190346102ba5760c03660031901126102ba57803560248035926044356064968735926084359460a4359961091a61123c565b8715610a9457808911610a5557868611610a15578a156109d5575082519060c08201906001600160401b038211838310176109c457506109be9694928b60a086948c947ff3eacac0bfed2d9b72b0274dd10f79e9c51efb67ec7b1050dc3992ad81f3bb989e9f9a98528b8152846020820152868682015287606082015288608082015201528860035555816005558260065583600755846008555196879687611079565b0390a180f35b634e487b7160e01b8b52604184528afd5b92906020601f92519362461bcd60e51b85528401528201527f466565206d756c7469706c696572206d75737420626520706f736974697665006044820152fd5b92906020601d92519362461bcd60e51b85528401528201527f4d696e206665652063616e6e6f7420657863656564206d6178206665650000006044820152fd5b929060208092519362461bcd60e51b85528401528201527f4d617820646576696174696f6e2063616e6e6f742065786365656420313030256044820152fd5b92906020601f92519362461bcd60e51b85528401528201527f4261736520656e74727920666565206d75737420626520706f736974697665006044820152fd5b8382346102ba57816003193601126102ba57602090600b549051908152f35b8382346102ba57816003193601126102ba57602090600c549051908152f35b8382346102ba57816003193601126102ba57602090600d549051908152f35b8382346102ba57816003193601126102ba5760209060ff60015460a01c1690519015158152f35b5091346105db57806003193601126105db57506102b160035491549260055460065460075491600854935196879687611079565b50903461019e5760208060031936011261026b576001600160a01b03823581811694919390859003610ca357610bc061123c565b8415610c6957600280546001600160a01b0319811687179091558251638f09c85760e01b8152909390918190839081895afa928315610c6057508692610c32575b5050600b5542600c55167f56b5f80d8cac1479698aa7d01605fd6111e90b15fc4d2b377417f46034876cbd8380a380f35b90809250813d8311610c59575b610c4981836110d2565b8101031261019a57513880610c01565b503d610c3f565b513d88823e3d90fd5b82606492519162461bcd60e51b83528201526016602482015275496e76616c6964206f7261636c65206164647265737360501b6044820152fd5b8580fd5b8382346102ba57816003193601126102ba5760025490516001600160a01b039091168152602090f35b8382346102ba57816003193601126102ba57517f00000000000000000000000000000000000000000000000000000000000000006001600160a01b03168152602090f35b503461019e576020908160031936011261026b5782356001600160a01b0381811691829003610ca357610d4561123c565b8115610ead577f000000000000000000000000000000000000000000000000000000000000000016908251906370a0823160e01b825230868301528482602481865afa918215610ea3578792610e70575b508115610e37579060448592888651958694859363a9059cbb60e01b85528b85015260248401525af1908115610e2d578591610e10575b5015610dd7578380f35b5162461bcd60e51b8152918201526015602482015274119959481dda5d1a191c985dd85b0819985a5b1959605a1b604482015260649150fd5b610e279150833d8511610509576104fb81836110d2565b38610dcd565b82513d87823e3d90fd5b835162461bcd60e51b815280870186905260136024820152724e6f206665657320746f20776974686472617760681b6044820152606490fd5b9091508481813d8311610e9c575b610e8881836110d2565b81010312610e9857519038610d96565b8680fd5b503d610e7e565b84513d89823e3d90fd5b50505162461bcd60e51b8152918201526011602482015270125b9d985b1a59081c9958da5c1a595b9d607a1b604482015260649150fd5b509190346102ba57816003193601126102ba576002546020906001600160a01b0316610f11811515611110565b8451638f09c85760e01b815292839182905afa918215610fa9578092610f74575b5050610f3d8161120b565b6006549081811015610f585750905b82519182526020820152f35b919050600754808311610f6c575b50610f4c565b915038610f66565b9091506020823d602011610fa1575b81610f90602093836110d2565b810103126105db5750513880610f32565b3d9150610f83565b8351903d90823e3d90fd5b5082346105db5760203660031901126105db57816102b19184358152600960205220918254926001810154946002820154906003830154920154925195869586611055565b9290503461026b578360031936011261026b5763040bdccd60e21b83528190839081305afa9182156108495760209392611035575b5051908152f35b8161104d9293503d84116105865761057481836110d2565b50903861102e565b9192608093969594919660a084019784526020840152604083015260608201520152565b9260a094919796959260c0850198855260208501526040840152606083015260808201520152565b60a081019081106001600160401b038211176110bc57604052565b634e487b7160e01b600052604160045260246000fd5b601f909101601f19168101906001600160401b038211908210176110bc57604052565b919082604091031261110b576020825192015190565b600080fd5b1561111757565b60405162461bcd60e51b8152602060048201526014602482015273141c9a58d9481bdc9858db19481b9bdd081cd95d60621b6044820152606490fd5b9081602091031261110b5751801515810361110b5790565b9190820180921161117857565b634e487b7160e01b600052601160045260246000fd5b9190820391821161117857565b6001600160401b0381116110bc5760051b60200190565b80518210156111c65760209160051b010190565b634e487b7160e01b600052603260045260246000fd5b60001981146111785760010190565b81156111f5570490565b634e487b7160e01b600052601260045260246000fd5b801561123557600354906008549182810292818404149015171561117857611232916111eb565b90565b5060065490565b6001546001600160a01b0316330361125057565b60405163118cdaa760e01b8152336004820152602490fd5b60ff60015460a01c1661127757565b60405163d93c066560e01b8152600490fd5b600b549081156112f65781808211156112ca576112a59161118e565b90606482029180830460641490151715611178576112c2916111eb565b600454101590565b906112d49161118e565b90606482029180830460641490151715611178576112f1916111eb565b6112c2565b505060019056fe8be0079c531659141344cd1fd0a4f28419497f9722a3daafe3b4186f6b6457e0a26469706673582212200c1229e7a3bab3f001ef36f1f7789922ec5145bd1ec66dd889ffad50086025c364736f6c63430008180033",
  "linkReferences": {},
  "deployedLinkReferences": {}
}