{
  "_format": "hh-sol-artifact-1",
  "contractName": "ChainlinkVRF",
  "sourceName": "contracts/ChainlinkVRF.sol",
  "abi": [
    {
      "inputs": [
        {
          "internalType": "address",
          "name": "_vrfCoordinator",
          "type": "address"
        },
        {
          "internalType": "uint64",
          "name": "_subscriptionId",
          "type": "uint64"
        },
        {
          "internalType": "bytes32",
          "name": "_keyHash",
          "type": "bytes32"
        },
        {
          "internalType": "uint32",
          "name": "_callbackGasLimit",
          "type": "uint32"
        },
        {
          "internalType": "uint16",
          "name": "_requestConfirmations",
          "type": "uint16"
        },
        {
          "internalType": "uint32",
          "name": "_numWords",
          "type": "uint32"
        }
      ],
      "stateMutability": "nonpayable",
      "type": "constructor"
    },
    {
      "inputs": [
        {
          "internalType": "address",
          "name": "have",
          "type": "address"
        },
        {
          "internalType": "address",
          "name": "want",
          "type": "address"
        }
      ],
      "name": "OnlyCoordinatorCanFulfill",
      "type": "error"
    },
    {
      "inputs": [
        {
          "internalType": "address",
          "name": "owner",
          "type": "address"
        }
      ],
      "name": "OwnableInvalidOwner",
      "type": "error"
    },
    {
      "inputs": [
        {
          "internalType": "address",
          "name": "account",
          "type": "address"
        }
      ],
      "name": "OwnableUnauthorizedAccount",
      "type": "error"
    },
    {
      "inputs": [],
      "name": "ReentrancyGuardReentrantCall",
      "type": "error"
    },
    {
      "anonymous": false,
      "inputs": [
        {
          "indexed": true,
          "internalType": "address",
          "name": "owner",
          "type": "address"
        },
        {
          "indexed": false,
          "internalType": "uint256",
          "name": "amount",
          "type": "uint256"
        }
      ],
      "name": "EmergencyWithdraw",
      "type": "event"
    },
    {
      "anonymous": false,
      "inputs": [
        {
          "indexed": true,
          "internalType": "address",
          "name": "previousOwner",
          "type": "address"
        },
        {
          "indexed": true,
          "internalType": "address",
          "name": "newOwner",
          "type": "address"
        }
      ],
      "name": "OwnershipTransferred",
      "type": "event"
    },
    {
      "anonymous": false,
      "inputs": [
        {
          "indexed": true,
          "internalType": "uint256",
          "name": "requestId",
          "type": "uint256"
        },
        {
          "indexed": true,
          "internalType": "uint256",
          "name": "gameId",
          "type": "uint256"
        },
        {
          "indexed": false,
          "internalType": "string",
          "name": "gameType",
          "type": "string"
        }
      ],
      "name": "RandomnessRequested",
      "type": "event"
    },
    {
      "anonymous": false,
      "inputs": [
        {
          "indexed": false,
          "internalType": "uint64",
          "name": "subscriptionId",
          "type": "uint64"
        },
        {
          "indexed": false,
          "internalType": "uint256",
          "name": "amount",
          "type": "uint256"
        }
      ],
      "name": "SubscriptionFunded",
      "type": "event"
    },
    {
      "anonymous": false,
      "inputs": [
        {
          "indexed": true,
          "internalType": "uint256",
          "name": "gameId",
          "type": "uint256"
        },
        {
          "indexed": false,
          "internalType": "string",
          "name": "gameType",
          "type": "string"
        },
        {
          "indexed": false,
          "internalType": "address[]",
          "name": "winners",
          "type": "address[]"
        },
        {
          "indexed": false,
          "internalType": "uint256[]",
          "name": "randomWords",
          "type": "uint256[]"
        }
      ],
      "name": "WinnersSelected",
      "type": "event"
    },
    {
      "inputs": [],
      "name": "DAILY_WINNERS_COUNT",
      "outputs": [
        {
          "internalType": "uint256",
          "name": "",
          "type": "uint256"
        }
      ],
      "stateMutability": "view",
      "type": "function"
    },
    {
      "inputs": [],
      "name": "WEEKLY_WINNERS_COUNT",
      "outputs": [
        {
          "internalType": "uint256",
          "name": "",
          "type": "uint256"
        }
      ],
      "stateMutability": "view",
      "type": "function"
    },
    {
      "inputs": [
        {
          "internalType": "address",
          "name": "token",
          "type": "address"
        },
        {
          "internalType": "uint256",
          "name": "amount",
          "type": "uint256"
        }
      ],
      "name": "emergencyWithdraw",
      "outputs": [],
      "stateMutability": "nonpayable",
      "type": "function"
    },
    {
      "inputs": [
        {
          "internalType": "uint256",
          "name": "amount",
          "type": "uint256"
        }
      ],
      "name": "fundSubscription",
      "outputs": [],
      "stateMutability": "nonpayable",
      "type": "function"
    },
    {
      "inputs": [
        {
          "internalType": "uint256",
          "name": "requestId",
          "type": "uint256"
        }
      ],
      "name": "getRequest",
      "outputs": [
        {
          "components": [
            {
              "internalType": "uint256",
              "name": "gameId",
              "type": "uint256"
            },
            {
              "internalType": "string",
              "name": "gameType",
              "type": "string"
            },
            {
              "internalType": "bool",
              "name": "fulfilled",
              "type": "bool"
            },
            {
              "internalType": "uint256[]",
              "name": "randomWords",
              "type": "uint256[]"
            },
            {
              "internalType": "address[]",
              "name": "eligiblePlayers",
              "type": "address[]"
            }
          ],
          "internalType": "struct ChainlinkVRF.RandomnessRequest",
          "name": "request",
          "type": "tuple"
        }
      ],
      "stateMutability": "view",
      "type": "function"
    },
    {
      "inputs": [],
      "name": "getVRFConfig",
      "outputs": [
        {
          "internalType": "address",
          "name": "coordinator",
          "type": "address"
        },
        {
          "internalType": "uint64",
          "name": "subId",
          "type": "uint64"
        },
        {
          "internalType": "bytes32",
          "name": "keyHash",
          "type": "bytes32"
        },
        {
          "internalType": "uint32",
          "name": "gasLimit",
          "type": "uint32"
        },
        {
          "internalType": "uint16",
          "name": "confirmations",
          "type": "uint16"
        },
        {
          "internalType": "uint32",
          "name": "words",
          "type": "uint32"
        }
      ],
      "stateMutability": "view",
      "type": "function"
    },
    {
      "inputs": [
        {
          "internalType": "uint256",
          "name": "requestId",
          "type": "uint256"
        }
      ],
      "name": "isRequestFulfilled",
      "outputs": [
        {
          "internalType": "bool",
          "name": "fulfilled",
          "type": "bool"
        }
      ],
      "stateMutability": "view",
      "type": "function"
    },
    {
      "inputs": [],
      "name": "owner",
      "outputs": [
        {
          "internalType": "address",
          "name": "",
          "type": "address"
        }
      ],
      "stateMutability": "view",
      "type": "function"
    },
    {
      "inputs": [],
      "name": "pizzaPartyContract",
      "outputs": [
        {
          "internalType": "contract IPizzaParty",
          "name": "",
          "type": "address"
        }
      ],
      "stateMutability": "view",
      "type": "function"
    },
    {
      "inputs": [
        {
          "internalType": "uint256",
          "name": "",
          "type": "uint256"
        }
      ],
      "name": "randomnessRequests",
      "outputs": [
        {
          "internalType": "uint256",
          "name": "gameId",
          "type": "uint256"
        },
        {
          "internalType": "string",
          "name": "gameType",
          "type": "string"
        },
        {
          "internalType": "bool",
          "name": "fulfilled",
          "type": "bool"
        }
      ],
      "stateMutability": "view",
      "type": "function"
    },
    {
      "inputs": [
        {
          "internalType": "uint256",
          "name": "requestId",
          "type": "uint256"
        },
        {
          "internalType": "uint256[]",
          "name": "randomWords",
          "type": "uint256[]"
        }
      ],
      "name": "rawFulfillRandomWords",
      "outputs": [],
      "stateMutability": "nonpayable",
      "type": "function"
    },
    {
      "inputs": [],
      "name": "renounceOwnership",
      "outputs": [],
      "stateMutability": "nonpayable",
      "type": "function"
    },
    {
      "inputs": [],
      "name": "requestCounter",
      "outputs": [
        {
          "internalType": "uint256",
          "name": "",
          "type": "uint256"
        }
      ],
      "stateMutability": "view",
      "type": "function"
    },
    {
      "inputs": [
        {
          "internalType": "uint256",
          "name": "gameId",
          "type": "uint256"
        },
        {
          "internalType": "address[]",
          "name": "eligiblePlayers",
          "type": "address[]"
        }
      ],
      "name": "requestDailyRandomness",
      "outputs": [
        {
          "internalType": "uint256",
          "name": "requestId",
          "type": "uint256"
        }
      ],
      "stateMutability": "nonpayable",
      "type": "function"
    },
    {
      "inputs": [
        {
          "internalType": "uint256",
          "name": "gameId",
          "type": "uint256"
        },
        {
          "internalType": "address[]",
          "name": "eligiblePlayers",
          "type": "address[]"
        }
      ],
      "name": "requestWeeklyRandomness",
      "outputs": [
        {
          "internalType": "uint256",
          "name": "requestId",
          "type": "uint256"
        }
      ],
      "stateMutability": "nonpayable",
      "type": "function"
    },
    {
      "inputs": [
        {
          "internalType": "address",
          "name": "_pizzaPartyContract",
          "type": "address"
        }
      ],
      "name": "setPizzaPartyContract",
      "outputs": [],
      "stateMutability": "nonpayable",
      "type": "function"
    },
    {
      "inputs": [
        {
          "internalType": "address",
          "name": "newOwner",
          "type": "address"
        }
      ],
      "name": "transferOwnership",
      "outputs": [],
      "stateMutability": "nonpayable",
      "type": "function"
    },
    {
      "stateMutability": "payable",
      "type": "receive"
    }
  ],
  "bytecode": "0x61016034620001bd576001600160401b0390601f62001d3e38819003918201601f191683019184831184841017620001c25780849260c094604052833981010312620001bd5780516001600160a01b0380821693909290848303620001bd5760208201519081168103620001bd576040820151906200008160608401620001d8565b9560808401519361ffff85168503620001bd5760a0620000a29101620001d8565b946080523315620001a4576000543360018060a01b0319821617600055604051963391167f8be0079c531659141344cd1fd0a4f28419497f9722a3daafe3b4186f6b6457e0600080a36001805560a05260c05260e052610100938452610120908152610140918252611b539384620001eb85396080518461104a015260a051848181610285015281816108010152610bc8015260c051848181610237015281816107860152818161082d0152610b7a015260e0518481816102580152610b9b0152518381816101f5015281816108600152610b380152518281816102160152818161088b0152610b590152518181816101d4015281816108b20152610b170152f35b604051631e4fbdf760e01b815260006004820152602490fd5b600080fd5b634e487b7160e01b600052604160045260246000fd5b519063ffffffff82168203620001bd5756fe608080604052600436101561001d575b50361561001b57600080fd5b005b600090813560e01c9081630d9f92ca146114825750806316fa1086146114665780631fe543e314610fd4578063580dc76814610f3b5780635cb6dfff14610edd5780636e55033c14610ac5578063715018a614610a7d5780638da5cb5b14610a5657806395ccea67146108fa578063973a814e146108dc5780639a5ea6a0146107e2578063ad44777b146107b1578063c106065314610730578063c58343ef146105ef578063cff47cb114610182578063efe77a37146101595763f2fde38b0361000f5734610156576020366003190112610156576100fa61153b565b610102611972565b6001600160a01b0390811690811561013d576000548260018060a01b031982161760005516600080516020611ade833981519152600080a380f35b604051631e4fbdf760e01b815260048101849052602490fd5b80fd5b50346101565780600319360112610156576004546040516001600160a01b039091168152602090f35b50346101565761019136611678565b926101aa60018060a09594951b03600454163314611739565b6101b261199e565b6101bd841515611795565b6040516305d3b1d360e41b815292602084806102807f00000000000000000000000000000000000000000000000000000000000000007f00000000000000000000000000000000000000000000000000000000000000007f00000000000000000000000000000000000000000000000000000000000000007f00000000000000000000000000000000000000000000000000000000000000007f0000000000000000000000000000000000000000000000000000000000000000600487016117d7565b0381857f00000000000000000000000000000000000000000000000000000000000000006001600160a01b03165af19384156105e45782946105ab575b50610319604051916102ce836114e6565b838352604051966102de886114b0565b858852604051936102ee856114cb565b60058552646461696c7960d81b6020860152602089019485528560408a01526060890152369161180f565b60808601528382526002602052604082208551815590518051906001600160401b0382116105975781906103506001850154611551565b601f8111610559575b50602090601f83116001146104ea5785926104df575b50508160011b916000199060031b1c19161760018201555b6103a660408601511515600283019060ff801983541691151516179055565b606085015180519060038301906001600160401b0383116104cb57600160401b83116104cb576020906103de84845481865585611884565b0190845260208420845b8381106104b757505050506004608091019401519081519160018060401b0383116104a357600160401b83116104a35760209061042a848854818a5589611884565b0194815260208120905b828110610486576020858561044a6003546118a7565b60035581600080516020611abe8339815191526060604051868152600587820152646461696c7960d81b6040820152a360018055604051908152f35b85516001600160a01b031681830155602090950194600101610434565b634e487b7160e01b82526041600452602482fd5b6001906020845194019381840155016103e8565b634e487b7160e01b85526041600452602485fd5b01519050388061036f565b9250600184018552602085209085935b601f198416851061053e576001945083601f19811610610525575b505050811b016001820155610387565b015160001960f88460031b161c19169055388080610515565b818101518355602094850194600190930192909101906104fa565b6105879060018601875260208720601f850160051c8101916020861061058d575b601f0160051c019061186d565b38610359565b909150819061057a565b634e487b7160e01b84526041600452602484fd5b9093506020813d6020116105dc575b816105c760209383611501565b810103126105d7575192386102bd565b600080fd5b3d91506105ba565b6040513d84823e3d90fd5b5034610156576020908160031936011261015657608090604051610612816114b0565b8181526060928184868194015283604082015282808201520152600435815260028352604081209060405192610647846114b0565b8254845260019061065a6001850161158b565b9386860194855260ff60028201541693604087019415158552600382019060405194858a845491828152019383528a8320925b8b82821061071d578b6107198c8c6107088d8d6106eb6106c38f8f906106b7866004930387611501565b848b0195865201611918565b9560808901968752604051998a99818b5251908a01525160a060408a015260c0890190611653565b93511515908701525191601f1992838783030160808801526116c8565b9151908483030160a08501526116fc565b0390f35b845486529094019392820192820161068d565b5034610156576020366003190112610156577fec9fc337416200b4fe605d1610ff1da46669abf941eefa67f2a0e70af1c531ac6040600435610770611972565b61077b8115156118cc565b815190600180841b037f00000000000000000000000000000000000000000000000000000000000000001682526020820152a180f35b50346101565760203660031901126101565760ff600260406020936004358152828552200154166040519015158152f35b5034610156578060031936011261015657604080516001600160a01b037f00000000000000000000000000000000000000000000000000000000000000001681526001600160401b037f00000000000000000000000000000000000000000000000000000000000000001660208201529081019190915263ffffffff7f00000000000000000000000000000000000000000000000000000000000000008116606083015261ffff7f00000000000000000000000000000000000000000000000000000000000000001660808301527f00000000000000000000000000000000000000000000000000000000000000001660a082015260c090f35b50346101565780600319360112610156576020600354604051908152f35b50346101565760403660031901126101565761091461153b565b60243590610920611972565b61092b8215156118cc565b6001600160a01b03908116610a3f578147106109ff578280808085858254165af13d156109fa573d6001600160401b0381116109e45760405190610979601f8201601f191660200183611501565b81528460203d92013e5b156109a9576020600080516020611afe833981519152915b84541692604051908152a280f35b60405162461bcd60e51b8152602060048201526013602482015272115512081d1c985b9cd9995c8819985a5b1959606a1b6044820152606490fd5b634e487b7160e01b600052604160045260246000fd5b610983565b60405162461bcd60e51b8152602060048201526018602482015277496e73756666696369656e74204554482062616c616e636560401b6044820152606490fd5b6020600080516020611afe8339815191529161099b565b5034610156578060031936011261015657546040516001600160a01b039091168152602090f35b5034610156578060031936011261015657610a96611972565b600080546001600160a01b0319811682556001600160a01b0316600080516020611ade8339815191528280a380f35b503461015657610ad436611678565b92610aed60018060a09594951b03600454163314611739565b610af561199e565b610b00841515611795565b6040516305d3b1d360e41b81529260208480610bc37f00000000000000000000000000000000000000000000000000000000000000007f00000000000000000000000000000000000000000000000000000000000000007f00000000000000000000000000000000000000000000000000000000000000007f00000000000000000000000000000000000000000000000000000000000000007f0000000000000000000000000000000000000000000000000000000000000000600487016117d7565b0381857f00000000000000000000000000000000000000000000000000000000000000006001600160a01b03165af19384156105e4578294610ea9575b50610c5d60405191610c11836114e6565b83835260405196610c21886114b0565b85885260405193610c31856114cb565b60068552657765656b6c7960d01b6020860152602089019485528560408a01526060890152369161180f565b60808601528382526002602052604082208551815590518051906001600160401b038211610597578190610c946001850154611551565b601f8111610e76575b50602090601f8311600114610e07578592610dfc575b50508160011b916000199060031b1c19161760018201555b610cea60408601511515600283019060ff801983541691151516179055565b606085015180519060038301906001600160401b0383116104cb57600160401b83116104cb57602090610d2284845481865585611884565b0190845260208420845b838110610de857505050506004608091019401519081519160018060401b0383116104a357600160401b83116104a357602090610d6e848854818a5589611884565b0194815260208120905b828110610dcb5760208585610d8e6003546118a7565b60035581600080516020611abe8339815191526060604051868152600687820152657765656b6c7960d01b6040820152a360018055604051908152f35b85516001600160a01b031681830155602090950194600101610d78565b600190602084519401938184015501610d2c565b015190503880610cb3565b9250600184018552602085209085935b601f1984168510610e5b576001945083601f19811610610e42575b505050811b016001820155610ccb565b015160001960f88460031b161c19169055388080610e32565b81810151835560209485019460019093019290910190610e17565b610ea39060018601875260208720601f850160051c8101916020861061058d57601f0160051c019061186d565b38610c9d565b9093506020813d602011610ed5575b81610ec560209383611501565b810103126105d757519238610c00565b3d9150610eb8565b5034610156576020366003190112610156576040906004358152600260205220805460ff6002610f0f6001850161158b565b93015416610f2f6040519384938452606060208501526060840190611653565b90151560408301520390f35b503461015657602036600319011261015657610f5561153b565b610f5d611972565b6001600160a01b03168015610f8357600480546001600160a01b03191691909117905580f35b60405162461bcd60e51b8152602060048201526024808201527f496e76616c69642050697a7a6120506172747920636f6e7472616374206164646044820152637265737360e01b6064820152608490fd5b5034610156576040366003190112610156576001600160401b039060243582811161146257366023820112156114625780600401359261101384611524565b916110216040519384611501565b848352602083016024819660051b8301019136831161145e57602401905b82821061144e5750507f00000000000000000000000000000000000000000000000000000000000000006001600160a01b0316905033819003611430575060043583526002602052604083209360028501805460ff81166113ef5760ff1916600117905582519160038601919083116104cb57600160401b83116104cb576110cc83835481855584611884565b90845260208420845b8381106113db5750505050604051908291600185015492816110f685611551565b916001861680156113be5760011461137d575b61111c925003601f198101835282611501565b602081519101206040516020810190646461696c7960d81b825260058152611143816114cb565b519020036113735761116360085b8261115e60048801611918565b611a0b565b918454916040519160608352859061117a81611551565b908160608601526001811690816000146113515750600114611318575b5095837f6d0c7ec9588d04561ccce599685bc50934f29b4cfcee336567d14ae1a51ddc7484806111e76001966111d98d6111f09a8e9f0360208601528c6116fc565b9083820360408501526116c8565b0390a20161158b565b60405161121a6020828161120d8183019687815193849201611630565b8101038084520182611501565b5190206040516020810190646461696c7960d81b82526005815261123d816114cb565b519020036112b1576004546001600160a01b031691823b156112ac5761128992849283604051809681958294634f4f202b60e11b845260048401526040602484015260448301906116fc565b03925af180156105e45761129c57505080f35b6112a59061149d565b6101565780f35b505050fd5b600454909291906001600160a01b0316803b15611314576112f69383604051809681958294632b3b45af60e11b845260048401526040602484015260448301906116fc565b03925af180156105e457611308575080f35b6113119061149d565b80f35b8280fd5b600188018752602087208792505b81831061133a575050820160800183611197565b805460808487010152602090920191600101611326565b60ff191660808087019190915291151560051b85019091019150849050611197565b611163600a611151565b5050600186018552816020862086905b8382106113a4575050602061111c92820101611109565b60209192508060019154838588010152019101839161138d565b5050602061111c9260ff1987168284015280151502820101611109565b6001906020845194019381840155016110d5565b60405162461bcd60e51b815260206004820152601960248201527814995c5d595cdd08185b1c9958591e48199d5b199a5b1b1959603a1b6044820152606490fd5b6044906040519063073e64fd60e21b82523360048301526024820152fd5b813581526020918201910161103f565b8580fd5b5080fd5b5034610156578060031936011261015657602060405160088152f35b90503461146257816003193601126114625780600a60209252f35b6001600160401b0381116109e457604052565b60a081019081106001600160401b038211176109e457604052565b604081019081106001600160401b038211176109e457604052565b602081019081106001600160401b038211176109e457604052565b601f909101601f19168101906001600160401b038211908210176109e457604052565b6001600160401b0381116109e45760051b60200190565b600435906001600160a01b03821682036105d757565b90600182811c92168015611581575b602083101461156b57565b634e487b7160e01b600052602260045260246000fd5b91607f1691611560565b9060405191826000825461159e81611551565b9081845260209460019160018116908160001461160e57506001146115cf575b5050506115cd92500383611501565b565b600090815285812095935091905b8183106115f65750506115cd93508201013880806115be565b855488840185015294850194879450918301916115dd565b925050506115cd94925060ff191682840152151560051b8201013880806115be565b60005b8381106116435750506000910152565b8181015183820152602001611633565b9060209161166c81518092818552858086019101611630565b601f01601f1916010190565b60406003198201126105d757600435916001600160401b0391602435908382116105d757806023830112156105d75781600401359384116105d75760248460051b830101116105d7576024019190565b90815180825260208080930193019160005b8281106116e8575050505090565b8351855293810193928101926001016116da565b90815180825260208080930193019160005b82811061171c575050505090565b83516001600160a01b03168552938101939281019260010161170e565b1561174057565b60405162461bcd60e51b815260206004820152602760248201527f4f6e6c792050697a7a6120506172747920636f6e74726163742063616e2063616044820152666c6c207468697360c81b6064820152608490fd5b1561179c57565b60405162461bcd60e51b81526020600482015260136024820152724e6f20656c696769626c6520706c617965727360681b6044820152606490fd5b9081526001600160401b03909116602082015261ffff909116604082015263ffffffff91821660608201529116608082015260a00190565b929161181a82611524565b916118286040519384611501565b829481845260208094019160051b81019283116105d757905b82821061184e5750505050565b81356001600160a01b03811681036105d7578152908301908301611841565b818110611878575050565b6000815560010161186d565b9181811061189157505050565b6115cd926000526020600020918201910161186d565b60001981146118b65760010190565b634e487b7160e01b600052601160045260246000fd5b156118d357565b60405162461bcd60e51b815260206004820152601d60248201527f416d6f756e74206d7573742062652067726561746572207468616e20300000006044820152606490fd5b90604051918281549182825260209260208301916000526020600020936000905b82821061194f575050506115cd92500383611501565b85546001600160a01b031684526001958601958895509381019390910190611939565b6000546001600160a01b0316330361198657565b60405163118cdaa760e01b8152336004820152602490fd5b6002600154146119af576002600155565b604051633ee5aeb560e01b8152600490fd5b81156119cb570690565b634e487b7160e01b600052601260045260246000fd5b80518210156119f55760209160051b010190565b634e487b7160e01b600052603260045260246000fd5b9290611a1683611524565b91611a246040519384611501565b838352601f19611a3385611524565b0136602085013782855115611ab5575060005b84811080611aab575b15611aa257611a9d90611a6c611a668551836119c1565b856119e1565b5187516001600160a01b0391611a8b91611a85916119c1565b896119e1565b5116611a9782876119e1565b526118a7565b611a46565b50935050905090565b5085518110611a4f565b94509250505056fecf7db36b02e99ff75f887c79ebb5612e527ae7d7086dc5f8e273b94fa0a72eed8be0079c531659141344cd1fd0a4f28419497f9722a3daafe3b4186f6b6457e05fafa99d0643513820be26656b45130b01e1c03062e1266bf36f88cbd3bd9695a26469706673582212205e8f542062b2b1432d3457480f02d395de9585930f0f5af5e6771d3b3c29d2f864736f6c63430008180033",
  "linkReferences": {},
  "deployedLinkReferences": {}
}