{
  "_format": "hh-sol-artifact-1",
  "contractName": "FreeRandomness",
  "sourceName": "contracts/FreeRandomness.sol",
  "abi": [
    {
      "inputs": [],
      "stateMutability": "nonpayable",
      "type": "constructor"
    },
    {
      "inputs": [
        {
          "internalType": "address",
          "name": "owner",
          "type": "address"
        }
      ],
      "name": "OwnableInvalidOwner",
      "type": "error"
    },
    {
      "inputs": [
        {
          "internalType": "address",
          "name": "account",
          "type": "address"
        }
      ],
      "name": "OwnableUnauthorizedAccount",
      "type": "error"
    },
    {
      "inputs": [],
      "name": "ReentrancyGuardReentrantCall",
      "type": "error"
    },
    {
      "anonymous": false,
      "inputs": [
        {
          "indexed": true,
          "internalType": "uint256",
          "name": "roundId",
          "type": "uint256"
        },
        {
          "indexed": true,
          "internalType": "address",
          "name": "contributor",
          "type": "address"
        },
        {
          "indexed": false,
          "internalType": "bytes32",
          "name": "commitment",
          "type": "bytes32"
        }
      ],
      "name": "CommitmentSubmitted",
      "type": "event"
    },
    {
      "anonymous": false,
      "inputs": [
        {
          "indexed": true,
          "internalType": "uint256",
          "name": "roundId",
          "type": "uint256"
        },
        {
          "components": [
            {
              "internalType": "uint256",
              "name": "blockNumber",
              "type": "uint256"
            },
            {
              "internalType": "uint256",
              "name": "timestamp",
              "type": "uint256"
            },
            {
              "internalType": "uint256",
              "name": "difficulty",
              "type": "uint256"
            },
            {
              "internalType": "uint256",
              "name": "gasLimit",
              "type": "uint256"
            },
            {
              "internalType": "uint256",
              "name": "gasUsed",
              "type": "uint256"
            },
            {
              "internalType": "uint256",
              "name": "baseFee",
              "type": "uint256"
            },
            {
              "internalType": "address",
              "name": "miner",
              "type": "address"
            }
          ],
          "indexed": false,
          "internalType": "struct FreeRandomness.EntropySource",
          "name": "entropy",
          "type": "tuple"
        }
      ],
      "name": "EntropyCollected",
      "type": "event"
    },
    {
      "anonymous": false,
      "inputs": [
        {
          "indexed": true,
          "internalType": "address",
          "name": "previousOwner",
          "type": "address"
        },
        {
          "indexed": true,
          "internalType": "address",
          "name": "newOwner",
          "type": "address"
        }
      ],
      "name": "OwnershipTransferred",
      "type": "event"
    },
    {
      "anonymous": false,
      "inputs": [
        {
          "indexed": true,
          "internalType": "uint256",
          "name": "roundId",
          "type": "uint256"
        },
        {
          "indexed": false,
          "internalType": "uint256",
          "name": "finalRandomNumber",
          "type": "uint256"
        },
        {
          "indexed": false,
          "internalType": "uint256",
          "name": "totalContributors",
          "type": "uint256"
        }
      ],
      "name": "RandomnessFinalized",
      "type": "event"
    },
    {
      "anonymous": false,
      "inputs": [
        {
          "indexed": true,
          "internalType": "uint256",
          "name": "roundId",
          "type": "uint256"
        },
        {
          "indexed": true,
          "internalType": "address",
          "name": "requester",
          "type": "address"
        }
      ],
      "name": "RandomnessRequested",
      "type": "event"
    },
    {
      "anonymous": false,
      "inputs": [
        {
          "indexed": true,
          "internalType": "uint256",
          "name": "roundId",
          "type": "uint256"
        },
        {
          "indexed": true,
          "internalType": "address",
          "name": "contributor",
          "type": "address"
        },
        {
          "indexed": false,
          "internalType": "uint256",
          "name": "randomValue",
          "type": "uint256"
        }
      ],
      "name": "RandomnessRevealed",
      "type": "event"
    },
    {
      "inputs": [],
      "name": "commitPhaseDuration",
      "outputs": [
        {
          "internalType": "uint256",
          "name": "",
          "type": "uint256"
        }
      ],
      "stateMutability": "view",
      "type": "function"
    },
    {
      "inputs": [
        {
          "internalType": "address",
          "name": "",
          "type": "address"
        }
      ],
      "name": "commits",
      "outputs": [
        {
          "internalType": "bytes32",
          "name": "commitment",
          "type": "bytes32"
        },
        {
          "internalType": "uint256",
          "name": "timestamp",
          "type": "uint256"
        },
        {
          "internalType": "bool",
          "name": "revealed",
          "type": "bool"
        },
        {
          "internalType": "uint256",
          "name": "randomValue",
          "type": "uint256"
        }
      ],
      "stateMutability": "view",
      "type": "function"
    },
    {
      "inputs": [],
      "name": "currentRoundId",
      "outputs": [
        {
          "internalType": "uint256",
          "name": "",
          "type": "uint256"
        }
      ],
      "stateMutability": "view",
      "type": "function"
    },
    {
      "inputs": [
        {
          "internalType": "uint256",
          "name": "roundId",
          "type": "uint256"
        }
      ],
      "name": "forceFinalize",
      "outputs": [],
      "stateMutability": "nonpayable",
      "type": "function"
    },
    {
      "inputs": [],
      "name": "getCurrentRandomnessRound",
      "outputs": [
        {
          "internalType": "uint256",
          "name": "",
          "type": "uint256"
        }
      ],
      "stateMutability": "view",
      "type": "function"
    },
    {
      "inputs": [
        {
          "internalType": "uint256",
          "name": "roundId",
          "type": "uint256"
        }
      ],
      "name": "getFinalRandomNumber",
      "outputs": [
        {
          "internalType": "uint256",
          "name": "",
          "type": "uint256"
        }
      ],
      "stateMutability": "view",
      "type": "function"
    },
    {
      "inputs": [
        {
          "internalType": "uint256",
          "name": "roundId",
          "type": "uint256"
        }
      ],
      "name": "getRoundContributors",
      "outputs": [
        {
          "internalType": "address[]",
          "name": "",
          "type": "address[]"
        }
      ],
      "stateMutability": "view",
      "type": "function"
    },
    {
      "inputs": [
        {
          "internalType": "uint256",
          "name": "roundId",
          "type": "uint256"
        }
      ],
      "name": "getRoundInfo",
      "outputs": [
        {
          "internalType": "uint256",
          "name": "totalContributors",
          "type": "uint256"
        },
        {
          "internalType": "uint256",
          "name": "totalEntropy",
          "type": "uint256"
        },
        {
          "internalType": "uint256",
          "name": "finalRandomNumber",
          "type": "uint256"
        },
        {
          "internalType": "bool",
          "name": "isComplete",
          "type": "bool"
        },
        {
          "internalType": "uint256",
          "name": "deadline",
          "type": "uint256"
        }
      ],
      "stateMutability": "view",
      "type": "function"
    },
    {
      "inputs": [],
      "name": "maxContributors",
      "outputs": [
        {
          "internalType": "uint256",
          "name": "",
          "type": "uint256"
        }
      ],
      "stateMutability": "view",
      "type": "function"
    },
    {
      "inputs": [],
      "name": "minContributors",
      "outputs": [
        {
          "internalType": "uint256",
          "name": "",
          "type": "uint256"
        }
      ],
      "stateMutability": "view",
      "type": "function"
    },
    {
      "inputs": [],
      "name": "owner",
      "outputs": [
        {
          "internalType": "address",
          "name": "",
          "type": "address"
        }
      ],
      "stateMutability": "view",
      "type": "function"
    },
    {
      "inputs": [
        {
          "internalType": "uint256",
          "name": "",
          "type": "uint256"
        }
      ],
      "name": "randomnessRounds",
      "outputs": [
        {
          "internalType": "uint256",
          "name": "roundId",
          "type": "uint256"
        },
        {
          "internalType": "uint256",
          "name": "totalContributors",
          "type": "uint256"
        },
        {
          "internalType": "uint256",
          "name": "totalEntropy",
          "type": "uint256"
        },
        {
          "internalType": "uint256",
          "name": "finalRandomNumber",
          "type": "uint256"
        },
        {
          "internalType": "bool",
          "name": "isComplete",
          "type": "bool"
        },
        {
          "internalType": "uint256",
          "name": "deadline",
          "type": "uint256"
        }
      ],
      "stateMutability": "view",
      "type": "function"
    },
    {
      "inputs": [],
      "name": "renounceOwnership",
      "outputs": [],
      "stateMutability": "nonpayable",
      "type": "function"
    },
    {
      "inputs": [],
      "name": "requestRandomness",
      "outputs": [
        {
          "internalType": "uint256",
          "name": "roundId",
          "type": "uint256"
        }
      ],
      "stateMutability": "nonpayable",
      "type": "function"
    },
    {
      "inputs": [],
      "name": "revealPhaseDuration",
      "outputs": [
        {
          "internalType": "uint256",
          "name": "",
          "type": "uint256"
        }
      ],
      "stateMutability": "view",
      "type": "function"
    },
    {
      "inputs": [
        {
          "internalType": "uint256",
          "name": "roundId",
          "type": "uint256"
        },
        {
          "internalType": "uint256",
          "name": "randomValue",
          "type": "uint256"
        },
        {
          "internalType": "bytes32",
          "name": "salt",
          "type": "bytes32"
        }
      ],
      "name": "revealRandomness",
      "outputs": [],
      "stateMutability": "nonpayable",
      "type": "function"
    },
    {
      "inputs": [
        {
          "internalType": "uint256",
          "name": "",
          "type": "uint256"
        },
        {
          "internalType": "uint256",
          "name": "",
          "type": "uint256"
        }
      ],
      "name": "roundContributors",
      "outputs": [
        {
          "internalType": "address",
          "name": "",
          "type": "address"
        }
      ],
      "stateMutability": "view",
      "type": "function"
    },
    {
      "inputs": [
        {
          "internalType": "uint256",
          "name": "roundId",
          "type": "uint256"
        },
        {
          "internalType": "bytes32",
          "name": "commitment",
          "type": "bytes32"
        }
      ],
      "name": "submitCommitment",
      "outputs": [],
      "stateMutability": "nonpayable",
      "type": "function"
    },
    {
      "inputs": [
        {
          "internalType": "address",
          "name": "newOwner",
          "type": "address"
        }
      ],
      "name": "transferOwnership",
      "outputs": [],
      "stateMutability": "nonpayable",
      "type": "function"
    },
    {
      "inputs": [
        {
          "internalType": "uint256",
          "name": "_commitPhaseDuration",
          "type": "uint256"
        },
        {
          "internalType": "uint256",
          "name": "_revealPhaseDuration",
          "type": "uint256"
        },
        {
          "internalType": "uint256",
          "name": "_minContributors",
          "type": "uint256"
        },
        {
          "internalType": "uint256",
          "name": "_maxContributors",
          "type": "uint256"
        }
      ],
      "name": "updateRoundParameters",
      "outputs": [],
      "stateMutability": "nonpayable",
      "type": "function"
    },
    {
      "inputs": [
        {
          "internalType": "uint256",
          "name": "",
          "type": "uint256"
        },
        {
          "internalType": "address",
          "name": "",
          "type": "address"
        }
      ],
      "name": "userContributions",
      "outputs": [
        {
          "internalType": "uint256",
          "name": "",
          "type": "uint256"
        }
      ],
      "stateMutability": "view",
      "type": "function"
    }
  ],
  "bytecode": "0x6080806040523461009a57600160005533156100845760018054336001600160a01b03198216811790925560405191906001600160a01b03167f8be0079c531659141344cd1fd0a4f28419497f9722a3daafe3b4186f6b6457e0600080a3610e1060075561070860085560036009556064600a55600160065561108790816100a08239f35b631e4fbdf760e01b815260006004820152602490fd5b600080fdfe60806040908082526004918236101561001757600080fd5b600091823560e01c9081632bae823614610bf2575080633b55e36214610b7d578063483b403914610b5f5780636ca804a714610b2b578063715018a614610ae05780637b43a8e614610a82578063837b4079146109a957806386fa50631461098b57806388c3ffb0146109305780638da5cb5b146109085780639cbe5efd14610679578063a154fc6b14610697578063c142e49514610679578063c59051cd1461062b578063dd03c6f2146105c8578063dfc75372146105aa578063e6a3d9dc14610306578063e7b6ecff1461026d578063ed54890d14610224578063f2fde38b146101a85763f8413b071461010c57600080fd5b346101a457816003193601126101a457610124610d5d565b600654906000198214610191576001906020948284016006558385526003865281852084815561015660075442610c88565b600582015501805460ff19169055519233837f28f521cf7abd0044cba5bb040c5217ff69a4e5865f5262905018698e68fe7d008380a3558152f35b634e487b7160e01b835260118452602483fd5b5080fd5b508234610220576020366003190112610220576101c3610c0e565b906101cc610d31565b6001600160a01b0391821692831561020a575050600180546001600160a01b031981168417909155166000805160206110328339815191528380a380f35b51631e4fbdf760e01b8152908101849052602490fd5b8280fd5b5082346102205781600319360112610220576024356001600160a01b038116919082900361026957928291846020953583528552828220908252845220549051908152f35b8380fd5b5082346102205760203660031901126102205780359161028b610d31565b82845260036020526102b660058286206102ab60ff868301541615610cf1565b015460085490610c88565b4211156102ca57836102c784610d80565b80f35b906020606492519162461bcd60e51b8352820152601660248201527514995d99585b081c1a185cd9481b9bdd08195b99195960521b6044820152fd5b5090346105a757816003193601126105a757823592602493843591610329610d5d565b81845260039460209160038352818620600597600582015442116105705761035760ff848401541615610cab565b8588526005855283882054600a5411156105335787885b878a528a8752858a208054821015610522578161038a91610c29565b905490841b1c6001600160a01b031633146103a75760010161036e565b505050909192939495965060015b6104d75784875260058452828720805490600160401b8210156104c557816103e4916001809594018155610c29565b81549060031b9033821b91858060a01b03901b191617905501805490600182018092116104b3575581519060808201906001600160401b038211838310176104a157509082917f6459ffc8e2e6aea1e7a6161f54ca96e0b0c83db7191f26ccf5c33e14f7f178c5949352858152600383820142815283830189815260608401918a8352338b5260028752858b2094518555516001850155600284019051151560ff8019835416911617905551910155519384523393a36001815580f35b634e487b7160e01b8852604190528787fd5b634e487b7160e01b8852601183528888fd5b634e487b7160e01b8952604184528989fd5b5060218784608494519362461bcd60e51b85528401528201527f416c726561647920636f6e747269627574656420746f207468697320726f756e6044820152601960fa1b6064820152fd5b5050919293949596979850506103b5565b835162461bcd60e51b81528084018690526018818c01527713585e0818dbdb9d1c9a589d5d1bdc9cc81c995858da195960421b6044820152606490fd5b835162461bcd60e51b81528084018690526012818c01527110dbdb5b5a5d081c1a185cd948195b99195960721b6044820152606490fd5b80fd5b50346101a457816003193601126101a4576020906008549051908152f35b50829034610220576020366003190112610220578060c09383358152600360205220805492600182015492600283015490600560ff60038601549486015416940154948151968752602087015285015260608401521515608083015260a0820152f35b5090346105a757816003193601126105a7576024359235815260056020528181209081548410156105a7575060209261066391610c29565b905491519160018060a01b039160031b1c168152f35b50346101a457816003193601126101a4576020906006549051908152f35b50346101a45760603660031901126101a4578235906024908135906106ba610d5d565b83855260209560038752818620936005850154804211156108cb576008546106e191610c88565b4211610896576106f760ff838701541615610cab565b33875260028852828720908154801561085e57600283019182549160ff8316610829578651908c8201898152604435898401523360601b606084015260548352608083019383851060018060401b03861117610818575083895282519020036107e257505092856003899a9b9460019a97948b7f1b350cf204124e01b4dd0942b876ec748f97c4df686b0a6ab178dbe11f2f4b009860ff19161790550155600287016107a4878254610c88565b9055848a528252808920338a52825284818a2055519384523393a3015460095411156107d3575b506001815580f35b6107dc90610d80565b386107cb565b9071125b9d985b1a590818dbdb5b5a5d1b595b9d60721b60c46064938e62461bcd60e51b85526084820152601260a48201520152fd5b634e487b7160e01b8e52604189528dfd5b865162461bcd60e51b81528087018d90526010818401526f105b1c9958591e481c995d99585b195960821b6044820152606490fd5b845162461bcd60e51b81528085018b905260138184015272139bc818dbdb5b5a5d1b595b9d08199bdd5b99606a1b6044820152606490fd5b60129088606494519362461bcd60e51b85528401528201527114995d99585b081c1a185cd948195b99195960721b6044820152fd5b5060199088606494519362461bcd60e51b855284015282015278436f6d6d6974207068617365207374696c6c2061637469766560381b6044820152fd5b50346101a457816003193601126101a45760015490516001600160a01b039091168152602090f35b50829034610220576020366003190112610220578060a09383358152600360205220600181015492600282015492600560ff600385015493850154169301549381519586526020860152840152151560608301526080820152f35b50346101a457816003193601126101a457602090600a549051908152f35b50346101a45760208060031936011261022057833583526005815281832092825192838386549182815201908196845284842090845b86828210610a655750505050849003601f01601f19168401956001600160401b03871185881017610a52575085815282865292518583018190528594938501939290915b828110610a3257505050500390f35b83516001600160a01b031685528695509381019392810192600101610a23565b634e487b7160e01b835260419052602482fd5b83546001600160a01b0316855290930192600192830192016109df565b50346101a45760203660031901126101a45760809181906001600160a01b03610aa9610c0e565b168152600260205220805491600182015491600360ff60028301541691015492825194855260208501521515908301526060820152f35b82346105a757806003193601126105a757610af9610d31565b600180546001600160a01b0319811690915581906001600160a01b03166000805160206110328339815191528280a380f35b8284346101a45760803660031901126101a457610b46610d31565b35600755602435600855604435600955606435600a5580f35b50346101a457816003193601126101a4576020906007549051908152f35b509190346105a75760203660031901126105a7578290823581526003602052209060ff818301541615610bb95760208360038401549051908152f35b606490602084519162461bcd60e51b83528201526013602482015272149bdd5b99081b9bdd08199a5b985b1a5e9959606a1b6044820152fd5b8390346101a457816003193601126101a4576020906009548152f35b600435906001600160a01b0382168203610c2457565b600080fd5b8054821015610c415760005260206000200190600090565b634e487b7160e01b600052603260045260246000fd5b60e081019081106001600160401b03821117610c7257604052565b634e487b7160e01b600052604160045260246000fd5b91908201809211610c9557565b634e487b7160e01b600052601160045260246000fd5b15610cb257565b60405162461bcd60e51b8152602060048201526017602482015276149bdd5b9908185b1c9958591e4818dbdb5c1b195d1959604a1b6044820152606490fd5b15610cf857565b60405162461bcd60e51b8152602060048201526011602482015270105b1c9958591e48199a5b985b1a5e9959607a1b6044820152606490fd5b6001546001600160a01b03163303610d4557565b60405163118cdaa760e01b8152336004820152602490fd5b600260005414610d6e576002600055565b604051633ee5aeb560e01b8152600490fd5b8060005260036020526040600020600481015492610da160ff851615610cf1565b600060c0604051610db181610c57565b8281528260208201528260408201528260608201528260808201528260a0820152015260405190610de182610c57565b4382524260208301524460408301524560608301524560808301524860a08301524160c0830152836000526003602052610e82610e6e610e63610e58610e4d610e42610e37600260406000200154895190610c88565b602089015190610c88565b604088015190610c88565b606087015190610c88565b608086015190610c88565b60a085015190610c88565b60c08401516001600160a01b031690610c88565b926000935b85600052600560205260406000208054861015610ef057600191610ec6610eb188610ee894610c29565b858060a01b0391549060031b1c168092610c88565b9088600052600460205260406000209060005260205260406000205490610c88565b940193610e87565b50610f0c919450610f078691979493974290610c88565b610c88565b926000194301438111610c95576001194301438111610c9557600219430191438311610c9557604051966020880152406040870152406060860152406080850152608084528360a081011060018060401b0360a086011117610c72577fef96d6aec820d450f000adc62090e956f3335bfa69c59c376fcc43cfd6d683f6604060a08660e09660018a96847f8952e36e2a718e16caca6c19548cfb9fa1a6b5afbf9c61b4f140014a91430c029b01865281845160208601209384600384015560ff19161760048201550154908383015260c082015201a260405190805182526020810151602083015260408101516040830152606081015160608301526080810151608083015260a081015160a083015260c060018060a01b039101511660c0820152a256fe8be0079c531659141344cd1fd0a4f28419497f9722a3daafe3b4186f6b6457e0a264697066735822122099cb89417babc0c9e75343f0b5aab13c638f893e0b305640e0beb8692cdd15ad64736f6c63430008180033",
  "linkReferences": {},
  "deployedLinkReferences": {}
}