{
  "_format": "hh-sol-artifact-1",
  "contractName": "PizzaPartyWeeklyChallenges",
  "sourceName": "contracts/PizzaPartyWeeklyChallenges.sol",
  "abi": [
    {
      "inputs": [
        {
          "internalType": "address",
          "name": "_vmfToken",
          "type": "address"
        }
      ],
      "stateMutability": "nonpayable",
      "type": "constructor"
    },
    {
      "inputs": [],
      "name": "EnforcedPause",
      "type": "error"
    },
    {
      "inputs": [],
      "name": "ExpectedPause",
      "type": "error"
    },
    {
      "inputs": [
        {
          "internalType": "address",
          "name": "owner",
          "type": "address"
        }
      ],
      "name": "OwnableInvalidOwner",
      "type": "error"
    },
    {
      "inputs": [
        {
          "internalType": "address",
          "name": "account",
          "type": "address"
        }
      ],
      "name": "OwnableUnauthorizedAccount",
      "type": "error"
    },
    {
      "inputs": [],
      "name": "ReentrancyGuardReentrantCall",
      "type": "error"
    },
    {
      "anonymous": false,
      "inputs": [
        {
          "indexed": false,
          "internalType": "string",
          "name": "category",
          "type": "string"
        }
      ],
      "name": "CategoryCreated",
      "type": "event"
    },
    {
      "anonymous": false,
      "inputs": [
        {
          "indexed": true,
          "internalType": "uint256",
          "name": "challengeId",
          "type": "uint256"
        },
        {
          "indexed": true,
          "internalType": "address",
          "name": "player",
          "type": "address"
        },
        {
          "indexed": false,
          "internalType": "uint256",
          "name": "rewardAmount",
          "type": "uint256"
        },
        {
          "indexed": false,
          "internalType": "uint256",
          "name": "completionTime",
          "type": "uint256"
        }
      ],
      "name": "ChallengeCompleted",
      "type": "event"
    },
    {
      "anonymous": false,
      "inputs": [
        {
          "indexed": true,
          "internalType": "uint256",
          "name": "challengeId",
          "type": "uint256"
        },
        {
          "indexed": false,
          "internalType": "string",
          "name": "title",
          "type": "string"
        },
        {
          "indexed": false,
          "internalType": "string",
          "name": "category",
          "type": "string"
        },
        {
          "indexed": false,
          "internalType": "uint256",
          "name": "rewardAmount",
          "type": "uint256"
        },
        {
          "indexed": false,
          "internalType": "uint256",
          "name": "difficulty",
          "type": "uint256"
        },
        {
          "indexed": false,
          "internalType": "uint256",
          "name": "startTime",
          "type": "uint256"
        },
        {
          "indexed": false,
          "internalType": "uint256",
          "name": "endTime",
          "type": "uint256"
        }
      ],
      "name": "ChallengeCreated",
      "type": "event"
    },
    {
      "anonymous": false,
      "inputs": [
        {
          "indexed": true,
          "internalType": "uint256",
          "name": "challengeId",
          "type": "uint256"
        },
        {
          "indexed": true,
          "internalType": "address",
          "name": "player",
          "type": "address"
        },
        {
          "indexed": false,
          "internalType": "uint256",
          "name": "timestamp",
          "type": "uint256"
        }
      ],
      "name": "ChallengeJoined",
      "type": "event"
    },
    {
      "anonymous": false,
      "inputs": [
        {
          "indexed": true,
          "internalType": "address",
          "name": "previousOwner",
          "type": "address"
        },
        {
          "indexed": true,
          "internalType": "address",
          "name": "newOwner",
          "type": "address"
        }
      ],
      "name": "OwnershipTransferred",
      "type": "event"
    },
    {
      "anonymous": false,
      "inputs": [
        {
          "indexed": false,
          "internalType": "address",
          "name": "account",
          "type": "address"
        }
      ],
      "name": "Paused",
      "type": "event"
    },
    {
      "anonymous": false,
      "inputs": [
        {
          "indexed": true,
          "internalType": "address",
          "name": "player",
          "type": "address"
        },
        {
          "indexed": false,
          "internalType": "uint256",
          "name": "oldStreak",
          "type": "uint256"
        },
        {
          "indexed": false,
          "internalType": "uint256",
          "name": "newStreak",
          "type": "uint256"
        },
        {
          "indexed": false,
          "internalType": "uint256",
          "name": "bonusAmount",
          "type": "uint256"
        }
      ],
      "name": "StreakUpdated",
      "type": "event"
    },
    {
      "anonymous": false,
      "inputs": [
        {
          "indexed": false,
          "internalType": "address",
          "name": "account",
          "type": "address"
        }
      ],
      "name": "Unpaused",
      "type": "event"
    },
    {
      "anonymous": false,
      "inputs": [
        {
          "indexed": true,
          "internalType": "address",
          "name": "user",
          "type": "address"
        },
        {
          "indexed": false,
          "internalType": "bool",
          "name": "blacklisted",
          "type": "bool"
        }
      ],
      "name": "UserBlacklisted",
      "type": "event"
    },
    {
      "anonymous": false,
      "inputs": [
        {
          "indexed": true,
          "internalType": "address",
          "name": "player",
          "type": "address"
        },
        {
          "indexed": false,
          "internalType": "uint256",
          "name": "challengeId",
          "type": "uint256"
        },
        {
          "indexed": false,
          "internalType": "uint256",
          "name": "reward",
          "type": "uint256"
        },
        {
          "indexed": false,
          "internalType": "uint256",
          "name": "streak",
          "type": "uint256"
        }
      ],
      "name": "WeeklyChallengeCompleted",
      "type": "event"
    },
    {
      "inputs": [],
      "name": "CHALLENGE_DURATION",
      "outputs": [
        {
          "internalType": "uint256",
          "name": "",
          "type": "uint256"
        }
      ],
      "stateMutability": "view",
      "type": "function"
    },
    {
      "inputs": [],
      "name": "MAX_PARTICIPANTS",
      "outputs": [
        {
          "internalType": "uint256",
          "name": "",
          "type": "uint256"
        }
      ],
      "stateMutability": "view",
      "type": "function"
    },
    {
      "inputs": [],
      "name": "MAX_REWARD_AMOUNT",
      "outputs": [
        {
          "internalType": "uint256",
          "name": "",
          "type": "uint256"
        }
      ],
      "stateMutability": "view",
      "type": "function"
    },
    {
      "inputs": [],
      "name": "MIN_REWARD_AMOUNT",
      "outputs": [
        {
          "internalType": "uint256",
          "name": "",
          "type": "uint256"
        }
      ],
      "stateMutability": "view",
      "type": "function"
    },
    {
      "inputs": [],
      "name": "STREAK_BONUS_MULTIPLIER",
      "outputs": [
        {
          "internalType": "uint256",
          "name": "",
          "type": "uint256"
        }
      ],
      "stateMutability": "view",
      "type": "function"
    },
    {
      "inputs": [],
      "name": "activeUsers",
      "outputs": [
        {
          "internalType": "uint256",
          "name": "",
          "type": "uint256"
        }
      ],
      "stateMutability": "view",
      "type": "function"
    },
    {
      "inputs": [
        {
          "internalType": "address",
          "name": "",
          "type": "address"
        }
      ],
      "name": "blacklistedUsers",
      "outputs": [
        {
          "internalType": "bool",
          "name": "",
          "type": "bool"
        }
      ],
      "stateMutability": "view",
      "type": "function"
    },
    {
      "inputs": [
        {
          "internalType": "string",
          "name": "",
          "type": "string"
        }
      ],
      "name": "categoryChallengeCount",
      "outputs": [
        {
          "internalType": "uint256",
          "name": "",
          "type": "uint256"
        }
      ],
      "stateMutability": "view",
      "type": "function"
    },
    {
      "inputs": [
        {
          "internalType": "uint256",
          "name": "",
          "type": "uint256"
        }
      ],
      "name": "challengeCategories",
      "outputs": [
        {
          "internalType": "string",
          "name": "",
          "type": "string"
        }
      ],
      "stateMutability": "view",
      "type": "function"
    },
    {
      "inputs": [
        {
          "internalType": "uint256",
          "name": "",
          "type": "uint256"
        }
      ],
      "name": "challenges",
      "outputs": [
        {
          "internalType": "uint256",
          "name": "challengeId",
          "type": "uint256"
        },
        {
          "internalType": "string",
          "name": "title",
          "type": "string"
        },
        {
          "internalType": "string",
          "name": "description",
          "type": "string"
        },
        {
          "internalType": "uint256",
          "name": "rewardAmount",
          "type": "uint256"
        },
        {
          "internalType": "uint256",
          "name": "difficulty",
          "type": "uint256"
        },
        {
          "internalType": "uint256",
          "name": "startTime",
          "type": "uint256"
        },
        {
          "internalType": "uint256",
          "name": "endTime",
          "type": "uint256"
        },
        {
          "internalType": "uint256",
          "name": "maxParticipants",
          "type": "uint256"
        },
        {
          "internalType": "uint256",
          "name": "currentParticipants",
          "type": "uint256"
        },
        {
          "internalType": "bool",
          "name": "isActive",
          "type": "bool"
        },
        {
          "internalType": "bool",
          "name": "isCompleted",
          "type": "bool"
        },
        {
          "internalType": "string",
          "name": "category",
          "type": "string"
        }
      ],
      "stateMutability": "view",
      "type": "function"
    },
    {
      "inputs": [
        {
          "internalType": "uint256",
          "name": "challengeId",
          "type": "uint256"
        },
        {
          "internalType": "string",
          "name": "proof",
          "type": "string"
        }
      ],
      "name": "completeChallenge",
      "outputs": [],
      "stateMutability": "nonpayable",
      "type": "function"
    },
    {
      "inputs": [
        {
          "internalType": "string",
          "name": "title",
          "type": "string"
        },
        {
          "internalType": "string",
          "name": "description",
          "type": "string"
        },
        {
          "internalType": "uint256",
          "name": "rewardAmount",
          "type": "uint256"
        },
        {
          "internalType": "uint256",
          "name": "difficulty",
          "type": "uint256"
        },
        {
          "internalType": "string",
          "name": "category",
          "type": "string"
        },
        {
          "internalType": "uint256",
          "name": "maxParticipants",
          "type": "uint256"
        }
      ],
      "name": "createChallenge",
      "outputs": [],
      "stateMutability": "nonpayable",
      "type": "function"
    },
    {
      "inputs": [],
      "name": "currentChallengeId",
      "outputs": [
        {
          "internalType": "uint256",
          "name": "",
          "type": "uint256"
        }
      ],
      "stateMutability": "view",
      "type": "function"
    },
    {
      "inputs": [
        {
          "internalType": "bool",
          "name": "pause",
          "type": "bool"
        }
      ],
      "name": "emergencyPause",
      "outputs": [],
      "stateMutability": "nonpayable",
      "type": "function"
    },
    {
      "inputs": [],
      "name": "emergencyWithdraw",
      "outputs": [],
      "stateMutability": "nonpayable",
      "type": "function"
    },
    {
      "inputs": [],
      "name": "getChallengeCategories",
      "outputs": [
        {
          "internalType": "string[]",
          "name": "",
          "type": "string[]"
        }
      ],
      "stateMutability": "view",
      "type": "function"
    },
    {
      "inputs": [
        {
          "internalType": "uint256",
          "name": "challengeId",
          "type": "uint256"
        }
      ],
      "name": "getChallengeInfo",
      "outputs": [
        {
          "internalType": "string",
          "name": "title",
          "type": "string"
        },
        {
          "internalType": "string",
          "name": "description",
          "type": "string"
        },
        {
          "internalType": "uint256",
          "name": "rewardAmount",
          "type": "uint256"
        },
        {
          "internalType": "uint256",
          "name": "difficulty",
          "type": "uint256"
        },
        {
          "internalType": "uint256",
          "name": "startTime",
          "type": "uint256"
        },
        {
          "internalType": "uint256",
          "name": "endTime",
          "type": "uint256"
        },
        {
          "internalType": "uint256",
          "name": "maxParticipants",
          "type": "uint256"
        },
        {
          "internalType": "uint256",
          "name": "currentParticipants",
          "type": "uint256"
        },
        {
          "internalType": "bool",
          "name": "isActive",
          "type": "bool"
        },
        {
          "internalType": "bool",
          "name": "isCompleted",
          "type": "bool"
        },
        {
          "internalType": "string",
          "name": "category",
          "type": "string"
        }
      ],
      "stateMutability": "view",
      "type": "function"
    },
    {
      "inputs": [
        {
          "internalType": "uint256",
          "name": "challengeId",
          "type": "uint256"
        }
      ],
      "name": "getChallengeParticipants",
      "outputs": [
        {
          "internalType": "address[]",
          "name": "",
          "type": "address[]"
        }
      ],
      "stateMutability": "view",
      "type": "function"
    },
    {
      "inputs": [
        {
          "internalType": "address",
          "name": "user",
          "type": "address"
        }
      ],
      "name": "getUserChallengeData",
      "outputs": [
        {
          "components": [
            {
              "internalType": "uint256",
              "name": "totalChallengesCompleted",
              "type": "uint256"
            },
            {
              "internalType": "uint256",
              "name": "totalRewardsEarned",
              "type": "uint256"
            },
            {
              "internalType": "uint256",
              "name": "currentStreak",
              "type": "uint256"
            },
            {
              "internalType": "uint256",
              "name": "longestStreak",
              "type": "uint256"
            },
            {
              "internalType": "uint256",
              "name": "lastCompletionTime",
              "type": "uint256"
            },
            {
              "internalType": "uint256",
              "name": "reputation",
              "type": "uint256"
            },
            {
              "internalType": "bool",
              "name": "isActive",
              "type": "bool"
            }
          ],
          "internalType": "struct PizzaPartyWeeklyChallenges.UserChallengeData",
          "name": "",
          "type": "tuple"
        }
      ],
      "stateMutability": "view",
      "type": "function"
    },
    {
      "inputs": [
        {
          "internalType": "address",
          "name": "user",
          "type": "address"
        },
        {
          "internalType": "uint256",
          "name": "startIndex",
          "type": "uint256"
        },
        {
          "internalType": "uint256",
          "name": "count",
          "type": "uint256"
        }
      ],
      "name": "getUserCompletions",
      "outputs": [
        {
          "components": [
            {
              "internalType": "uint256",
              "name": "challengeId",
              "type": "uint256"
            },
            {
              "internalType": "address",
              "name": "player",
              "type": "address"
            },
            {
              "internalType": "uint256",
              "name": "completionTime",
              "type": "uint256"
            },
            {
              "internalType": "uint256",
              "name": "rewardAmount",
              "type": "uint256"
            },
            {
              "internalType": "string",
              "name": "proof",
              "type": "string"
            },
            {
              "internalType": "bool",
              "name": "isVerified",
              "type": "bool"
            }
          ],
          "internalType": "struct PizzaPartyWeeklyChallenges.ChallengeCompletion[]",
          "name": "",
          "type": "tuple[]"
        }
      ],
      "stateMutability": "view",
      "type": "function"
    },
    {
      "inputs": [
        {
          "internalType": "uint256",
          "name": "challengeId",
          "type": "uint256"
        }
      ],
      "name": "joinChallenge",
      "outputs": [],
      "stateMutability": "nonpayable",
      "type": "function"
    },
    {
      "inputs": [],
      "name": "owner",
      "outputs": [
        {
          "internalType": "address",
          "name": "",
          "type": "address"
        }
      ],
      "stateMutability": "view",
      "type": "function"
    },
    {
      "inputs": [],
      "name": "paused",
      "outputs": [
        {
          "internalType": "bool",
          "name": "",
          "type": "bool"
        }
      ],
      "stateMutability": "view",
      "type": "function"
    },
    {
      "inputs": [],
      "name": "renounceOwnership",
      "outputs": [],
      "stateMutability": "nonpayable",
      "type": "function"
    },
    {
      "inputs": [
        {
          "internalType": "address",
          "name": "user",
          "type": "address"
        },
        {
          "internalType": "bool",
          "name": "blacklisted",
          "type": "bool"
        }
      ],
      "name": "setUserBlacklist",
      "outputs": [],
      "stateMutability": "nonpayable",
      "type": "function"
    },
    {
      "inputs": [],
      "name": "totalChallenges",
      "outputs": [
        {
          "internalType": "uint256",
          "name": "",
          "type": "uint256"
        }
      ],
      "stateMutability": "view",
      "type": "function"
    },
    {
      "inputs": [],
      "name": "totalChallengesCompleted",
      "outputs": [
        {
          "internalType": "uint256",
          "name": "",
          "type": "uint256"
        }
      ],
      "stateMutability": "view",
      "type": "function"
    },
    {
      "inputs": [],
      "name": "totalParticipants",
      "outputs": [
        {
          "internalType": "uint256",
          "name": "",
          "type": "uint256"
        }
      ],
      "stateMutability": "view",
      "type": "function"
    },
    {
      "inputs": [],
      "name": "totalRewardsDistributed",
      "outputs": [
        {
          "internalType": "uint256",
          "name": "",
          "type": "uint256"
        }
      ],
      "stateMutability": "view",
      "type": "function"
    },
    {
      "inputs": [
        {
          "internalType": "address",
          "name": "newOwner",
          "type": "address"
        }
      ],
      "name": "transferOwnership",
      "outputs": [],
      "stateMutability": "nonpayable",
      "type": "function"
    },
    {
      "inputs": [
        {
          "internalType": "uint256",
          "name": "challengeId",
          "type": "uint256"
        },
        {
          "internalType": "bool",
          "name": "isActive",
          "type": "bool"
        }
      ],
      "name": "updateChallengeStatus",
      "outputs": [],
      "stateMutability": "nonpayable",
      "type": "function"
    },
    {
      "inputs": [
        {
          "internalType": "address",
          "name": "",
          "type": "address"
        }
      ],
      "name": "userChallengeData",
      "outputs": [
        {
          "internalType": "uint256",
          "name": "totalChallengesCompleted",
          "type": "uint256"
        },
        {
          "internalType": "uint256",
          "name": "totalRewardsEarned",
          "type": "uint256"
        },
        {
          "internalType": "uint256",
          "name": "currentStreak",
          "type": "uint256"
        },
        {
          "internalType": "uint256",
          "name": "longestStreak",
          "type": "uint256"
        },
        {
          "internalType": "uint256",
          "name": "lastCompletionTime",
          "type": "uint256"
        },
        {
          "internalType": "uint256",
          "name": "reputation",
          "type": "uint256"
        },
        {
          "internalType": "bool",
          "name": "isActive",
          "type": "bool"
        }
      ],
      "stateMutability": "view",
      "type": "function"
    },
    {
      "inputs": [
        {
          "internalType": "address",
          "name": "",
          "type": "address"
        },
        {
          "internalType": "uint256",
          "name": "",
          "type": "uint256"
        }
      ],
      "name": "userCompletions",
      "outputs": [
        {
          "internalType": "uint256",
          "name": "challengeId",
          "type": "uint256"
        },
        {
          "internalType": "address",
          "name": "player",
          "type": "address"
        },
        {
          "internalType": "uint256",
          "name": "completionTime",
          "type": "uint256"
        },
        {
          "internalType": "uint256",
          "name": "rewardAmount",
          "type": "uint256"
        },
        {
          "internalType": "string",
          "name": "proof",
          "type": "string"
        },
        {
          "internalType": "bool",
          "name": "isVerified",
          "type": "bool"
        }
      ],
      "stateMutability": "view",
      "type": "function"
    },
    {
      "inputs": [],
      "name": "vmfToken",
      "outputs": [
        {
          "internalType": "contract IERC20",
          "name": "",
          "type": "address"
        }
      ],
      "stateMutability": "view",
      "type": "function"
    }
  ],
  "bytecode": "0x60a0346200046257601f6200271238819003918201601f19168301916001600160401b038311848410176200046757808492604094855283396020938491810103126200046257516001600160a01b039283821691829003620004625760019160009483865533156200044a578354336001600160a01b03198216811786558651929091167f8be0079c531659141344cd1fd0a4f28419497f9722a3daafe3b4186f6b6457e08880a381156200040857506080528160035560049380855560098054680100000000000000009081811015620003f5578086620000e5920184556200047d565b620003e35762000101620000fa8254620004af565b82620004ec565b600a644461696c7960d81b019055815481811015620003f55780866200012a920184556200047d565b620003e3576200013f620000fa8254620004af565b600c655765656b6c7960d01b019055815481811015620003f557808662000169920184556200047d565b620003e3576200017e620000fa8254620004af565b600c6514dbd8da585b60d21b019055815481811015620003f5578086620001a8920184556200047d565b620003e357620001bd620000fa8254620004af565b600e6654726164696e6760c81b019055815490811015620003d0578085620001e8920183556200047d565b620003be5784965062000200620000fa8254620004af565b601268436f6d6d756e69747960b81b01905581955b62000241575b84516121c9908162000529823960805181818161069a01528181610b1d01526116dd0152f35b8054861015620003b8578162000257876200047d565b508487519183908054906200026c82620004af565b91858b821691826000146200039f57505060011462000366575b505080600884925203019020556200029e866200047d565b508551908482528390805490620002b582620004af565b91828886015288811690816000146200033a5750600114620002f8575b505096600080516020620026f2833981519152828798999388940390a101959462000215565b85528585208592505b8183106200032657505081018601600080516020620026f283398151915282620002d2565b80548484018a015291860191870162000301565b60ff1916858b01525050151560051b820187019050600080516020620026f283398151915282620002d2565b90915084528184208885915b83831062000387575050508201823862000286565b8054868401528896508994909201918a910162000372565b925093505060ff19168252801515028101903862000286565b6200021b565b634e487b7160e01b8352828752602483fd5b634e487b7160e01b835260418752602483fd5b634e487b7160e01b8452838852602484fd5b634e487b7160e01b845260418852602484fd5b62461bcd60e51b815260048101839052601960248201527f496e76616c696420564d4620746f6b656e2061646472657373000000000000006044820152606490fd5b8451631e4fbdf760e01b815260048101879052602490fd5b600080fd5b634e487b7160e01b600052604160045260246000fd5b6009548110156200049957600960005260206000200190600090565b634e487b7160e01b600052603260045260246000fd5b90600182811c92168015620004e1575b6020831014620004cb57565b634e487b7160e01b600052602260045260246000fd5b91607f1691620004bf565b601f8211620004f9575050565b600090600052601f6020600020920160051c8201915b8281106200051c57505050565b8181556001016200050f56fe6040608081526004908136101561001557600080fd5b600091823560e01c908163023bf95814611a4457816303769cae146119625781631376f1e41461170c5781632086eefa146116c857816320dedd07146116a957816321a26ca9146112a657816322c0aec71461126857816324b5c0341461120757816331b9a1461461118b57816335058ec51461116f5781635c975abb146111485781635f29ac37146110ec57816367ab845b146110ce578163702261f6146110af578163715018a61461106457816374aa34de1461104557816385a9943314610f5a578163866c5cbd14610f115781638da5cb5b14610ee85781638f1d377614610df9578163959c23ad14610d0e578163a04f6b4b14610cea578163a26dbf2614610ccb578163c18dcd6714610892578163ccddf0b01461081e578163d17defcb14610800578163db2e21bc14610660578163e448ee26146103eb578163e8f6940e1461031e578163ee172546146102ff578163f09547b814610256578163f2fde38b146101da57508063f3baf070146101be5763f6ef85cd1461019957600080fd5b346101ba57816003193601126101ba5760209051678ac7230489e800008152f35b5080fd5b50346101ba57816003193601126101ba57602090516103e88152f35b905034610252576020366003190112610252576101f5611b4e565b906101fe612038565b6001600160a01b0391821692831561023c575050600180546001600160a01b031981168417909155166000805160206121748339815191528380a380f35b51631e4fbdf760e01b8152908101849052602490fd5b8280fd5b8383346101ba57806003193601126101ba57610270611b4e565b6001600160a01b039081168352600660205281832080549193602435928310156102fc57506102f0916102a291611d4d565b5080549360018201541694600282015460ff60056102c66003860154948601611c99565b9401541694805197889788526020880152860152606085015260c0608085015260c0840190611b29565b90151560a08301520390f35b80fd5b5050346101ba57816003193601126101ba57602090600b549051908152f35b90503461025257602036600319011261025257803580151581036103e757610344612038565b15610391575060207f62e78cea01bee320cd4e420270b5ea74000d11b0c9f74754ebdbfc544b05a25891610376612064565b6001805460ff60a01b1916600160a01b17905551338152a180f35b6001549060ff8260a01c16156103d9575060ff60a01b1916600155513381527f5db9ee0a495bf2e6ff9c91a7834c1ba4fdd244a5e8aa4e537bd38aeae4b073aa90602090a180f35b8251638dfc202b60e01b8152fd5b8380fd5b8383346101ba57602090816003193601126102525783359061040b612085565b610413612064565b6104208554831115611d69565b8184526002835261043960ff6009838720015416611f3d565b8184526002835261045260058286200154421015611f83565b8184526002835261046b60068286200154421115611fc7565b81845260028352600b81852001338552835260ff8185205416610627573384526007835260ff81852054166105ef5781845260028352808420600881018054600783015411156105bb57338652600b82018552828620805460ff19908116600117909155600d909201805490600160401b8210156105a857600182018082558210156105955787528587200180546001600160a01b031916331790558054959650939492937f44c4b6abb371768de3a7756bdb12fd74800a75207fae3d12f5bcd7a7bc4fcee99361053b90611f2e565b9055338652600585526006828720019081549060ff82161561056a575b50505051924284523393a36001815580f35b6001911617905561057c600c54611f2e565b600c5561058a600d54611f2e565b600d55858080610558565b634e487b7160e01b885260328952602488fd5b634e487b7160e01b885260418952602488fd5b825162461bcd60e51b8152808801869052600e60248201526d10da185b1b195b99d948199d5b1b60921b6044820152606490fd5b5162461bcd60e51b81528085018390526013602482015272155cd95c881a5cc8189b1858dadb1a5cdd1959606a1b6044820152606490fd5b5162461bcd60e51b81528085018390526014602482015273105b1c9958591e481c185c9d1a58da5c185d195960621b6044820152606490fd5b9190503461025257826003193601126102525761067b612038565b80516370a0823160e01b81523083820152602091906001600160a01b037f00000000000000000000000000000000000000000000000000000000000000008116908483602481855afa9283156107f65787936107c3575b508215610787579184916106ff936001541688865180968195829463a9059cbb60e01b84528c840161201d565b03925af190811561077d578591610750575b501561071b578380f35b5162461bcd60e51b815291820152601160248201527015da5d1a191c985dd85b0819985a5b1959607a1b604482015260649150fd5b6107709150833d8511610776575b6107688183611bb5565b810190612005565b38610711565b503d61075e565b82513d87823e3d90fd5b835162461bcd60e51b815280870186905260166024820152754e6f2062616c616e636520746f20776974686472617760501b6044820152606490fd5b9092508481813d83116107ef575b6107db8183611bb5565b810103126107eb575191386106d2565b8680fd5b503d6107d1565b84513d89823e3d90fd5b90503461025257826003193601126102525760209250549051908152f35b5050346101ba57806003193601126101ba577f5b7ef9d8e7fd7ff1dae13005391bc3aa7cc048c7ba41af348e5da4dcbe7323e0602061085b611b4e565b610863611d3e565b9061086c612038565b60018060a01b0316938486526007835261088882828820611f1d565b519015158152a280f35b919050346102525780600319360112610252578135906024356001600160401b038111610cc7576108c69036908501611bd8565b906108cf612085565b6108d7612064565b6108e48454841115611d69565b82855260029160209280845261090260ff6009858a20015416611f3d565b84875280845261091a60058489200154421015611f83565b84875280845261093260068489200154421115611fc7565b848752808452600c83882001338852845260ff8388205416610c9057848752808452600b83882001338852845260ff838820541615610c5957848752808452828720338852600c81018552838820966001978860ff198254161790556109a5600383015461099f336120a8565b90611dc7565b93338a526005875281868b20936109bc8554611f2e565b85558a85016109cc888254611dc7565b9055428286015501546109e460058501918254611dc7565b9055338a5260058752858a20828101908a8662093a80610a05855442611dea565b11610c505760039150820191610a1b8354611f2e565b8093550180548211610c48575b50505b429055610a39600a54611f2e565b600a55610a4885600b54611dc7565b600b558551610a5681611b69565b8881528988820192338452898d8a80860191428352600660608801948d86526080890196875260a089019788523383525220805490600160401b821015610c33578f82018155610aa69190611d4d565b959095610c205751855594518d850180546001600160a01b0319166001600160a01b0392831617905594518885015551600384015551610afa9291600591610af090878501611e0b565b5115159101611f1d565b868651809263a9059cbb60e01b8252818d81610b198b338a840161201d565b03927f0000000000000000000000000000000000000000000000000000000000000000165af1908115610c16578a91610bf9575b5015610bbd575083518381524286820152867f939953dc28f51d09c4cc5eab0df34092ba75f794e37ca4b7b2b55dfa4b2422ce863393a301549282519485528401528201527f185500f72f8dea2f2eed1700236c8f0e33fa790bb722d7633340d13cc0f3202e60603392a2815580f35b845162461bcd60e51b8152908101869052601660248201527514995dd85c99081d1c985b9cd9995c8819985a5b195960521b6044820152606490fd5b610c109150873d8911610776576107688183611bb5565b38610b4d565b86513d8c823e3d90fd5b50634e487b7160e01b8f528e875260248ffd5b5050634e487b7160e01b8f526041875260248ffd5b553880610a28565b90910155610a2b565b825162461bcd60e51b815280870185905260116024820152704e6f742070617274696369706174696e6760781b6044820152606490fd5b825162461bcd60e51b81528087018590526011602482015270105b1c9958591e4818dbdb5c1b195d1959607a1b6044820152606490fd5b8480fd5b5050346101ba57816003193601126101ba57602090600c549051908152f35b5050346101ba57816003193601126101ba5760209051683635c9adc5dea000008152f35b91905034610252576020366003190112610252578060e093610d2e611b4e565b8160c08451610d3c81611b9a565b82815282602082015282868201528260608201528260808201528260a0820152015260018060a01b03168152600560205220815191610d7a83611b9a565b81549384845260018301549160208501928352600284015481860190815260038501549260608701938452850154936080870194855260c060ff600660058901549860a08b01998a5201541697019615158752825197885251602088015251908601525160608501525160808401525160a083015251151560c0820152f35b905082346102fc5760203660031901126102fc578290823581526002602052209182549160018401610e2a90611c99565b93610e3760028201611c99565b6003820154928201546005830154600684015490600785015492600886015494600987015496600a01610e6990611c99565b9880519b8c809c6101809182918152602001528c01610e8791611b29565b908b8203908c0152610e9891611b29565b9660608a0152608089015260a088015260c087015260e086015261010085015260ff8116151561012085015260081c60ff161515610140840152828103610160840152610ee491611b29565b0390f35b5050346101ba57816003193601126101ba5760015490516001600160a01b039091168152602090f35b9050346102525781600319360112610252576009610f57928235610f48610f36611d3e565b94610f3f612038565b54821115611d69565b85526002602052842001611f1d565b80f35b8284346102fc5760203660031901126102fc57819083358454811115610f7f90611d69565b8152600260205220916003830154908301549160058401546006850154600786015460088701549160098801549360018901610fba90611c99565b97610fc760028b01611c99565b99600a01610fd490611c99565b9787519a8b9a610160808d528c01610feb91611b29565b8b810360208d0152610ffc91611b29565b978a01526060890152608088015260a087015260c086015260e085015260ff8116151561010085015260081c60ff161515610120840152828103610140840152610ee491611b29565b5050346101ba57816003193601126101ba57602090600d549051908152f35b83346102fc57806003193601126102fc5761107d612038565b600180546001600160a01b0319811690915581906001600160a01b03166000805160206121748339815191528280a380f35b5050346101ba57816003193601126101ba576020906003549051908152f35b5050346101ba57816003193601126101ba576020905162093a808152f35b8284346102fc5760203660031901126102fc578235906001600160401b0382116102fc57506020611124819461113693369101611bd8565b81845193828580945193849201611b06565b81016008815203019020549051908152f35b5050346101ba57816003193601126101ba5760209060ff60015460a01c1690519015158152f35b5050346101ba57816003193601126101ba5760209051600a8152f35b9050346102525760203660031901126102525760e09282906001600160a01b036111b3611b4e565b16815260056020522080549260018201549260028301546003840154918401549260ff600660058701549601541695815197885260208801528601526060850152608084015260a0830152151560c0820152f35b8284346102fc5760203660031901126102fc5782356009548110156101ba5761122f90611c2e565b93909361125657610ee48361124386611c99565b9051918291602083526020830190611b29565b634e487b7160e01b8252819052602490fd5b5050346101ba5760203660031901126101ba5760209160ff9082906001600160a01b03611293611b4e565b1681526007855220541690519015158152f35b919050346102525760c0366003190112610252576001600160401b03908235828111610cc7576112d99036908501611bd8565b9160249081358181116107eb576112f39036908701611bd8565b916044958635916064918235946084359081116116a5576113179036908301611bd8565b9260a43599611324612038565b61132c612064565b89511561166f5787511561163357678ac7230489e80000861061160457683635c9adc5dea0000086116115d4576001871015806115c9575b15611596578a15158061158a575b156115515750506003549862093a8042019687421161153f57600a8b6113f4936113bc8f946113b38f8f88878e9a5260026020522095865560018601611e0b565b60028401611e0b565b88600383015589868301554260058301558a600683015560078201558d600882015560098101600161ffff1982541617905501611e0b565b6113ff600354611f2e565b60035561140c8154611f2e565b815586519183519260208181870195611426818389611b06565b8101600881520301902054156114bb575b5050916114a186949261146a60206000805160206121548339815191529a98966114939a51809381928651928391611b06565b8101600881520301902061147e8154611f2e565b9055855197889760c0895260c0890190611b29565b908782036020890152611b29565b93850152606084015242608084015260a08301520390a280f35b600954600160401b81101561152d578060016114da9201600955611c2e565b92909261151d5750508261146a60206000805160206121548339815191529a98969461150e6114939b99976114a196611e0b565b9496989a505050929496611437565b634e487b7160e01b8c528b90528afd5b50634e487b7160e01b8b52604182528afd5b634e487b7160e01b8c5260118352838cfd5b601877496e76616c6964206d6178207061727469636970616e747360401b929460208b519562461bcd60e51b8752860152840152820152fd5b506103e88b1115611372565b601271496e76616c696420646966666963756c747960701b929460208b519562461bcd60e51b8752860152840152820152fd5b506005871115611364565b600f6e0a4caeec2e4c840e8dede40d0d2ced608b1b929460208b519562461bcd60e51b8752860152840152820152fd5b600e6d52657761726420746f6f206c6f7760901b929460208b519562461bcd60e51b8752860152840152820152fd5b601b7a4465736372697074696f6e2063616e6e6f7420626520656d70747960281b929460208b519562461bcd60e51b8752860152840152820152fd5b6015745469746c652063616e6e6f7420626520656d70747960581b929460208b519562461bcd60e51b8752860152840152820152fd5b8a80fd5b5050346101ba57816003193601126101ba57602090600a549051908152f35b5050346101ba57816003193601126101ba57517f00000000000000000000000000000000000000000000000000000000000000006001600160a01b03168152602090f35b8284346102fc57606092836003193601126101ba57611729611b4e565b906024359260018060a01b0380931681526020916006835285822094855491828210156119295761175c60443583611dc7565b92808411611921575b5061177582849996959799611dea565b9661179761178289611db0565b9861178f88519a8b611bb5565b808a52611db0565b601f1901875b8b8282106118e057505050825b8a858210611854575050505050508151948186019282875285518094528087019183828660051b8a0101970195985b858a106117e65788880389f35b909192939495968580600192603f198c82030188528a519061183560c08351835288858501511685840152898401518a8401528784015188840152608090808286015192850152830190611b29565b9160a080910151151591015299019501990198929190959493956117d9565b906118d4888c6118cd8a9b9e9c9a8e60ff60058c60019a6118806118788c8f611d4d565b50928c611dea565b98899681519961188f8b611b69565b84548b528e85015416908a01526002830154908901526003820154908801526118b98d8201611c99565b6080880152015416151560a0850152611df7565b528b611df7565b500198959496986117aa565b90888a899a9d9b9993818351936118f685611b69565b81855281878601528401528201528d60808201528860a082015282828d01015201999695979961179d565b925089611765565b875162461bcd60e51b81529081018590526013602482015272092dcecc2d8d2c840e6e8c2e4e840d2dcc8caf606b1b6044820152606490fd5b8284346102fc57806003193601126102fc5760095461198081611db0565b9161198d84519384611bb5565b8183526009815260209283810192827f6e1540171b6c0c960b71a7020d9f60077f6af931a8bbf590da0223dacf75c7af855b838310611a2057505050508451938085019181865251809252858501958260051b8601019392955b8287106119f45785850386f35b909192938280611a10600193603f198a82030186528851611b29565b96019201960195929190926119e7565b6001888192611a32859b98999b611c99565b815201920192019190969493966119bf565b905082346102fc57602091826003193601126101ba57611a6c81949394359154821115611d69565b815260028352600d82822001908251808584549182815201908194845286842090845b818110611ae95750505081611aa5910382611bb5565b83519485948186019282875251809352850193925b828110611ac957505050500390f35b83516001600160a01b031685528695509381019392810192600101611aba565b82546001600160a01b031684529288019260019283019201611a8f565b60005b838110611b195750506000910152565b8181015183820152602001611b09565b90602091611b4281518092818552858086019101611b06565b601f01601f1916010190565b600435906001600160a01b0382168203611b6457565b600080fd5b60c081019081106001600160401b03821117611b8457604052565b634e487b7160e01b600052604160045260246000fd5b60e081019081106001600160401b03821117611b8457604052565b601f909101601f19168101906001600160401b03821190821017611b8457604052565b81601f82011215611b64578035906001600160401b038211611b845760405192611c0c601f8401601f191660200185611bb5565b82845260208383010111611b6457816000926020809301838601378301015290565b600954811015611c4957600960005260206000200190600090565b634e487b7160e01b600052603260045260246000fd5b90600182811c92168015611c8f575b6020831014611c7957565b634e487b7160e01b600052602260045260246000fd5b91607f1691611c6e565b90604051918260008254611cac81611c5f565b90818452602094600191600181169081600014611d1c5750600114611cdd575b505050611cdb92500383611bb5565b565b600090815285812095935091905b818310611d04575050611cdb9350820101388080611ccc565b85548884018501529485019487945091830191611ceb565b92505050611cdb94925060ff191682840152151560051b820101388080611ccc565b602435908115158203611b6457565b8054821015611c49576000526006602060002091020190600090565b15611d7057565b60405162461bcd60e51b815260206004820152601860248201527710da185b1b195b99d948191bd95cc81b9bdd08195e1a5cdd60421b6044820152606490fd5b6001600160401b038111611b845760051b60200190565b91908201809211611dd457565b634e487b7160e01b600052601160045260246000fd5b91908203918211611dd457565b8051821015611c495760209160051b010190565b81519192916001600160401b038111611b8457611e288254611c5f565b601f8111611ed3575b50602080601f8311600114611e6e575081929394600092611e63575b50508160011b916000199060031b1c1916179055565b015190503880611e4d565b90601f19831695846000526020600020926000905b888210611ebb57505083600195969710611ea2575b505050811b019055565b015160001960f88460031b161c19169055388080611e98565b80600185968294968601518155019501930190611e83565b6000836000526020600020601f840160051c81019260208510611f13575b601f0160051c01915b828110611f08575050611e31565b818155600101611efa565b9092508290611ef1565b9060ff801983541691151516179055565b6000198114611dd45760010190565b15611f4457565b60405162461bcd60e51b81526020600482015260176024820152764368616c6c656e6765206973206e6f742061637469766560481b6044820152606490fd5b15611f8a57565b60405162461bcd60e51b815260206004820152601560248201527410da185b1b195b99d9481b9bdd081cdd185c9d1959605a1b6044820152606490fd5b15611fce57565b60405162461bcd60e51b815260206004820152600f60248201526e10da185b1b195b99d948195b991959608a1b6044820152606490fd5b90816020910312611b6457518015158103611b645790565b6001600160a01b039091168152602081019190915260400190565b6001546001600160a01b0316330361204c57565b60405163118cdaa760e01b8152336004820152602490fd5b60ff60015460a01c1661207357565b60405163d93c066560e01b8152600490fd5b600260005414612096576002600055565b604051633ee5aeb560e01b8152600490fd5b6001600160a01b031660009081526005602052604081206002015490811561214e57600a820291808304600a0361213a5760035460001981019081116121265782526002602052600a60036040842001549182020292818404149015171561211257506064900490565b634e487b7160e01b81526011600452602490fd5b634e487b7160e01b83526011600452602483fd5b634e487b7160e01b82526011600452602482fd5b90509056fedb8469a3623f9a13612e6532589a59dd1422d4a88f7e749c97d770e56248e9068be0079c531659141344cd1fd0a4f28419497f9722a3daafe3b4186f6b6457e0a2646970667358221220ae72a88698bfd803924db7c76015b61db8821eb0aae447547e18e72d9448ed7364736f6c6343000818003383c0d2e1f23741433c1b43ceae1ebc1f26593a1aaab67366bd3ed29491ae1d8d",
  "linkReferences": {},
  "deployedLinkReferences": {}
}