{
  "_format": "hh-sol-artifact-1",
  "contractName": "SecureReferralSystem",
  "sourceName": "contracts/SecureReferralSystem.sol",
  "abi": [
    {
      "inputs": [
        {
          "internalType": "address",
          "name": "_randomnessContract",
          "type": "address"
        }
      ],
      "stateMutability": "nonpayable",
      "type": "constructor"
    },
    {
      "inputs": [],
      "name": "EnforcedPause",
      "type": "error"
    },
    {
      "inputs": [],
      "name": "ExpectedPause",
      "type": "error"
    },
    {
      "inputs": [
        {
          "internalType": "address",
          "name": "owner",
          "type": "address"
        }
      ],
      "name": "OwnableInvalidOwner",
      "type": "error"
    },
    {
      "inputs": [
        {
          "internalType": "address",
          "name": "account",
          "type": "address"
        }
      ],
      "name": "OwnableUnauthorizedAccount",
      "type": "error"
    },
    {
      "inputs": [],
      "name": "ReentrancyGuardReentrantCall",
      "type": "error"
    },
    {
      "anonymous": false,
      "inputs": [
        {
          "indexed": true,
          "internalType": "bytes32",
          "name": "codeHash",
          "type": "bytes32"
        },
        {
          "indexed": true,
          "internalType": "address",
          "name": "creator",
          "type": "address"
        },
        {
          "indexed": false,
          "internalType": "uint256",
          "name": "reclaimedAmount",
          "type": "uint256"
        }
      ],
      "name": "CodeReclaimed",
      "type": "event"
    },
    {
      "anonymous": false,
      "inputs": [
        {
          "indexed": true,
          "internalType": "address",
          "name": "previousOwner",
          "type": "address"
        },
        {
          "indexed": true,
          "internalType": "address",
          "name": "newOwner",
          "type": "address"
        }
      ],
      "name": "OwnershipTransferred",
      "type": "event"
    },
    {
      "anonymous": false,
      "inputs": [
        {
          "indexed": false,
          "internalType": "address",
          "name": "account",
          "type": "address"
        }
      ],
      "name": "Paused",
      "type": "event"
    },
    {
      "anonymous": false,
      "inputs": [
        {
          "indexed": true,
          "internalType": "bytes32",
          "name": "codeHash",
          "type": "bytes32"
        },
        {
          "indexed": true,
          "internalType": "address",
          "name": "claimer",
          "type": "address"
        },
        {
          "indexed": true,
          "internalType": "address",
          "name": "creator",
          "type": "address"
        },
        {
          "indexed": false,
          "internalType": "uint256",
          "name": "rewardAmount",
          "type": "uint256"
        },
        {
          "indexed": false,
          "internalType": "uint256",
          "name": "claimTime",
          "type": "uint256"
        }
      ],
      "name": "ReferralCodeClaimed",
      "type": "event"
    },
    {
      "anonymous": false,
      "inputs": [
        {
          "indexed": true,
          "internalType": "bytes32",
          "name": "codeHash",
          "type": "bytes32"
        },
        {
          "indexed": true,
          "internalType": "address",
          "name": "creator",
          "type": "address"
        },
        {
          "indexed": false,
          "internalType": "uint256",
          "name": "expiryTime",
          "type": "uint256"
        }
      ],
      "name": "ReferralCodeExpired",
      "type": "event"
    },
    {
      "anonymous": false,
      "inputs": [
        {
          "indexed": true,
          "internalType": "bytes32",
          "name": "codeHash",
          "type": "bytes32"
        },
        {
          "indexed": true,
          "internalType": "address",
          "name": "creator",
          "type": "address"
        },
        {
          "indexed": false,
          "internalType": "string",
          "name": "codeString",
          "type": "string"
        },
        {
          "indexed": false,
          "internalType": "uint256",
          "name": "expiry",
          "type": "uint256"
        },
        {
          "indexed": false,
          "internalType": "uint256",
          "name": "maxClaims",
          "type": "uint256"
        },
        {
          "indexed": false,
          "internalType": "uint256",
          "name": "rewardAmount",
          "type": "uint256"
        }
      ],
      "name": "ReferralCodeGenerated",
      "type": "event"
    },
    {
      "anonymous": false,
      "inputs": [
        {
          "indexed": true,
          "internalType": "address",
          "name": "user",
          "type": "address"
        },
        {
          "indexed": false,
          "internalType": "uint256",
          "name": "amount",
          "type": "uint256"
        },
        {
          "indexed": false,
          "internalType": "string",
          "name": "reason",
          "type": "string"
        }
      ],
      "name": "RewardDistributed",
      "type": "event"
    },
    {
      "anonymous": false,
      "inputs": [
        {
          "indexed": false,
          "internalType": "address",
          "name": "account",
          "type": "address"
        }
      ],
      "name": "Unpaused",
      "type": "event"
    },
    {
      "anonymous": false,
      "inputs": [
        {
          "indexed": true,
          "internalType": "address",
          "name": "user",
          "type": "address"
        },
        {
          "indexed": false,
          "internalType": "bool",
          "name": "blacklisted",
          "type": "bool"
        },
        {
          "indexed": false,
          "internalType": "string",
          "name": "reason",
          "type": "string"
        }
      ],
      "name": "UserBlacklisted",
      "type": "event"
    },
    {
      "inputs": [],
      "name": "BONUS_REWARD_AMOUNT",
      "outputs": [
        {
          "internalType": "uint256",
          "name": "",
          "type": "uint256"
        }
      ],
      "stateMutability": "view",
      "type": "function"
    },
    {
      "inputs": [],
      "name": "CLAIM_COOLDOWN",
      "outputs": [
        {
          "internalType": "uint256",
          "name": "",
          "type": "uint256"
        }
      ],
      "stateMutability": "view",
      "type": "function"
    },
    {
      "inputs": [],
      "name": "CODE_EXPIRY_DURATION",
      "outputs": [
        {
          "internalType": "uint256",
          "name": "",
          "type": "uint256"
        }
      ],
      "stateMutability": "view",
      "type": "function"
    },
    {
      "inputs": [],
      "name": "DEFAULT_REWARD_AMOUNT",
      "outputs": [
        {
          "internalType": "uint256",
          "name": "",
          "type": "uint256"
        }
      ],
      "stateMutability": "view",
      "type": "function"
    },
    {
      "inputs": [],
      "name": "GENERATION_COOLDOWN",
      "outputs": [
        {
          "internalType": "uint256",
          "name": "",
          "type": "uint256"
        }
      ],
      "stateMutability": "view",
      "type": "function"
    },
    {
      "inputs": [],
      "name": "MAX_CLAIMS_PER_CODE",
      "outputs": [
        {
          "internalType": "uint256",
          "name": "",
          "type": "uint256"
        }
      ],
      "stateMutability": "view",
      "type": "function"
    },
    {
      "inputs": [],
      "name": "MAX_CODES_PER_USER",
      "outputs": [
        {
          "internalType": "uint256",
          "name": "",
          "type": "uint256"
        }
      ],
      "stateMutability": "view",
      "type": "function"
    },
    {
      "inputs": [],
      "name": "MAX_CODE_LENGTH",
      "outputs": [
        {
          "internalType": "uint256",
          "name": "",
          "type": "uint256"
        }
      ],
      "stateMutability": "view",
      "type": "function"
    },
    {
      "inputs": [],
      "name": "MIN_CODE_LENGTH",
      "outputs": [
        {
          "internalType": "uint256",
          "name": "",
          "type": "uint256"
        }
      ],
      "stateMutability": "view",
      "type": "function"
    },
    {
      "inputs": [
        {
          "internalType": "address",
          "name": "",
          "type": "address"
        }
      ],
      "name": "blacklistedAddresses",
      "outputs": [
        {
          "internalType": "bool",
          "name": "",
          "type": "bool"
        }
      ],
      "stateMutability": "view",
      "type": "function"
    },
    {
      "inputs": [
        {
          "internalType": "bytes32",
          "name": "codeHash",
          "type": "bytes32"
        }
      ],
      "name": "claimReferralCode",
      "outputs": [],
      "stateMutability": "nonpayable",
      "type": "function"
    },
    {
      "inputs": [
        {
          "internalType": "bytes32",
          "name": "",
          "type": "bytes32"
        },
        {
          "internalType": "uint256",
          "name": "",
          "type": "uint256"
        }
      ],
      "name": "codeClaims",
      "outputs": [
        {
          "internalType": "address",
          "name": "claimer",
          "type": "address"
        },
        {
          "internalType": "uint256",
          "name": "claimTime",
          "type": "uint256"
        },
        {
          "internalType": "uint256",
          "name": "rewardAmount",
          "type": "uint256"
        },
        {
          "internalType": "bool",
          "name": "isProcessed",
          "type": "bool"
        }
      ],
      "stateMutability": "view",
      "type": "function"
    },
    {
      "inputs": [
        {
          "internalType": "uint256",
          "name": "maxClaims",
          "type": "uint256"
        },
        {
          "internalType": "uint256",
          "name": "rewardAmount",
          "type": "uint256"
        }
      ],
      "name": "generateBlockhashReferralCode",
      "outputs": [],
      "stateMutability": "nonpayable",
      "type": "function"
    },
    {
      "inputs": [
        {
          "internalType": "uint256",
          "name": "requestId",
          "type": "uint256"
        },
        {
          "internalType": "uint256",
          "name": "maxClaims",
          "type": "uint256"
        },
        {
          "internalType": "uint256",
          "name": "rewardAmount",
          "type": "uint256"
        }
      ],
      "name": "generateVRFReferralCode",
      "outputs": [],
      "stateMutability": "nonpayable",
      "type": "function"
    },
    {
      "inputs": [
        {
          "internalType": "bytes32",
          "name": "codeHash",
          "type": "bytes32"
        }
      ],
      "name": "getReferralCode",
      "outputs": [
        {
          "internalType": "address",
          "name": "creator",
          "type": "address"
        },
        {
          "internalType": "uint256",
          "name": "expiry",
          "type": "uint256"
        },
        {
          "internalType": "bool",
          "name": "claimed",
          "type": "bool"
        },
        {
          "internalType": "uint256",
          "name": "claimCount",
          "type": "uint256"
        },
        {
          "internalType": "uint256",
          "name": "maxClaims",
          "type": "uint256"
        },
        {
          "internalType": "uint256",
          "name": "rewardAmount",
          "type": "uint256"
        },
        {
          "internalType": "string",
          "name": "codeString",
          "type": "string"
        },
        {
          "internalType": "bool",
          "name": "isActive",
          "type": "bool"
        }
      ],
      "stateMutability": "view",
      "type": "function"
    },
    {
      "inputs": [],
      "name": "getSystemStats",
      "outputs": [
        {
          "internalType": "uint256",
          "name": "totalCodesGenerated",
          "type": "uint256"
        },
        {
          "internalType": "uint256",
          "name": "totalCodesClaimed",
          "type": "uint256"
        },
        {
          "internalType": "uint256",
          "name": "totalRewardsDistributed",
          "type": "uint256"
        }
      ],
      "stateMutability": "view",
      "type": "function"
    },
    {
      "inputs": [
        {
          "internalType": "address",
          "name": "user",
          "type": "address"
        }
      ],
      "name": "getUserReferralData",
      "outputs": [
        {
          "internalType": "uint256",
          "name": "totalCodesCreated",
          "type": "uint256"
        },
        {
          "internalType": "uint256",
          "name": "totalCodesClaimed",
          "type": "uint256"
        },
        {
          "internalType": "uint256",
          "name": "totalRewardsEarned",
          "type": "uint256"
        },
        {
          "internalType": "uint256",
          "name": "lastCodeGeneration",
          "type": "uint256"
        },
        {
          "internalType": "bool",
          "name": "isBlacklisted",
          "type": "bool"
        },
        {
          "internalType": "uint256",
          "name": "cooldownEndTime",
          "type": "uint256"
        }
      ],
      "stateMutability": "view",
      "type": "function"
    },
    {
      "inputs": [],
      "name": "owner",
      "outputs": [
        {
          "internalType": "address",
          "name": "",
          "type": "address"
        }
      ],
      "stateMutability": "view",
      "type": "function"
    },
    {
      "inputs": [],
      "name": "paused",
      "outputs": [
        {
          "internalType": "bool",
          "name": "",
          "type": "bool"
        }
      ],
      "stateMutability": "view",
      "type": "function"
    },
    {
      "inputs": [],
      "name": "randomnessContract",
      "outputs": [
        {
          "internalType": "contract FreeRandomness",
          "name": "",
          "type": "address"
        }
      ],
      "stateMutability": "view",
      "type": "function"
    },
    {
      "inputs": [
        {
          "internalType": "bytes32",
          "name": "codeHash",
          "type": "bytes32"
        }
      ],
      "name": "reclaimExpiredCode",
      "outputs": [],
      "stateMutability": "nonpayable",
      "type": "function"
    },
    {
      "inputs": [
        {
          "internalType": "bytes32",
          "name": "",
          "type": "bytes32"
        }
      ],
      "name": "referralCodes",
      "outputs": [
        {
          "internalType": "bytes32",
          "name": "codeHash",
          "type": "bytes32"
        },
        {
          "internalType": "address",
          "name": "creator",
          "type": "address"
        },
        {
          "internalType": "uint256",
          "name": "expiry",
          "type": "uint256"
        },
        {
          "internalType": "bool",
          "name": "claimed",
          "type": "bool"
        },
        {
          "internalType": "uint256",
          "name": "claimCount",
          "type": "uint256"
        },
        {
          "internalType": "uint256",
          "name": "maxClaims",
          "type": "uint256"
        },
        {
          "internalType": "uint256",
          "name": "rewardAmount",
          "type": "uint256"
        },
        {
          "internalType": "string",
          "name": "codeString",
          "type": "string"
        },
        {
          "internalType": "bool",
          "name": "isActive",
          "type": "bool"
        }
      ],
      "stateMutability": "view",
      "type": "function"
    },
    {
      "inputs": [],
      "name": "renounceOwnership",
      "outputs": [],
      "stateMutability": "nonpayable",
      "type": "function"
    },
    {
      "inputs": [
        {
          "internalType": "bool",
          "name": "paused",
          "type": "bool"
        }
      ],
      "name": "setPaused",
      "outputs": [],
      "stateMutability": "nonpayable",
      "type": "function"
    },
    {
      "inputs": [
        {
          "internalType": "address",
          "name": "user",
          "type": "address"
        },
        {
          "internalType": "bool",
          "name": "blacklisted",
          "type": "bool"
        },
        {
          "internalType": "string",
          "name": "reason",
          "type": "string"
        }
      ],
      "name": "setUserBlacklisted",
      "outputs": [],
      "stateMutability": "nonpayable",
      "type": "function"
    },
    {
      "inputs": [],
      "name": "totalCodesClaimed",
      "outputs": [
        {
          "internalType": "uint256",
          "name": "",
          "type": "uint256"
        }
      ],
      "stateMutability": "view",
      "type": "function"
    },
    {
      "inputs": [],
      "name": "totalCodesGenerated",
      "outputs": [
        {
          "internalType": "uint256",
          "name": "",
          "type": "uint256"
        }
      ],
      "stateMutability": "view",
      "type": "function"
    },
    {
      "inputs": [],
      "name": "totalRewardsDistributed",
      "outputs": [
        {
          "internalType": "uint256",
          "name": "",
          "type": "uint256"
        }
      ],
      "stateMutability": "view",
      "type": "function"
    },
    {
      "inputs": [
        {
          "internalType": "address",
          "name": "newOwner",
          "type": "address"
        }
      ],
      "name": "transferOwnership",
      "outputs": [],
      "stateMutability": "nonpayable",
      "type": "function"
    },
    {
      "inputs": [
        {
          "internalType": "address",
          "name": "",
          "type": "address"
        }
      ],
      "name": "userClaimCount",
      "outputs": [
        {
          "internalType": "uint256",
          "name": "",
          "type": "uint256"
        }
      ],
      "stateMutability": "view",
      "type": "function"
    },
    {
      "inputs": [
        {
          "internalType": "address",
          "name": "",
          "type": "address"
        }
      ],
      "name": "userReferralData",
      "outputs": [
        {
          "internalType": "uint256",
          "name": "totalCodesCreated",
          "type": "uint256"
        },
        {
          "internalType": "uint256",
          "name": "totalCodesClaimed",
          "type": "uint256"
        },
        {
          "internalType": "uint256",
          "name": "totalRewardsEarned",
          "type": "uint256"
        },
        {
          "internalType": "uint256",
          "name": "lastCodeGeneration",
          "type": "uint256"
        },
        {
          "internalType": "bool",
          "name": "isBlacklisted",
          "type": "bool"
        },
        {
          "internalType": "uint256",
          "name": "cooldownEndTime",
          "type": "uint256"
        }
      ],
      "stateMutability": "view",
      "type": "function"
    }
  ],
  "bytecode": "0x60803461011957601f6120e938819003918201601f19168301916001600160401b0383118484101761011e5780849260209460405283398101031261011957516001600160a01b038082169182900361011957600160005533156101005760018054336001600160a01b0319808316821790935560405192939091167f8be0079c531659141344cd1fd0a4f28419497f9722a3daafe3b4186f6b6457e0600080a382156100be57506002541617600255604051611fb490816101358239f35b62461bcd60e51b815260206004820152601b60248201527f496e76616c69642072616e646f6d6e65737320636f6e747261637400000000006044820152606490fd5b604051631e4fbdf760e01b815260006004820152602490fd5b600080fd5b634e487b7160e01b600052604160045260246000fdfe608080604052600436101561001357600080fd5b60e0600035811c9182630b66e16714611963575081630eaeaa5a146119455781630ee9995d1461192757816316c38b3c1461185b578163257e662b1461175d57816333b5951f1461173f57816337c909ec1461172257816341fe39ec146116f9578163443d2336146116dd5781635c975abb146116b75781635e30acb41461169a578163616765341461167e5781636d7ce1b914611662578163715018a614611617578163760c4e71146110555781637daf90361461101b5781637e64454714610f6b5781638da5cb5b14610f4257816391be6f7614610ed05781639be403b914610e71578163a043846714610aec578163b57da7c514610ad0578163c6968bd6146106be57508063d1ce59a714610694578063d5749d4214610655578063d83123c714610639578063e1c8e97614610596578063e75d69d91461036d578063ee1725461461034f578063ee34af88146101f15763f2fde38b1461017657600080fd5b346101ec5760203660031901126101ec5761018f6119c5565b610197611d65565b6001600160a01b039081169081156101d357600180546001600160a01b03198116841790915516600080516020611f5f833981519152600080a3005b604051631e4fbdf760e01b815260006004820152602490fd5b600080fd5b346101ec5760603660031901126101ec5761020a6119c5565b602435908115158083036101ec576001600160401b0391604435908382116101ec57366023830112156101ec578160040135938411610339576020936040519261025d86601f19601f8501160185611a67565b81845236602483830101116101ec578160009260248893018387013784010152610285611d65565b6001600160a01b0316938415610302577fba33a16e1d447fa7b480cfb19ea81a8d6a020c85274203e49036f10a5459faf59392916102e76102fd9287600052600586526102d6816040600020611bda565b600486526004604060002001611bda565b60408051948594855284015260408301906119a0565b0390a2005b60405162461bcd60e51b815260048101859052600f60248201526e496e76616c6964206164647265737360881b6044820152606490fd5b634e487b7160e01b600052604160045260246000fd5b346101ec5760003660031901126101ec576020600a54604051908152f35b346101ec576020806003193601126101ec5760043561038a611d91565b610392611db4565b600081815260038084526040909120600101546001600160a01b0316330361055e57816000528083526002604060002001544210610526578160005280835260ff60086040600020015416156104e857816000528083526040600020906004600583015492015491828103928184116104d2578460005282865260066040600020015480850294850414911417156104d257826000528352600860406000200160ff198154169055336000526004835261045481600260406000200154611bcd565b336000526004845260026040600020015561047181600a54611bcd565b600a55604051908152817f48f7cf00ff0fd3ccaeb2b216453d429b0d13fd7c09b8e2adf1598ded04b797e4843393a37f20e379900dcdd0c9be20e3fa80e12cc2a1b877d5c2c967499da1019245d53e3a604051924284523393a36001600055005b634e487b7160e01b600052601160045260246000fd5b60405162461bcd60e51b815260048101849052601660248201527510dbd91948185b1c9958591e481c9958db185a5b595960521b6044820152606490fd5b60405162461bcd60e51b815260048101849052601060248201526f10dbd919481b9bdd08195e1c1a5c995960821b6044820152606490fd5b60405162461bcd60e51b815260048101849052601060248201526f2737ba1031b7b2329031b932b0ba37b960811b6044820152606490fd5b346101ec5760203660031901126101ec576001600160a01b036105b76119c5565b16600052600460205260406000206040519060c0820182811060018060401b038211176103395760405261063560a08254928385526001810154948560208201526002820154806040830152600383015491826060820152600560ff6004860154161515948560808401520154948591015260405196879687611b61565b0390f35b346101ec5760003660031901126101ec57602060405160648152f35b346101ec5760203660031901126101ec576001600160a01b036106766119c5565b166000526005602052602060ff604060002054166040519015158152f35b346101ec5760003660031901126101ec576060604051600081526000602082015260006040820152f35b346101ec5760603660031901126101ec576106d7611d91565b6106df611db4565b3360005260056020526106fa60ff6040600020541615611b8b565b33600052600460205261071860ff6004604060002001541615611b8b565b336000526004602052610735600560406000200154421015611beb565b602435151580610ac3575b61074990611c2d565b6107566044351515611c6e565b336000526004602052610770600a60406000205410611cb2565b60025460405163c142e49560e01b81526001600160a01b03916020908290600490829086165afa908115610ab757600091610a85575b5060405160208101913360601b835260043560348301524260548301526074820152607481526107d581611a31565b519020908160005260036020526107f6816001604060002001541615611cfb565b6107ff82611dd5565b9262278d00420142116104d2576040519061081982611a15565b83825260208201903382526040830162278d004201815260608401600081526108a060808601916000835260a0870193602435855260c088019560443587528801968b885260016101008a01528a600052600360205260406000209989518b5560018b0191511660018060a01b031982541617905551600289015551151560038801611bda565b516004860155516005850155516006840155518051906001600160401b038211610339576108d160078501546119db565b601f8111610a3e575b50602090601f83116001146109c45792826008936101009361092297966000926109b9575b50508160011b916000199060031b1c19161760078501555b015115159101611bda565b336000526004602052604060002054600181018091116104d2573360005260046020526040600020908155600342910155610e1042018042116104d257336000526004602052600560406000200155600854600181018091116104d257600855600080516020611f3f833981519152604051806109af3395604435906024359062278d0042019085611d3d565b0390a36001600055005b0151905089806108ff565b906007850160005260206000209160005b601f1985168110610a2657508361010093610922979693600193600897601f19811610610a0d575b505050811b016007850155610917565b015160001960f88460031b161c191690558980806109fd565b919260206001819286850151815501940192016109d5565b600785016000526020600020601f840160051c810160208510610a7e575b601f830160051c82018110610a725750506108da565b60008155600101610a5c565b5080610a5c565b90506020813d602011610aaf575b81610aa060209383611a67565b810103126101ec5751836107a6565b3d9150610a93565b6040513d6000823e3d90fd5b5060646024351115610740565b346101ec5760003660031901126101ec57602060405160068152f35b346101ec5760403660031901126101ec57610b05611d91565b610b0d611db4565b336000526005602052610b2860ff6040600020541615611b8b565b336000526004602052610b4660ff6004604060002001541615611b8b565b336000526004602052610b63600560406000200154421015611beb565b600435151580610e64575b610b7790611c2d565b610b846024351515611c6e565b336000526004602052610b9e600a60406000205410611cb2565b60001943014381116104d25760405160208101913360601b835242603483015244605483015240607482015260748152610bd781611a31565b519020600081815260036020526040902060010154610bff906001600160a01b031615611cfb565b610c0881611dd5565b9162278d00420142116104d257604051610c2181611a15565b8281526020810191338352604082019062278d004201825260608301600081526080840160008152610cb060a0860192600435845260c087019460243586528701958a8752600161010089015289600052600360205260406000209888518a5560018a019060018060a01b0390511660018060a01b031982541617905551600289015551151560038801611bda565b516004860155516005850155516006840155518051906001600160401b03821161033957610ce160078501546119db565b601f8111610e1d575b50602090601f8311600114610dbd57928260089361010093610d3097966000926109b95750508160011b916000199060031b1c1916176007850155015115159101611bda565b336000526004602052604060002054600181018091116104d2573360005260046020526040600020908155600342910155610e1042018042116104d257336000526004602052600560406000200155600854600181018091116104d257600855600080516020611f3f833981519152604051806109af3395602435906004359062278d0042019085611d3d565b906007850160005260206000209160005b601f1985168110610e0557508361010093610d30979693600193600897601f19811610610a0d57505050811b016007850155610917565b91926020600181928685015181550194019201610dce565b600785016000526020600020601f840160051c810160208510610e5d575b601f830160051c82018110610e51575050610cea565b60008155600101610e3b565b5080610e3b565b5060646004351115610b6e565b346101ec5760203660031901126101ec576001600160a01b03610e926119c5565b166000526004602052604060002080546106356001830154926002810154906003810154600560ff6004840154169201549260405196879687611b61565b346101ec5760403660031901126101ec576024356004356000526006602052604060002080548210156101ec57608091610f0991611b2f565b5060018060a01b038154169060018101549060ff6003600283015492015416916040519384526020840152604083015215156060820152f35b346101ec5760003660031901126101ec576001546040516001600160a01b039091168152602090f35b346101ec5760203660031901126101ec576004356000526003602052604060002080549161100e60018060a01b036001840154169260028101549360ff60038301541695600483015494600584015460068501549060ff6008610fd060078901611a8a565b97015416976040519a8b9a6101209788978d5260208d015260408c0152151560608b015260808a015260a089015260c08801528601528401906119a0565b9015156101008301520390f35b346101ec5760203660031901126101ec576001600160a01b0361103c6119c5565b1660005260076020526020604060002054604051908152f35b346101ec5760203660031901126101ec5761106e611d91565b611076611db4565b33600052600560205261109160ff6040600020541615611b8b565b3360005260046020526110af60ff6004604060002001541615611b8b565b600435600052600360205260ff60086040600020015416156115dd5760043560005260036020526002604060002001544210156115a5576004356000526003602052604060002060056004820154910154111561156a576004356000908152600360205260409020600101546001600160a01b03163314611528576000805b600435600052600660205260406000208054821015611521578161115191611b2f565b50546001600160a01b0316331461116a5760010161112e565b505060015b6114e057336000526004602052600560406000200154421061149f576004356000526003602052604060002060066020526040600020600682015490604051916080830183811060018060401b03821117610339576040908152338452426020850152830152600160608301528054600160401b811015610339576111f991600182018155611b2f565b61148957815181546001600160a01b0319166001600160a01b03919091161781556020820151600182015560408201516002820155606091909101516112459190151590600301611bda565b336000526004602052611265600260406000200154600683015490611bcd565b336000526004602052600260406000200155600181019060018060a01b038254168060005260026040600020015490600582018092116104d25760005260046020526002604060002001556112c1600a54600683015490611bcd565b90600582018092116104d257600691600a55015490604051918252604060208301526013604083015272526566657272616c20636f646520636c61696d60681b60608301527f49649141d16971a88c3cfdd73fec34babb1cf163cf8b804c8f537a023c6ce506918260803392a260018060a01b039054169060806040516005815260406020820152601b60408201527a526566657272616c20636f64652063726561746f7220626f6e757360281b6060820152a2336000526004602052600160406000200154600181018091116104d25733600052600460205260016040600020015561070842018042116104d2573360005260046020526005604060002001556004356000526003602052600460406000200154600181018091116104d257600435600052600360205260406000209080600483015560058201541115611475575b50600954600181018091116104d25760095560043560005260036020526040600020600660018060a01b0360018301541691015460405190815242602082015233907f6894183a89eebf39fb35448291da068439ab5c77503a94e4c672d77ddddd69e1604060043592a46001600055005b600301805460ff1916600117905580611404565b634e487b7160e01b600052600060045260246000fd5b60405162461bcd60e51b815260206004820152601960248201527810db185a5b481c985d19481b1a5b5a5d08195e18d959591959603a1b6044820152606490fd5b60405162461bcd60e51b8152602060048201526019602482015278416c726561647920636c61696d6564207468697320636f646560381b6044820152606490fd5b505061116f565b60405162461bcd60e51b815260206004820152601a60248201527943616e6e6f7420636c61696d20796f7572206f776e20636f646560301b6044820152606490fd5b60405162461bcd60e51b815260206004820152601360248201527210db185a5b481b1a5b5a5d081c995858da1959606a1b6044820152606490fd5b60405162461bcd60e51b815260206004820152601060248201526f10dbd919481a185cc8195e1c1a5c995960821b6044820152606490fd5b60405162461bcd60e51b8152602060048201526012602482015271436f6465206973206e6f742061637469766560701b6044820152606490fd5b346101ec5760003660031901126101ec57611630611d65565b600180546001600160a01b031981169091556000906001600160a01b0316600080516020611f5f8339815191528280a3005b346101ec5760003660031901126101ec57602060405160028152f35b346101ec5760003660031901126101ec57602060405160058152f35b346101ec5760003660031901126101ec576020604051610e108152f35b346101ec5760003660031901126101ec57602060ff60015460a01c166040519015158152f35b346101ec5760003660031901126101ec576020604051600a8152f35b346101ec5760003660031901126101ec576002546040516001600160a01b039091168152602090f35b346101ec5760003660031901126101ec5760206040516107088152f35b346101ec5760003660031901126101ec576020600854604051908152f35b346101ec5760203660031901126101ec57600435600052600360205260406000206040519161178b83611a15565b8154835260018060a01b03926118538460018501541693602083019485526002810154946040840195865260ff6003830154169660608501971515885260048301549060808601918252600584015460a0870190815260068501549160c0880192835260ff60086117fe60078901611a8a565b97888c8c0152015416946101009889961515998a9101525116985199511515925190519151926040519a8b9a8b5260208b015260408a01526060890152608088015260a08701528060c08701528501906119a0565b918301520390f35b346101ec5760203660031901126101ec5760043580151581036101ec57611880611d65565b156118ce5761188d611db4565b6001805460ff60a01b1916600160a01b1790556040513381527f62e78cea01bee320cd4e420270b5ea74000d11b0c9f74754ebdbfc544b05a25890602090a1005b60015460ff8160a01c16156119155760ff60a01b19166001556040513381527f5db9ee0a495bf2e6ff9c91a7834c1ba4fdd244a5e8aa4e537bd38aeae4b073aa90602090a1005b604051638dfc202b60e01b8152600490fd5b346101ec5760003660031901126101ec57602060405162278d008152f35b346101ec5760003660031901126101ec576020600954604051908152f35b346101ec5760003660031901126101ec5780603260209252f35b60005b8381106119905750506000910152565b8181015183820152602001611980565b906020916119b98151809281855285808601910161197d565b601f01601f1916010190565b600435906001600160a01b03821682036101ec57565b90600182811c92168015611a0b575b60208310146119f557565b634e487b7160e01b600052602260045260246000fd5b91607f16916119ea565b61012081019081106001600160401b0382111761033957604052565b60a081019081106001600160401b0382111761033957604052565b604081019081106001600160401b0382111761033957604052565b601f909101601f19168101906001600160401b0382119082101761033957604052565b90604051918260008254611a9d816119db565b90818452602094600191600181169081600014611b0d5750600114611ace575b505050611acc92500383611a67565b565b600090815285812095935091905b818310611af5575050611acc9350820101388080611abd565b85548884018501529485019487945091830191611adc565b92505050611acc94925060ff191682840152151560051b820101388080611abd565b8054821015611b4b5760005260206000209060021b0190600090565b634e487b7160e01b600052603260045260246000fd5b9260a094919796959260c08501988552602085015260408401526060830152151560808201520152565b15611b9257565b60405162461bcd60e51b8152602060048201526013602482015272155cd95c881a5cc8189b1858dadb1a5cdd1959606a1b6044820152606490fd5b919082018092116104d257565b9060ff801983541691151516179055565b15611bf257565b60405162461bcd60e51b815260206004820152601360248201527214985d19481b1a5b5a5d08195e18d959591959606a1b6044820152606490fd5b15611c3457565b60405162461bcd60e51b8152602060048201526012602482015271496e76616c6964206d617820636c61696d7360701b6044820152606490fd5b15611c7557565b60405162461bcd60e51b8152602060048201526015602482015274125b9d985b1a59081c995dd85c9908185b5bdd5b9d605a1b6044820152606490fd5b15611cb957565b60405162461bcd60e51b815260206004820152601a60248201527913585e0818dbd9195cc81c195c881d5cd95c881c995858da195960321b6044820152606490fd5b15611d0257565b60405162461bcd60e51b8152602060048201526013602482015272436f646520616c72656164792065786973747360681b6044820152606490fd5b9092611d566060939695946080845260808401906119a0565b95602083015260408201520152565b6001546001600160a01b03163303611d7957565b60405163118cdaa760e01b8152336004820152602490fd5b600260005414611da2576002600055565b604051633ee5aeb560e01b8152600490fd5b60ff60015460a01c16611dc357565b60405163d93c066560e01b8152600490fd5b9060405191611de383611a4c565b6010835260206f181899199a1a9b1b9c1cb0b131b232b360811b602085015260405191611e0f83611a4c565b600883526020830191602036843760005b600480821015611ee95782821015611ed457600f9084831a906001600160f81b031980611e5184841c86168d611f2d565b51169360019386851b9587870460021488151715611ebf57611e8492919060001a611e7c888e611f2d565b53168c611f2d565b5116918301809311611eaa575090611ea36001939260001a9188611f2d565b5301611e20565b601190634e487b7160e01b6000525260246000fd5b601185634e487b7160e01b6000525260246000fd5b603290634e487b7160e01b6000525260246000fd5b50505050611f1a929350611f2a916025916040519485926450495a5a4160d81b60208501525180928585019061197d565b8101036005810184520182611a67565b90565b908151811015611b4b57016020019056fe4cf69375003d889c234c9a613476b035b94511c5ce2ee48603a6aab1070313b98be0079c531659141344cd1fd0a4f28419497f9722a3daafe3b4186f6b6457e0a26469706673582212208ca0be87f69aa4a5b5a742087042a6431ced8b4ce6d04ae33898ab946c54a6c764736f6c63430008180033",
  "linkReferences": {},
  "deployedLinkReferences": {}
}